:400000000010002011000000750200007502000008B500F0ABFB00F02FF9000010B572B680220021D200344800F04BFD8023DA000021324800F045FD314CEE20314B01029C
:40004000992221601A603049C024304B2204802008602F4C1A60D8202E4B01010A2221602D481A602D492E4A02240860992314602C492D4A18042D4B086010601878062105
:4000800004431C701C782A4A0C431C7010688023DC0204432749284B146008781978274B141C1A78172A05D9254A58789978033B9342F6D1234B244A18602448016019210A
:4000C0001160052000F01CFC214B224918780860052000F0A9FC22681F4B2048134023608021132404600B061D4A1E4C1E481F4913602360086010BD00300F4000400F4082
:400100000C000140100001400000044008000440080304400004044031040000080404401804044000500F4030500F4000700F4000010B40CCF1FF0FCDF1FF0FC9F1FF0F3D
:40014000BDF1FF0F1CFF0B402CFF0B4020FF0B40E5F1FF0F28FF0B40FFFFFBFF0802024008010B4004010B4010000C800001024010B5064C2378002B07D10548002802D064
:40018000044800E000BF0121217010BDF000002000000000DC0A000008B5084B002B03D00748084900E000BF07480168002903D0064A002A00D0904708BDC04600000000F1
:4001C000DC0A0000F4000020D00000200000000008B500F0F3FA08BD70B5061C0D1C141C002020802388AB4205D2F05C00F002FB20880130F5E7002070BD0000F7B5114CA3
:40020000071C5C4300230191151C138010262888019A904214D2002C12DB00F0E3FA002809D02C8800F044FB3E19013430702C800026044CEBE70A2000F0F6FB0A3CE6E742
:40024000301CFEBD1027000010B5094C2368402B01D100F05BFA012000F0D0FB00F048FB8021002800D14021216000F04FFA10BDC000002000B5FEE770B50F490F4A0139FE
:400280004B1C14D0506895681468031C1E1AAE4202D040CC40C3F9E7D0681D1C5C1B844202D0002640C3F9E710320139E8E700F0D9FBFFF7C9FFFEE7010000000C0B000067
:4002C00008B500239A00032B02D80D48815800E00C490D4801338150302BF3D1FFF79EFE0A490B4B086800221A60002800D108608022D305186801210843186008BDC0464E
:40030000000000007502000000000020C0000020C800002000470000021C013830B5062822D84B06591ACC0100F088FB080A0C06191B0400164D06E0164813E0164D02E074
:4003400016480FE0164D6319DD789C785978187823020006284318430D04284309E0114800E01148241800E000246178207800020843022A04D0032A07D0012A06D104E0B7
:40038000020A0302134398B200E000BA30BDC046D87F0000D27F0000C17F0000C57F0000C97F0000D67F0000D47F000070B5041C211C0220FFF7B0FF211C061C0320FFF722
:4003C000ABFF751CE9010D18211C0220FFF7A4FF0023421CD201191CAA4209D21078461EF6B2FD2E00D80121C318DBB20132F3E7E401074E604285195B422A78DCB2944220
:4004000001D0062002E00029FBD0002070BDC046C07F0000F0B50E4B0A1C8C1A055D08242E1C5E405B08F70702D50A4F7B409BB2013CE4B26D08002CF2D1013A92B2002AA4
:40044000EBD1D84381B20E02B0B20F0A3843F0BDFFFF00000884FFFFF0B5A24CA544FFF7B7FE62B6002601960296002726AD05AC9621281C4900221CFF23FFF7BFFE002879
:40048000F4D12188042306292BD92A78012A28D1EB78AE781C0234432A19137956790393E31D9C4603238C451BD891790423172917D1E21891B2002902D0281CFFF7AAFF1C
:4004C000039936023143082381420AD131E0019A012A00D003E1012C00D000E10C23002E3FD00026694699310B7001206B469A3328700022301D6C461E705A7081B2281CD5
:40050000E682FFF787FFBCA9774A8B199918774A08709918764A000A08709B181634172107361970281CB1B2221C9623FFF754FE9CE7992327A86B440678187831380B28E8
:4005400001D90523CDE700F083FA1A002900FCFFFCFF7200FCFF7600870040009600BB00C2FF301CFFF722FF0C230028BAD127A86049382200F09CFA331C3826B2E7019EE1
:40058000012E00D0ABE0002C00D0A8E0201CFFF70DFF27AA4142414111708EE00198012800D09CE0012C00D099E0002E00D096E0514B1968FF230A88AB71D409200AEE71DF
:4005C000331C2C71687104268CE70198012800D085E0022C00D882E071A9C8192639E21E3F19FF3900F064FABAB20027832A74D19E246C449D2623786E443178029A1F0295
:400600000F43002A0AD1111C06A8802200F059FAFF2006A900F084F901980290381C71A900F07EF9002856D000270A2359E7019C012C54D119E70198012850D196233E19A4
:4006400059008E4249D871AAD01927A9221C00F02FFAB7B2002344E7002C40D106AB274A191C41CA41C127AA41CB41C201260196231C082636E70198012830D1032C2ED194
:40068000AB796A791902114334020819C00100238022013A145C1B19DBB2002AF9D1002E08D1FF2906D1164E164A31781478581A031BDBB25E4226A90E710023012611E73B
:4006C0000020FFF773FE002802D10F4980240C6000F088F903E0071CBCE7032301E70423FFE6C0460CFDFFFFACFDFFFFADFDFFFFAEFDFFFFC07F0000D4000020E00A0000BA
:40070000D07F0000D17F0000C0000020154810B50368002219680B1C013BBF2B03D01C781219D2B2F8E740680478A21AD3B2A34201D1002902D1002000F052F90020FFF73F
:4007400035FE094C2168221C402901D0002803D000231360FFF780FE8020206000F042F910BDC046D4000020C00000200C4B10201A6810B502400B4900D10A600C68802C3A
:400780000DD100240C600120211CFFF7C5FDA04205D0211C0120FFF7BFFDFFF7BBFD10BD00030B40C0000020034B802219681006084318607047C0460000064010B5054CE2
:4007C0002378002B03D100F02BF801202070FFF7EBFF10BD0C010020014B18687047C04640030640024B0F21186808407047C0460803064000B5044B0F211A681140082924
:40080000F9D0024B186000BD0802064040020640024B002218681A607047C046C80F0640124A134B134810B51A6000230360124A124C134801212160026012480724046075
:40084000114C1248236001601149124C0A601248124A134913602360124A0360124C13480B6013602360036010BDC0460B00000200000640400006400700008048000640B6
:400880000003064004030640100306404400064000020640880E0640C80E064004020640480F0640080F0640C80F0640880F064010B5FFF7ADFF041CFFF794FF094B0028B3
:4008C00003D01C60FFF788FF02E0074A10681C60064CD82321689A0022600A401402204310BDC046C80F064040030640C00F0640024B18680107C80F7047C046040404400D
:400900000230800804D0C0460138FDD1C046C0467047EFF3108072B6704780F310887047F0B50023A7B0071C0193FF2845D8994243D0244A244C04AE26607F25049206A840
:400940008022756000F0B4F8204D214929602B68002BFCDB2068A0210290029A0B069A4201D1002004E00298020F0F2A02D10920019003E021680B0F0A2BFBD1019A002A78
:400980001DD12660134E3F0437430497FFF7C1FF1149124A0B6803932A602F68002FFCDB039DA0260D60FFF7B8FF2468310602940298884203D0029800E001200190019899
:4009C00027B0F0BDB6D70000080000400400004004000080B6D8000008010B400500008001BE7047034B04491A6890B2084318607047C0460CED00E00400FA0510B5041C59
:400A00008022074B1002844205D91868FFF778FF04496418F4E758686043FFF771FF10BDDC0000200080FFFF08B5034B197A4843FFF766FF08BDC046DC00002002B47146B3
:400A400049084900095C49008E4402BC7047C04603B47146490840004900095E49008E4403BC704770B50E4B0E4D0024E81A85101E1CAC4204D0A100725890470134F8E7BB
:400A800000F032F80849094A0E1C541AA5100024AC4204D0A300F05880470134F8E770BDF40A0000F40A0000F40A0000FC0A000010B50023934203D0CC5CC4540133F9E76E
:400AC00010BD00B58218031C934202D019700133FAE700BD400B0000F0000000000000009311A60411140101F8B5C046F8BC08BC9E46704799010000C1020000F8B5C04633
:400B0000F8BC08BC9E46704771010000200B0000D000002020000000280000000000000000000000D40A0000D80A00000000E02EC05D00001800000000366E010000000025
:400B40000000000000000000000000000000000000000000000000000000000000000000000000000000000000000000000000000000000000000000000000000000000075
:400B80000000000000000000000000000000000000000000000000000000000000000000000000000000000000000000000000000000000000000000000000000000000035
:400BC00000000000000000000000000000000000000000000000000000000000000000000000000000000000000000000000000000000000000000000000000000000000F5
:400C000000000000000000000000000000000000000000000000000000000000000000000000000000000000000000000000000000000000000000000000000000000000B4
:407FC000000000000000000000000000000000000000000001010000000000000000000000000000000000000000000000000000000000000000000000000000000000007F
:0200000490303A
:02000000A8D77F
:0200000490402A
:200000000000000000000000000000000000000000000000000000000000000000000000E0
:0200000490501A
:0C000000000204A61193110104A9BA6AC1
:0200000490600A
:0100000001FE
:00000001FF