:400000000010002011000000750200007502000008B500F0ABFB00F02FF9000010B572B680220021D200344800F04BFD8023DA000021324800F045FD314CEE20314B01029C
:40004000992221601A603049C024304B2204802008602F4C1A60D8202E4B01010A2221602D481A602D492E4A02240860992314602C492D4A18042D4B086010601878062105
:4000800004431C701C782A4A0C431C7010688023DC0204432749284B146008781978274B141C1A78172A05D9254A58789978033B9342F6D1234B244A18602448016019210A
:4000C0001160052000F01CFC214B224918780860052000F0A9FC22681F4B2048134023608021132404600B061D4A1E4C1E481F4913602360086010BD00300F4000400F4082
:400100000C000140100001400000044008000440080304400004044031040000080404401804044000500F4030500F4000700F4000010B40CCF1FF0FCDF1FF0FC9F1FF0F3D
:40014000BDF1FF0F1CFF0B402CFF0B4020FF0B40E5F1FF0F28FF0B40FFFFFBFF0802024008010B4004010B4010000C800001024010B5064C2378002B07D10548002802D064
:40018000044800E000BF0121217010BDF000002000000000DC0A000008B5084B002B03D00748084900E000BF07480168002903D0064A002A00D0904708BDC04600000000F1
:4001C000DC0A0000F4000020D00000200000000008B500F0F3FA08BD70B5061C0D1C141C002020802388AB4205D2F05C00F002FB20880130F5E7002070BD0000F7B5114CA3
:40020000071C5C4300230191151C138010262888019A904214D2002C12DB00F0E3FA002809D02C8800F044FB3E19013430702C800026044CEBE70A2000F0F6FB0A3CE6E742
:40024000301CFEBD1027000010B5094C2368402B01D100F05BFA012000F0D0FB00F048FB8021002800D14021216000F04FFA10BDC000002000B5FEE770B50F490F4A0139FE
:400280004B1C14D0506895681468031C1E1AAE4202D040CC40C3F9E7D0681D1C5C1B844202D0002640C3F9E710320139E8E700F0D9FBFFF7C9FFFEE7010000000C0B000067
:4002C00008B500239A00032B02D80D48815800E00C490D4801338150302BF3D1FFF79EFE0A490B4B086800221A60002800D108608022D305186801210843186008BDC0464E
:40030000000000007502000000000020C0000020C800002000470000021C013830B5062822D84B06591ACC0100F088FB080A0C06191B0400164D06E0164813E0164D02E074
:4003400016480FE0164D6319DD789C785978187823020006284318430D04284309E0114800E01148241800E000246178207800020843022A04D0032A07D0012A06D104E0B7
:40038000020A0302134398B200E000BA30BDC046D87F0000D27F0000C17F0000C57F0000C97F0000D67F0000D47F000070B5041C211C0220FFF7B0FF211C061C0320FFF722
:4003C000ABFF751CE9010D18211C0220FFF7A4FF0023421CD201191CAA4209D21078461EF6B2FD2E00D80121C318DBB20132F3E7E401074E604285195B422A78DCB2944220
:4004000001D0062002E00029FBD0002070BDC046C07F0000F0B50E4B0A1C8C1A055D08242E1C5E405B08F70702D50A4F7B409BB2013CE4B26D08002CF2D1013A92B2002AA4
:40044000EBD1D84381B20E02B0B20F0A3843F0BDFFFF00000884FFFFF0B5A24CA544FFF7B7FE62B6002601960296002726AD05AC9621281C4900221CFF23FFF7BFFE002879
:40048000F4D12188042306292BD92A78012A28D1EB78AE781C0234432A19137956790393E31D9C4603238C451BD891790423172917D1E21891B2002902D0281CFFF7AAFF1C
:4004C000039936023143082381420AD131E0019A012A00D003E1012C00D000E10C23002E3FD00026694699310B7001206B469A3328700022301D6C461E705A7081B2281CD5
:40050000E682FFF787FFBCA9774A8B199918774A08709918764A000A08709B181634172107361970281CB1B2221C9623FFF754FE9CE7992327A86B440678187831380B28E8
:4005400001D90523CDE700F083FA1A002900FCFFFCFF7200FCFF7600870040009600BB00C2FF301CFFF722FF0C230028BAD127A86049382200F09CFA331C3826B2E7019EE1
:40058000012E00D0ABE0002C00D0A8E0201CFFF70DFF27AA4142414111708EE00198012800D09CE0012C00D099E0002E00D096E0514B1968FF230A88AB71D409200AEE71DF
:4005C000331C2C71687104268CE70198012800D085E0022C00D882E071A9C8192639E21E3F19FF3900F064FABAB20027832A74D19E246C449D2623786E443178029A1F0295
:400600000F43002A0AD1111C06A8802200F059FAFF2006A900F084F901980290381C71A900F07EF9002856D000270A2359E7019C012C54D119E70198012850D196233E19A4
:4006400059008E4249D871AAD01927A9221C00F02FFAB7B2002344E7002C40D106AB274A191C41CA41C127AA41CB41C201260196231C082636E70198012830D1032C2ED194
:40068000AB796A791902114334020819C00100238022013A145C1B19DBB2002AF9D1002E08D1FF2906D1164E164A31781478581A031BDBB25E4226A90E710023012611E73B
:4006C0000020FFF773FE002802D10F4980240C6000F088F903E0071CBCE7032301E70423FFE6C0460CFDFFFFACFDFFFFADFDFFFFAEFDFFFFC07F0000D4000020E00A0000BA
:40070000D07F0000D17F0000C0000020154810B50368002219680B1C013BBF2B03D01C781219D2B2F8E740680478A21AD3B2A34201D1002902D1002000F052F90020FFF73F
:4007400035FE094C2168221C402901D0002803D000231360FFF780FE8020206000F042F910BDC046D4000020C00000200C4B10201A6810B502400B4900D10A600C68802C3A
:400780000DD100240C600120211CFFF7C5FDA04205D0211C0120FFF7BFFDFFF7BBFD10BD00030B40C0000020034B802219681006084318607047C0460000064010B5054CE2
:4007C0002378002B03D100F02BF801202070FFF7EBFF10BD0C010020014B18687047C04640030640024B0F21186808407047C0460803064000B5044B0F211A681140082924
:40080000F9D0024B186000BD0802064040020640024B002218681A607047C046C80F0640124A134B134810B51A6000230360124A124C134801212160026012480724046075
:40084000114C1248236001601149124C0A601248124A134913602360124A0360124C13480B6013602360036010BDC0460B00000200000640400006400700008048000640B6
:400880000003064004030640100306404400064000020640880E0640C80E064004020640480F0640080F0640C80F0640880F064010B5FFF7ADFF041CFFF794FF094B0028B3
:4008C00003D01C60FFF788FF02E0074A10681C60064CD82321689A0022600A401402204310BDC046C80F064040030640C00F0640024B18680107C80F7047C046040404400D
:400900000230800804D0C0460138FDD1C046C0467047EFF3108072B6704780F310887047F0B50023A7B0071C0193FF2845D8994243D0244A244C04AE26607F25049206A840
:400940008022756000F0B4F8204D214929602B68002BFCDB2068A0210290029A0B069A4201D1002004E00298020F0F2A02D10920019003E021680B0F0A2BFBD1019A002A78
:400980001DD12660134E3F0437430497FFF7C1FF1149124A0B6803932A602F68002FFCDB039DA0260D60FFF7B8FF2468310602940298884203D0029800E001200190019899
:4009C00027B0F0BDB6D70000080000400400004004000080B6D8000008010B400500008001BE7047034B04491A6890B2084318607047C0460CED00E00400FA0510B5041C59
:400A00008022074B1002844205D91868FFF778FF04496418F4E758686043FFF771FF10BDDC0000200080FFFF08B5034B197A4843FFF766FF08BDC046DC00002002B47146B3
:400A400049084900095C49008E4402BC7047C04603B47146490840004900095E49008E4403BC704770B50E4B0E4D0024E81A85101E1CAC4204D0A100725890470134F8E7BB
:400A800000F032F80849094A0E1C541AA5100024AC4204D0A300F05880470134F8E770BDF40A0000F40A0000F40A0000FC0A000010B50023934203D0CC5CC4540133F9E76E
:400AC00010BD00B58218031C934202D019700133FAE700BD400B0000F0000000000000009311A60411140101F8B5C046F8BC08BC9E46704799010000C1020000F8B5C04633
:400B0000F8BC08BC9E46704771010000200B0000D000002020000000280000000000000000000000D40A0000D80A00000000E02EC05D00001800000000366E010000000025
:400B40000000000000000000000000000000000000000000000000000000000000000000000000000000000000000000000000000000000000000000000000000000000075
:400B80000000000000000000000000000000000000000000000000000000000000000000000000000000000000000000000000000000000000000000000000000000000035
:400BC00000000000000000000000000000000000000000000000000000000000000000000000000000000000000000000000000000000000000000000000000000000000F5
:400C000000100020110C00009D3800009D38000008B5024B83F3088802F058FE00100020F7B572B6E022002192006A4803F0AAFE80220021D200684803F0A4FE6749684825
:400C4000802203F096FE0023191C664C18592834C2B20192071CFF2297434A00A4180022019ED5B2AE4209D05500665D6519B446BC446D78664635700132F1E7C0B20433BE
:400C80000918282BE1D1584A584B87211A60584A584B84201A60584B99221A60574B4F221A60574A574B40051A60574B0F221A60564A03231360564A116056493C220A60DF
:400CC00055490A60554AD8211360554A09011160544A55491360554B0E221A60544A554B1A60554BC0221A60544B02221A6099231B040B605249086052490C200B605249C7
:400D00000B6052490B60524BF02109031960514B19780A431A70504A117881430420014311701A7816210A431A704C4A80231168DB020B4313604A4B141C1878494BC0B2F0
:400D40001978494BC9B21A78172A05D9474A58789978033B9342F6D1454B19221860454B05201960444B1A6003F0CAFB434B05201A78434BD2B21A6003F0F6FC2268414BD8
:400D8000012013402360404A404B1A60404B13221A60404B10221A603F4B20221A603F4B822212061A603E4A3E4B1A603E4A3F4B1A603F4A3F4B1A603F4A404B1A60404B79
:400DC00004221A603F4B404A1360404A136002F0CDFDF7BD80300F4000400F406C63000000300F40EC630000003300030000014076EE00000C000140100001400000044077
:400E0000920DD800080004400C0004400001044018010440000204401802044000030440080304401803044000500F4000040440B1050000080404400C04044018040440C3
:400E400008500F4010500F4020500F4030500F4038500F4000700F4001700F4000010B40CCF1FF0FCDF1FF0FC9F1FF0FBDF1FF0F1CFF0B4020FF0B402CFF0B40E5F1FF0FA7
:400E800028FF0B40FFFFFBFF0600008004010B40080202401C0202403002024008010B400D00008000000240170000804000024010000C80000102400401240080001040BE
:400EC000C00010403C00420000031A4040031A4010B5064C2378002B07D1054B002B02D0044800E000BF0123237010BD90010020000000000454000008B5084B002B03D0E2
:400F00000748084900E000BF07480368002B03D0064B002B00D0984708BDC046000000000454000094010020D00000200000000008B5034B03481968342203F0C5F908BD24
:400F4000D400002008540000034B044ADA62044A9A63044ADA637047000000201D2D0000BD2D0000012E000030B585B062B6264B19681C1C0A78022A01D8FFF7D9FF012067
:400F800003F0E0F9002003F077F90A2003F0ECFB012003F071F90A2003F0E6FB03F072F823680024187A02F0F0FF00F0B5FF02F01DFD02F06BFD154B201C1C7200F056FF6A
:400FC000022000F0E9FF01F0ABFB00F07DFF104B022501930095231C029403940D49B2220D4802F051F90D4B0D49A02201930095231C029403940B4802F046F9FFF7A4FF00
:4010000002F0F8F905B030BDD4000020200C0020300C00203C540000111E00001C0C00203F5400003D25000008B572B6002003F089F9FA20400003F081FB012003F082F9C1
:40104000FA20400003F07AFBF0E708B572B6002003F078F9FA20C00003F070FB012003F071F9FA20C00003F069FBF0E710B5041C88470023201C23606360237210BD0000F5
:4010800010B5041C03F027F80020011C0B4A012303F02AF800210B1C0420094A03F024F800210B1C0620074A03F01EF803F002F90023201C23606360237210BD2C56000061
:4010C0003A560000485600007FB5041C02F0B8F91A4B051C1B681A4E984209D93378002B06D10222636001232270E060337023E07268AB1A322B18D8124B32321868521BD4
:40110000211C002302F017F800280ED02378062B04D168460021FFF7B3FF0DE0012B0BD13378002B08D00023337004232370E5600820756003F0C8FA7FBDC046D8000020DC
:40114000AC010020340C0020F7B5031CC0430E1CC017FA2118408900151C03F067FBFA218900041C03F062FBFA21071C8900201C03F0B2FB00960B1C281C3A1C014903F0A6
:4011800009FCF7BD56560000F7B5C643F6170191141C064001271F4BFA21301C89009E4204DD03F043FB0137061CF4E703F03EFBFA21051C8900301C03F08EFB081C092D44
:4011C00006DC0A2103F032FB1349031C201C07E0632D09DC642103F029FB1049031C201C2A1C03F0D7FB04E0201C0D492A1C03F0D1FB201C012F05D10A4903F0EDFB201C2D
:40120000019904E0019903F0E7FB0749201C03F0E3FBF7BD3F420F00615600006A560000735600007856000024570000812307B5584303F0FBFA031CFF2210330092DBB212
:4012400006201021072202F023FF07BDF0B5061C99B0002000F00AFE022000F09DFEA64D342229680BA803F084FBA44B0FA90A1C103391CB91C213CB13C283CB83C202F04B
:401280002AFF0020011C9E4A012302F02DFF9D4F012400203C7202F007FC002002F0B4FB231C02200021984A02F01EFF002306202621964A02F018FF07AC00232370237819
:4012C000012B03D0201CFFF7FFFEF8E76568012DF8D10BA801F0AEFB00203D7202F0E4FB002002F091FB8A4A2B1C0220002102F0FBFE002203AB1A7003AC2378012B1ED08B
:40130000201CFFF7E1FE01F039FA159A169B801A584307AA7F49FFF717FF7F4907A803F05BFB002304202B2107AA02F0DDFE2378032BE1D16368169CE3181693DCE767685F
:40134000012FDDD16F4B00201F7202F0ADFB119A72490025881A109903F068FA02F054FB291C009504200822A02302F091FE291C02206B4A3B1C02F0B7FE2B1C06202621E4
:40138000624A02F0B1FE2570644D03AC2378012B1ED0201CFFF798FE01F0CEF9139B149FC01A07AA78435F49FFF7CEFE5A4907A803F012FB002304202B2107AA02F094FE8B
:4013C0002378032BE1D114986368C3181493DCE76768012FDDD14B4B00201F7202F064FB1199681A109903F021FA002502F00CFB0420291C0822A023009502F049FE02202A
:40140000291C434A3B1C02F06FFE062026213F4A2B1C02F069FE257003AC2378012B2BD0201CFFF751FE01F087F9139A149B851A5D4301F0A3F9EB179B0D159F5D191699EB
:40144000179AC01BAD1248435543324907AA4019FFF77AFE304907A803F0BEFA002304202B2107AA02F040FE2378032BD4D16368179CE3181793CFE76768012FD0D1214B71
:4014800000241C72211C009402200822A02302F0FFFDFF25231C03200E21234A02F024FE009506200F210722102302F0F1FD0095062091210722922302F0EAFD81230093F4
:4014C000062091231021072202F0E2FD0BA8174A124901F0D1FA0BA8104901F023FB064F0BA83968342202F0EFFE301C34607460347219B0F0BDC046D4000020085400009D
:401500007A560000200C002088560000965600009E560000AC5600002457000080841E00AE560000BC560000BE5600002D12000070B588B0FF25041C02F0CDFD02210A1C23
:401540000020A023009502F0A3FD00202021324A012302F0C9FD06202621304A002302F0C3FD04200F2105221023009502F090FD9223009504209121052202F089FD284EF5
:4015800033689B680393039BFF2208335B00DBB2009204201021052202F07AFD0399812308314900C9B2009304209123052204AD02F06EFD281CFFF787FD2B78032B04D05E
:4015C000052B1FD0012BDED10FE06B68039AD3183F2B01DD3F2302E0002B00DA00230393039BD8B202F0D1FCCDE76B68012BCAD1316803A80831042202F066FE0023236089
:40160000636004E0074B6D68236065600023201C237208B070BDC046CA560000D3560000D40000202916000070B5FF2586B0041C00200E1CA0230095011C082202F028FD9A
:40164000331C2B4005D0012B09D102200021164A03E0164A02200621012302F045FD012306202021124A02F03FFD02AD00232B702B78012B07D0281CFFF726FD00F0A8FC35
:401680000228F5D108E06B68012BF4D1002000F0EDFB022000F080FC0023201C23606360237206B070BDC046E8560000DB560000F656000010B5041C01F06CF80249221C67
:4016C000FFF762FD10BDC046AC560000F0B589B0041C02F000FD0221FF230A1C00930020A02302F0D5FC414A01230020142102F0FBFC3F4B5E68751C6A1E9541EDB2002D37
:4017000002D101F047F8061C301C3A4903F0E4F8761A04201E21384A2B1C02F0E5FC01236B4004205A21354A02F0DEFC301C344902AAFFF729FD04AF00230620302102AA14
:4017400002F0D2FC381CFFF7BFFC3B78032B04D0052B10D0012BDCD104E07B68012213405D40D6E77B68012BD3D1002D0ED1204A5B4253602EE0234B7F6823600023676026
:4017800023722FE0052B28D0012B1ED01C4902AA301CFFF7F9FC02A803F049F902AB1818013800251A1C057001230620302104AF02F09AFC381CFFF787FC3B78032BE1D100
:4017C0007B680C4A5343F618E0E77B68012BDDD1074A56602560656003E07F68094B676023602572201C09B0F0BDC046FF560000200C0020A08601000B5700000E57000001
:40180000AC56000029160000F0B591B005900C1C02F061FC00230CAA137004930CAB1A78012A00D1BDE02068002826D003F0FFF80C2670439E26361A7608F6B2771C02213B
:40184000FFB2FF250A1C00203B1C009502F020FC0020391C2268012302F046FC612149428E1BF1B2002000950222A02302F010FC032001210790069102E00422079206905F
:40188000069B0498DBB25D0007990993EDB202F0CDFF002801DD4A4A00E04A4A281C9421002302F021FC0498079903F015F804980A91451A2D016519043500272B68F9B213
:4018C0000891002B26D0099A0A988E183A1A51424A41D2B276000B92F6B21A1C02210B9B301C02F001FC286803F0A1F80C214143069A089B0B9801329A184342DBB201317C
:4019000052000093C9B2D2B2301C942302F0C0FB10350EE00899099A00938818069A400001328A185200C0B2D2B20121A02302F0AFFB079B01379F42C0DB2B680620942127
:40194000002B02D0204A002300E01E4A0CAD02F0CBFB281CFFF7B8FB2B78032B0BD0052B00D05BE7059A194B6D681360002303955560137220E06A6804988318002A0CDAF0
:40198000DA43D217134048E7049A0132110161184968002900D141E7049204999942F3D13CE70D9B012B00D03DE704980301E418059B083407CC07C3059811B0F0BDC0468D
:4019C00012570000245700001457000029160000F0B5184B8BB0184E1B6804AD0191041C311C281C0093FFF70FFF059F002F08D007AD311C5431281CFFF706FF089B002B64
:401A000003D1231C07CD07C310E068460F300370019B03215943009A511879180B31012202F052FC0023236063602372201C0BB0F0BDC046D400002044540000F0B58BB002
:401A4000041C02F048FB06AD281CFFF73DFB28780138042838D802F091FE030C163730006B68012B30D15A4B221C783323CB23C2ABE000F0ADFA022801D0022000E000202A
:401A800000F08AFA20E02820A9686E6802F080FE002800D1012070434E4E4F4D70432968401800F0E3F9FA212868890002F0BEFE011C4A4800F026FB06E0494B6D68236032
:401AC00000236560237280E0464B474A1B680393039D131D2E7B454AF6009E193368934215D004A89847424904A802F075FF0020011C04AA02F015FB04A82E2102F079FF4A
:401B0000002813D100906C21042278230CE00025281C291C06227823009502F0B9FA0095042078210622A02302F0B2FA77680C26381C02F07CFF46436025F6B26D42AD1B4A
:401B4000EDB20020291C3A1C012302F0CDFA232E06D8002000907C2102222B1C02F098FA00F036FA002807D102207C21214A012302F0BAFA002514E00023009302207C2121
:401B80000422A02302F084FAF4E7582169435839C9B2062004AA002302F0A6FA022D00D151E7039B01350C330F4A5B5D0432DB0004A8D358984704A802F039FF0528E4D15C
:401BC00004A80B4902F008FFDFE7201C0BB0F0BDC454000010270000200C00201657000029160000D400002044550000F91B0000245700000E57000008B5024902F00FFFB2
:401C000008BDC0461F57000010B5041C00F072F90249221CFFF7B8FA10BDC046BC56000010B5041C00F094FD0249221CFFF7ACFA10BDC046BC56000070B5041C00F088FDE3
:401C4000051C00F0A7FDFA21061C8900281C02F0EDFDFA21051C8900301C02F0E7FD03496843221CFFF790FA70BDC0462657000070B5041C00F06CFD051E10DD00F08AFD58
:401C80000A2646430849281C02F0D0FD011C301C02F0CCFD0549221CFFF776FA03E0201C034902F0BCFE70BDA08601002C5700002857000010B5041C00F0A2FE0249221C96
:401CC000FFF762FA10BDC0462E57000010B5041C00F09CFE0249221CFFF756FA10BDC0463157000030B5041C85B006256846013DFFF7EAF9002DF9D102F0CAFA002801D1D0
:401D0000FFF716F9034B221C443323CB23C2201C05B030BD4455000038B502F0B9FA0F4CA06002F0BDFA23690D4DAB6001F094FBA3682061002B0ED001235B422360AB685E
:401D4000C01A022809D9074B00221868211D131C01F0C3F901E06430206038BDD8000020AC010020340C002070B502F075FA061C02F07AFA214D224A1423EB565032D15657
:401D8000204CB14204D1237B29750133237306E092579A4203D1237B2E75013B23730C23E356DA179B185340032B25DD6B6A236101F052FB22696862801A01D0286201E0C6
:401DC00001232B620C23E356291CDA17920FD3189B10EB610C4B002218681831131C01F07CF90C22A256094B134004D50422013B524213430133237370BDC046D800002053
:401E000044550000AC010020340C00200300008030B5102185B00022022001F0B0F80E4B18600E4802F006FA0D4802F0DFF900210C4B0D4C0D1C01A89847019B002B08D0D8
:401E400003AA1278029952B2002AF4D00D1C1C1CF1E7291C231CEEE7340C0020691D0000191D0000E51C00003D1A000038B5002804DB124B984202DD181C00E00020104DFD
:401E8000104B18602B689C69041B00F0C5FD241AE343DB171C402B68201C596902F0C6FC01F0B2FD2D68201C696902F015FD081C296902F0BBFC01F0F7FD38BD808D5B0007
:401EC000D4000020200C002008B50122064B524200201A605A60FFF7C9FF044B1B68DA69034B1A6008BDC046200C0020D4000020000F1040014B18687047C046200C0020AF
:401F0000014B18787047C046D77F0000014B18787047C046D67F00007FB5A020800000F059FE061C0020011C02F01CF80024154B1548E3180222995E00229B5EA025C91AEA
:401F4000321CAD0018186B46009500F069FB301C291C01F0EFFF0234012002F0EFFB102CE5D10A4B01A81A78094B0A491B7802F011FD0021062001AA0B1C02F0B5F800F095
:401F800059FE7FBDC45B0000D65B0000D77F0000D67F0000EF5700000C4B10B5041C1870012809D0002807D002280DD1002001F0D7FD01F0B1FD07E001F0BCFD201C01F03E
:401FC000C3FD062001F0CCFD10BDC04600010020014B18787047C0460001002070477047F0B585B001F0DEFE00250190019B9D4238DA01F035FFC3B20A2B10D00D2B0ED076
:40200000002B2DD01A4B1A1C513211781A78541C1C702824614301338A18D05420E0144C2378002B1CD0261C5136327828277A431049D218002353540F4A03A910681A1C08
:402040000B7001F04AF8012807D13378094A5F430133D719184067653070054B00221A700135C3E7054B1A68054B1A6005B0F0BDC0010020C1010020380C0020CC0F064007
:40208000C00F06408A1E10B5031C052A35D81C4C0278201C6830805C401802380C282CD802F06CFB1E1D07090B0D0F11131517191B00103414E0183412E0203410E0283482
:4020C0000EE030340CE038340AE0403408E0483406E0503404E0583402E0603400E0083421680878904208D1581C013102F08DFC434258414042204000E0002010BDC04660
:40210000F85700000FB437B50F4CA06D002817D000210122251C0B1C52425C3501F00BF807AB5121069A281C019303F059F8281C01F0AAFE0021A06D0A1C0B1C00F040FFFE
:4021400037BC08BC04B01847C001002008B50248FFF7D8FF08BDC046E058000008B50378002B10D002F0C4FB002805DBFA239B0058430A4B984204DD09480A49FFF7C2FF23
:4021800001E0FFF773FE084BFA211868890002F04DFB011C0548FFF7B5FF08BD808D5B00EA58000070170000200C00201657000008B50220FFF7F0FE0148FFF7A3FF08BDFA
:4021C0001559000013B50E49019001A802F036FC0378002B03D10B48FFF794FF0FE002F087FB094C002803D101235B42236006E06423FA215843890002F0CAFA206013BDF4
:40220000245700001A59000004010020114B10B5186801F0D5FA011C0F48FFF773FF0F4B186801F0CDFA011C0D48FFF76BFF00F007FD011C0B48FFF765FF022001F076FDA6
:40224000041C032001F072FD211C021C0648FFF759FF10BD300C0020465900001C0C0020595900006F5900008359000070B590B00190504901A802F0E1FB0378061C002B90
:4022800001D14D4892E04378002B00D086E04B4C03A825683422291C02F06BFB3378261C6F2B16D006D8642B27D0692B1DD04F2B74D12AE0762B10D0782B36D0742B6DD145
:4022C000019802F015FB3E4A011C03A800F0D4FB66E003A800F0AEFB62E0019802F008FB011C03A800F0AFFB5AE0019802F000FB011C03A800F0B3FB52E0019802F0F8FAA3
:40230000011C03A800F00EFC4AE001980378002B04D1E9692B48FFF7F5FE49E002F0E8FA011C03A800F050FC3AE029692648FFF7E9FE236825485969FFF7E4FE236824486E
:402340009969FFF7DFFE23682248D969FFF7DAFE23682148196AFFF7D5FE23681F48596AFFF7D0FE23681E48996AFFF7CBFE23681C48D96AFFF7C6FE23681B48196BFFF7C3
:40238000C1FE00F0D9F9011C1848FFF7BBFE00F0F5F9011C1648FFF7B5FE06E0154805E0316803A8342201F08FFF1348FFF7AAFE10B070BD2457000094590000D4000020EB
:4023C000DD1F0000DF590000EA590000045A00001E5A0000385A0000525A00006C5A0000865A0000A05A0000BA5A0000D45A0000EE5A0000BC590000155900001FB5074882
:40240000FFF780FE6A4606231370054B002218686946131C00F0D4FD05B000BD15590000340C002010B5FFF76BFD041CFFF76EFD211C021C0148FFF765FE10BD085B00002A
:4024400010B503780E4C002B0FD002F051FA002805DBFA239B0058430A4B984204DD0A480A49FFF74FFE00E06060FA216068890002F0DCF9011C0648FFF744FE10BDC046DF
:40248000200C0020008793031A5B000060EA00003E5B000008B50220FFF77EFD0148FFF731FE08BD1559000008B50020FFF774FD0148FFF727FE08BD1559000038B500F0B2
:4024C00047F9041C00F066F9FA21051C8900201C02F0ACF9FA21041C8900281C02F0A6F9211C021C0148FFF70DFE38BD485B000008B5FFF7E3FF08BD08B5011C0148FFF74C
:4025000001FE08BD555B000013B50B49019001A802F094FA041C02F08AFA011C201CFFF7B1FD002803D1201CFFF7E6FF02E043680198984713BDC04624570000F0B501208F
:4025400085B0011C002200F01AFD1E4C2060012000F0A2FD1C4F251CB8651C4801F012FF01F00CFC1A4B03AC1B68019300F068FF184E0199326B831A8B4205D900F060FF68
:4025800001233063237009E0019B211CD218121A0023286800F0CFFD0028EFD020780328E0D802F0EBF80502090BFFF787FFD9E7786DFFF7A9FFD5E7074800E00748FFF749
:4025C000A1FDCFE7380C0020C0010020E11F00000401002040020020725B00007D5B000030B541180023884214D20578441C1F2D04D80135601988420AD90EE06D09072D0C
:4026000002D14578841C07358C4206D2601C02335B19E8E71360002001E00220404230BDF0B589B004900291161C1C1E03D018681018039000E00393002307939C4268D0C7
:40264000049F9F4204D10298984262D1206064E0002E5ED00499029F0498C9190591351C0278431C1F2A13D8013203990192AA188A4240D8019FD919059B99424BD800232F
:40268000C7187F78EF54019F01339F42F8D128E01F2717403F02FF437F195109BC46072902D14178831C07318F1C0398EA19824206D900200822BA424041023818181AE0BD
:4026C00005998B4227D21878591C63461B1A0193B34220D300230198C05CE8540133BB42F9D1059B994202D2151C081CB8E7961B2660002011E0049F07AA391A029FC91953
:40270000FFF76EFF002808DB0799AD1B6D18256003E0032000E00220404209B0F0BD000008B501F0EBFA034801F054FE01F0F4FA08BDC046D5270000034B044A1B7810685B
:40274000184100B27047C0460801002074020020074B084A08491B681278086810411A6A5B6A801A5843C343DB1718407047C046D40000200801002074020020034B044A35
:402780001B785068184100B27047C046080100207402002038B50C4B0C4A1C680C4B55681B781D41A36AED1AE36A5D43FFF7D0FFC3179B0D1818236B801258432818C343AB
:4027C000DB17184038BDC046D40000207402002008010020F0B57F4B8FB01B68012502932B4200D1F1E07C4B1A7A1C1C632A74D87A4E1B6837781A1C3A4100209F1A01F005
:4028000095FA636836781A1C3F183241281C9E1A276001F08BFA724D361866602B7A002B14D1FFF795FF061CFFF764FBE368301A8010C0186B4B984204DC6B4B984201DB35
:40284000E06000E0E3602868FFF710FB00F0F8FD2769051EBD4233D9FFF77AFF061CFFF799FFEF1B0197774362690390BF185F49381C01F08DFFA3695C49C018A061381CBA
:4028800001F0CAFF6161FA21301C890001F0CEFFFA21061C8900039801F0C8FF4643019AE3695643F6185149301C01F071FF226A4E4980182062301C01F0AEFF2561E16188
:4028C000454B1B7A632B7CD10C2001F03FFA484BF0211A688A4370216CE0652A6DD1FFF777FB061E022E5DD13D4C636801332BD0FFF700FB002827DDFFF74CFF6368984275
:4029000022DA0020FFF748FB0020FFF7AFFA06AC384B00211022201C1F6802F033F805232370656000F098FD0022131CE060211C381C00F0D2FB304B6A46186803231374DF
:4029400004A90022331C2BE0022001F0EFF9041C032001F0EBF9241AE317E4185C40042C20DD0020FFF718FB0020FFF77FFA0AAC204B00211022201C1D6802F003F805231C
:40298000237000F069FD0022131CE060211C281C00F0A3FB184B05A9186802230B70002200F09BFB332001F0D1F9114BF0211A688A43C0210A431A6003E0662A01D10022DC
:4029C0001A72054B1A7A01321A720C4B029A1A600FB0F0BD1C021A407402002008010020200C0020A08601006079FEFF407E050000001A40340C0020380C002010021A4002
:402A0000014B98697047C04674020020014B186A7047C04674020020014BD8687047C04674020020024B00229A611A627047C0467402002010B5041CFFF7A0FEA062FFF74C
:402A40007BFE206210BD38B50D1C041CFFF796FEA36AC11A281C01F0E9FEE06238BD38B50D1C041CFFF768FE236AC11A281C01F0DDFE606238BD0000F0B5274B87B00592ED
:402A800001221A72051C081C244901F0CFFE061C002001F009F8802300241B0601940493621C1F4F4021059B101C02929847301C3C6000F0A9FF642000F09EFDFFF73CFE64
:402AC0002A6A801A0390042000F09EFF642000F093FDFFF731FE2B6A039AC01A70439300C01A311F01F0A2FE002804DC049B984201DD01940490029A402A01D0141CCFE7E9
:402B0000019B0020EB613B60FFF7B0F9024B00221A7207B0F0BDC046200C0020A5520000000F1040F7B5254A01231372041C081C234901F07BFE061C002000F0B5FF301C3C
:402B400000F062FFC82000F057FDFFF7F5FD1D4D236AC01A2B685F6A4743042000F054FFC82000F049FDFFF7E7FD2B68226A5B6A801A4343311FF81A019301F057FE464311
:402B8000BF1B6061A7617F2000F08EFFC820400000F032FDFFF7D0FD236A019AC01A2B687F215B6A5843801A01F040FE20610020FFF75CF9014A00231372F7BD200C00200F
:402BC000A5520000D4000020014BC16119607047000F104038B50723051C184201D09D43083500F025FC0F4A1368002B04D1131C0C3307218B4313600B490C484B68ED1851
:402C0000854205D89D4203D914684D60E41800E0002400F0A1FC002C01D1FEF716FA201C38BDC04698020020180B00207708000070470000014B00225A607047180B0020F0
:402C4000024B03485B68C01A7047C046180B002078080000031C0833012243605242C3600361002382600360704700230361704743689A684B608A609A68516099600368AE
:402C8000086101330360704730B50C68031C0833621C01D1036905E05A681568A54201D8131CF9E75A684A6091608B605960036808610133036030BD43688168996082682B
:402CC000536003695968814200D15A6000220261186801381860704772B6FEE7064A13681868203080F30988022080F314883FBCAE4662B600BDC046200B002010B58024DE
:402D0000031F64041C60043B19600349043B1960143B40381A6010BDD92C00007047000008B50C4BFF22196812040A431A601968FF2212060A431A60074A084B1A60084B82
:402D400007221A60074B00221A60FFF7C7FF72B6FEE7C04620ED00E07FA9030014E000E010E000E00C010020044B802252051A60BFF34F8FBFF36F8F7047C04604ED00E07A
:402D800072B6044B1A6801321A60BFF34F8FBFF36F8F70470C010020034A1368013B1360002B00D162B670470C010020EFF3108072B67047002080F310887047EFF309803C
:402DC0000E4B1A6820381060F0C044464D4656465F46F0C008B572B600F028FC62B60CBC116808681030F0C8A046A946B246BB4680F309882038F0C81847C046200B002026
:402E000010B5FFF7D3FF041C00F032FB002803D08022034B52051A60201CFFF7CCFF10BD04ED00E038B5151C026C041C002A07D10568002D29D1406800F00EFD656024E0C3
:402E4000002D0CD1806801F094FDA168226C8B186168A3608B4218D32268A26015E0C06801F087FD216C4B42E168CA182168E2608A4202D26268D318E360022D05D1A36B47
:402E8000002B02D0A36B013BA363A36B0133A36338BD38B50468002C0CD0C368026C9D184368C5609D4200D3C460C368081C191C01F05FFD38BD10B5041CFFF761FFA36C23
:402EC000002B0EDD636A002B0BD0201C243000F011FC002801D000F06DFCA36C013BA364EDE701235B42A364FFF756FFFFF748FF636C002B0EDD2369002B0BD0201C1030A1
:402F000000F0F8FB002801D000F054FC636C013B6364EDE701235B426364FFF73DFF10BD38B5041C0D1CFFF72BFF226CE16B236851438A1A5818A3609B18E36001235B422B
:402F400060600020A0636364A36485420BD12169814210D0201C103000F0CCFB01280AD1FFF702FF07E0201C1030FFF773FE201C2430FFF76FFEFFF70FFF012038BDF8B51E
:402F8000061C0F1C002801D1002417E04C20FFF721FE041EF8D0381C70430130FFF71AFE051C206006D0E6632764201C0121FFF7B7FF03E0201CFFF73BFE2C1C201CF8BD22
:402FC000F0B585B0041C009101921F1C0025FFF7D7FEA36BE26B934201D3022F13D1201C00993A1CFFF71EFF636A002B07D0201C243000F07FFB012801D1FFF7B5FEFFF7CE
:40300000CBFE012046E0019E002E02D1FFF7C4FE3FE0002D02D102A800F09AFBFFF7BCFE00F006FAFFF7ACFE636C013301D100236364A36C013301D10023A364FFF7ACFEFC
:4030400002A801A900F090FB00281DD1FFF798FEA66BE56BFFF7A0FE201CAE420FD11030019900F029FB201CFFF725FF00F074FA002801D00125AAE7FFF776FEFAE7FFF74B
:403080001AFF00F069FAF5E7201CFFF714FF00F063FA002005B0F0BD38B54C20FFF79AFD041E18D001230025C3635B428563056443644560836405608560C5601030FFF78F
:4030C000C9FD201C2430FFF7C5FD201C291C2A1C2B1CFFF775FF201C38BDF7B5041C161C1F1C0091FFF762FEA36BE26B0190934202D30025022F19D1201C00993A1CFFF702
:4031000091FEA36C01330DD1636A002B0DD0201C243000F0EFFA002807D0002E05D00125356003E0A36C0133A36401250198FFF742FE281CFEBDF0B585B0041C0F1C01920B
:4031400000930025FFF71CFEA36B002B2AD0201C391CE568FFF79DFE009B002B14D1A36B013BA3632368002B02D100F03BFB60602369002B12D0201C103000F0BBFA012898
:403180000CD1FFF7F1FD09E0636AE560002B05D0201C243000F0AEFA0028F2D1FFF7FCFD012050E0019E002E02D1FFF7F5FD49E0002D02D102A800F0CBFAFFF7EDFD00F020
:4031C00037F9FFF7DDFD636C013301D100236364A36C013301D10023A364FFF7DDFD02A801A900F0C1FA002827D1FFF7C9FDA56BFFF7D2FD002D1AD12368002B06D1FFF7B6
:40320000BFFD606800F0F4FAFFF7C6FD201C2430019900F051FA201CFFF74DFE00F09CF9002801D001258DE7FFF79EFDFAE7201CFFF741FE00F090F9F4E7201CFFF73BFED7
:4032400000F08AF9002005B0F0BDFEE70C4B10B51A68041C50605A68904205D2986819680431FFF711FD09E0D86819680431FFF70BFD044B1A68944200D21C6010BDC0463C
:40328000200B002010010020F7B5019040200E1C151C1F1CFFF79EFC041E00D19EE00A98002802D1A800FFF795FC2063002803D1201CFFF7BDFC91E0AD002A1CA52101F00D
:4032C00061FB226B043D072355199D4300950023F15CE21834321170F256002A02D00133082BF5D1231C089D00223B331A70032D00D90325261DE562E563301CFFF7B5FCE1
:40330000201C1830FFF7B1FC04235D1B2461A5616462009801993A1CFFF7F0FC099B2060002B00D01C60FFF72BFD2E4D2B6901332B612B68002B27D12C602B69012B2DD184
:40334000281C1430FFF786FC281C2830FFF782FC281C3C30FFF77EFC281C5030FFF77AFC2148FFF777FC2148FFF774FC204F381C0C30FFF76FFC381C2030FFF76BFC1A4A87
:403380001A4BEA60AB6009E0194B5B6B002B05D12B68089ADB6A934200D82C60144B9A6BD96B01329A63E26A1C1C8A4200D9DA6314235A43281C14308018311CFFF758FCC3
:4033C000FFF7EAFC636B0124002B09D02B68089ADB6A934204D2FFF7C7FC01E001246442201CFEBD200B0020840B0020980B0020A00B00201FB500240094019402940394A3
:40340000074808493222231CFFF73EFF012806D172B6054B5863054B5C60FFF781FC1FBD4B32000064630000A00B0020200B0020024B1A6C01321A647047C046A00B002032
:4034400010B5FFF79DFC034B5C68FFF7A5FC201C10BDC046200B002010B5FFF7A7FC034B5C68FFF7A8FC201C10BDC046200B0020F7B5364D2B6C002B32D1354C636801331D
:4034800063606268334B0092002A12D1E268A168E160A2606A6C01326A64E2681268002A02D10122524203E0E268D268D26852681A601B68009A00279A4207D3E3681B68E0
:4034C000002B16D10122234B52421A6023681422DB6A5343E4186369012B05D9012703E0AB6C00270133AB64EB6C002B2CD001272AE0E368009ADB68DE6873689A4202D278
:40350000144A1360E2E7331D181C0193FFF7D4FBB26A002A03D0301C1830FFF7CDFBF36AEA6B934200D9EB6314225343084801991430C018FFF79CFB054A1368F26ADB6A31
:403540009A42BBD30127B9E7381CFEBDA00B0020200B002010010020F8B5FFF711FC244C236C013B2364236C002B01D000243BE0204E3369002BF9D0E368002B1ED0A36919
:40358000DD68281C18302F1DFFF796FB381CFFF793FBEB6AE26B934200D9E36314225343301C1430C018391CFFF762FB3368EA6ADB6A9A42E0D30123E364DDE7A36C002BF1
:4035C0000ED1E46C012CD1D1FFF7CEFB0CE0FFF74FFF002801D00123E364A36C013BA364A36C002BF3D1ECE7FFF7D6FB201CF8BDA00B0020200B002010B5041E02D1FFF7D9
:40360000B3FB0FE0FFF714FF074B5A681868A4180430FFF751FB201CFFF718FEFFF79CFF0028ECD010BDC046200B002038B51F4B1A6C1D1C002A02D00122DA6434E01C4C54
:40364000DA642268236812681B6B9A4204D8206821683431FDF7E8FC23681649186B142201F078F9002804D0206821683431FDF7DBFCEB6B14225343E3185B69002B03D1CF
:40368000EB6B013BEB63F4E7E96BA3184A439B185A68191C526808315A608A4201D152685A605B68DB68236038BDC046A00B0020200B00205063000038B50C4C0D1C216806
:4036C0001831FFF7E1FA20680430FFF7F5FA6B1C06D12168064804312030FFF7C9FA03E060682818FFF7B2FD38BDC046200B0020A00B0020F8B5C368DD682F1C1837381CF0
:40370000FFF7DAFA104C114E236C002B0ED12F1D381CFFF7D1FAEB6AE26B934200D9E36314225343301C1430C01801E0201C0C30391CFFF79DFA3368EA6ADB6A00209A42D5
:4037400001D30120E064F8BDA00B0020200B0020034B5B6C0360034B5B6843607047C046A00B0020200B002070B50E1C051CFFF707FB0E4B5A683368591C12D00C492C68E8
:40378000486C6968A04202D001248A420AD2501A0124984206D28A1AD3183360281CFFF7D7FF0024FFF7F8FA201C70BD200B0020A00B0020014B0122DA647047A00B0020D6
:4037C000002801D1064B1868026B131C1978981A80B2A52901D10133F8E780087047C046200B0020014B18687047C046200B002070B5041E2AD0164BC26A19681D1CC96A1B
:403800008A4223D219680420C96A411A14204243A161191C14318A186169914213D1261D301CFFF749FA2B680A4ADB6AD16BE3628B4200D9D363142043431435E818311C9B
:40384000FFF716FA02E01B68DB6AE36270BDC046200B0020A00B002038B5041E19D0C26AC36B9A4215D0051D281CFFF725FAE36B0422D21AA261074AE362D16B8B4200D9A1
:40388000D363142043430448291C1430C018FFF7EFF938BDA00B0020200B0020FEE70000084A08B5136808491818411A002901DC106005E001F022F80C23036001235B427E
:4038C000181C08BD14010020680C002070B51048104B0138421C15D01E685C689D680022A118AA4203D0B158A1500432F8E7DA680D1C4C1B944202D0002410C1F9E7103328
:403900000138E7E701F000F8FDF72EFBFEE7C046010000006C79000008B500239A00032B02D80D49895800E00C490D4801338150302BF3D1FDF774F90A4B00221A600A4B9B
:403940001A68002A00D11A608023DB051A6801210A431A6008BDC046000C00009D38000000000020C8000020C0000020064B1A68191C002803D080231B06134301E053007D
:403980005B080B607047C04680031A4010B500F0C1FD084A084913681360084B1C682140196011687824214311601A681A6000F0B5FD10BD08000840FFFFFEFF04000840FE
:4039C00008B500F0A7FD074BC022196892000A431A60054B8022196812060A431A6000F09DFD08BD080008400400084010B5054C2368002B03D1FFF7C9FF01232360FFF730
:403A0000DFFF10BDF00B002010B5041C00F082FD044BFF211A688A4314431C6000F07EFD10BDC0460800084010B500F073FD094A094913681360094B1C6821401960146867
:403A4000F021C903214311601A681A6000F066FD10BDC04608000840FFFFFDFF0400084008B500F057FD074BC022196892040A431A60054B8022196812060A431A6000F087
:403A80004DFD08BD080008400400084010B5054C2368002B03D1FFF7C7FF01232360FFF7DFFF10BDF40B002038B5041C00F032FD054B06491D6822042C1C0C4014431C60BB
:403AC00000F02CFD38BDC04608000840FFFF80FF064B03221A60064B802212061A60054B04221A60044B01221A607047F80B00200000104004001040080F1040044B054A11
:403B0000196812680A43802109010A431A60704704001040F80B002010B5054C2379002B03D1FFF7D5FF01232371FFF7E7FF10BDF80B0020024B034A19680A401A60704708
:403B400004001040FCF7FFFF044B0422196880009143C9B202400A431A60704700010440044B10B51C6804498201201C08401043186010BD080104403FFEFFFFF8B50E204F
:403B8000032100F0B5FD3B490E2000F0A9FD3A4B13221A60394A3A4B3A481A603A4A3B4B3B4C1A603B4BA02212031A603A4B802212061A60394A3A4B1A603A4A3A4B1A601F
:403BC0003A4B80221968520211431960384B19680A431A60374A00231121036023601160354A02211160354A35491568294001252943116033499A000F1C5658DC251837CC
:403C0000AD01DF5D35403D43AC46052B13D02E4D571965463D6001252E4203D006689D40354305608D58AD070AD5266801259D403543256004E08026F6053543234E3560D3
:403C40008D5880277F00A90501D5391C01E0802149012F401E4E5D00002F00D0002777531C4D013369431C4DC912A950062BC1D1F8BDC0465D3D000020001A40C020001361
:403C800000001A4028021A407C00008004001A4038021A4018001A401C001A400400080010001A400400040014001A4000031A4040031A4018021A40000F1A4030001A4003
:403CC000FFFFFFDFE065000080001A4080021A40540C0020102700003C0C002008B5064B1A68002A07DB1968802212060A431A600A2000F039FD08BD00001A4010B5054CAB
:403D00002378002B03D1FFF739FF01232370FFF7E5FF10BD000C0020034B8022196852020A431A607047C04604001A40042804D8044B8000C018006801E0034B186880B292
:403D400000B2704780011A4090021A401F231840014B18607047C04620001A40014B1A681A60704710021A40034B8022196812060A431A607047C0460000064010B5054CAA
:403D80002378002B03D100F023F801232370FFF7EBFF10BD040C0020014B18687047C04640030640024B18680F2318407047C04608030640044B1A680F231340082BF9D001
:403DC000024B18607047C0460802064040020640124A134B10B51A60124A00231360124A012111601148124A0724026011480460114803601148016011490A60114A0421D6
:403E00001360114A1360114A1360114A1360114A1360114A1160114A136010BD0B000002000006404000064048000640000306400700008004030640100306404400064009
:403E40000002064004020640880E0640C80E0640480F0640080F0640C80F0640880F064008B5FFF79FFF031C0020834201D0FFF793FF044BD82219689200114201D01A601A
:403E8000002008BDC00F064010B5041C0134631E1878002802D0FFF78DFFF7E710BD38B50D1C041C002000F023FBE9B2201C00F0CBFA012000F01CFB38BD13B5041C0020A1
:403EC00000F016FB013C01A8E82202210270447000F0BAFA13BD0000F7B5071C30200C1C161CFFF7EAFF0C2161433C1C1823203C5C430E4D0E4A5F430C196419AD186D181C
:403F0000ED192378002E01D0DB43DBB201A804210134037043708370C37000F095FAAC42EFD1012000F0E4FAF7BDC046126600000CFDFFFFF8B5061C0D1C0024AC4210DA9E
:403F40002B1BFF2B00DDFF23DFB2381CFFF7B5FF3019391C00F078FA012000F0C9FAFF34ECE7F8BD13B50F2250241040644201AB204318701024080920430A4058700321DC
:403F8000181C9A70FFF78BFF13BD07B5812201AB1A703F22104058700221181CFFF77FFF07BD0000F0B5354D8BB0291C0C2207A800F0DFFC07A80E21FFF771FF304E33781A
:403FC000002B06D12C236A46684601211370FFF766FF2020FFF7D9FF291C0C31022204A800F0C7FC04A80221FFF759FF00242D2060433C2100F01AFC80225242111CC3B293
:40400000214305A80170E1B24F1C174387708F1C0331174304340A4308214370C370077143718271C371FFF73AFF402CDFD1291C0E31022203A800F09CFC03A80221FFF7A5
:404040002EFF3378002B15D1C82000F077FB2E2301A801210370FFF722FFC82000F06EFB291C103102A8022200F083FC02A80221FFF715FF012333700BB0F0BD00660000F7
:404080000C0C002008B500F025FAFFF78BFF08BDF0B585B001930AAB1D78041C0F1C0092009B9C4215D2201C391CFFF75BFF3E1C019B9E420AD203A80421013605704570FE
:4040C0008570C570F6B2FFF735FFF1E70134E4B2E6E705B0F0BD07B500210091081C0822A023FFF7D5FF07BDF0B585B001900F1C029203930024019BE6B2F018C0B2391CFE
:40410000FFF730FF029D2878002805D0311C039AFFF7E2FE0135F6E70134022CEBD105B0F0BDF0B589B00590069107920025EBB2059A02935B00D318DBB20493029B0433F3
:404140005B01DBB2039300230193019A049BD7B2F818C0B20699FFF705FF079E3378002B27D000243078031C303BDAB2092A06D803205843039A10182018C0B20FE0029B0D
:40418000022B08D12E2800D1DE20391C0022FFF7A3FE022407E002242E2804D12020391C0022FFF799FE0134E4B2032CDAD10136D4E7019A01320192022AC6D10135032D03
:4041C000B5D109B0F0BD000010B5041C00F0A2F9054BA2011968C024A1430C1C14431C6000F09CF910BDC04604E400E0054B10B510241C60044B18650320FFF7E5FF034B30
:404200001C6010BD80E100E00000002000E100E010B5041C00F07EF9054BA2011968C024A1430C1C14431C6000F078F910BDC04600E400E0054B10B501241C60044B186417
:404240000320FFF7E5FF034B1C6010BD80E100E00000002000E100E0024B1868032318407047C04604000440024B0322186810401860704710000440044B042219688000FD
:404280009143C9B202400A431A60704700040440024B18680007C00F7047C04604040440034B0822186810401860C008C0B270471004044008B5034B40221A6000F032FAEF
:4042C00008BDC046C0000020F0B51D4BA5B002928A1803900F1C01209A422ED8CB09CC0BDBB22402E418E40104AE00200193361B051C029B9D4204D301281ED9012040428D
:404300001BE00028F8D1231C8033A74207D802998D4204D203994A5D0135325501E02278325501349C42F0D1019804A900F0FCF8019A803E01320192DBE725B0F0BDC0462E
:40434000FF7F0000044B7F2219681140C201081C1043C0B2186070470000044038B5041C00F0D8F8054B06491D68A2052C1C0C4014431C6000F0D2F838BDC04608E400E05E
:40438000FFFF3FFF10B5064B8024E4001C60054B98660320FFF7E2FF034B1C6010BDC04680E100E00000002000E100E038B5041C00F0B0F8054B06491D68A2052C1C0C409C
:4043C00014431C6000F0AAF838BDC0460CE400E0FFFF3FFF10B5064B8024E4011C60054B98670320FFF7E2FF034B1C6010BDC04680E100E00000002000E100E008B500F081
:4044000089F8084B20211A780A431A70064B1022197811431970054B19780A431A7000F07DF808BD91000F4093000F4092000F40034B1B785A07FBD5024B18707047C046E4
:4044400063000F4040000F4070B5051C0E1C041CAA19D2B2E3B29A4204D02078FFF7E8FF0134F5E770BD000008B50A4B1B789A0602D5094B1B78F8E700F04CF8074B0122A1
:4044800019781143197019789143197000F046F808BDC04662000F4050000F4090000F4008B5074B0F221A70FFF7DEFF054B064A1B78064B1B7800231370054A137008BD87
:4044C00081000F4063000F4083000F4062000F4082000F4010B5054C2378002B03D1FFF7DFFF01232370FFF789FF10BD0D0C0020014B18707047C04672000F4000000000D5
:404500000230800804D0C0460138FDD1C046C046C0467047EFF3108072B6704780F310887047C046C046C046F0B50024CBB0069404900794FF2800D9A4E0A14200D1A1E02C
:4045400008AD8022281C00F014FA231C211C221C029498002858002802D01218014302930133202BF5D1002A05D1002900D08EE00191039102E0002001900390484F7F230C
:4045800028AE291C80222AA82897464C736000F0F0F9454A454B266013602168090F0A2903D022680F23134000E000230693069F002F69D1FFF7AEFF3D4A3E4B116807972D
:4045C0001960069B0590002B14D13B4A04982892289A01040A43289228AA22603249374A0A602268120F0A2A03D02E4B1A680F2313400693069F002F38D1019A002A35D027
:40460000391C8022281C00F0BDF90298039A08A983005A50224B2AA8289380227F23736000F0A7F9214820492660086023681B0F0A2B03D01B4B1F680F231F400697069BAA
:40464000002B13D11E4A04982892289A01040A43289215491B4A26600A602268120F0A2A03D0104B1A680F2313400693079B002B04D1104A0E481268026007930598FFF7E4
:404680004DFF01E00423069306984BB0F0BD02998B00E85801210390EA5001916EE7C046B6D7000008000040040000400400008008010B40100C0020B6D800000500008045
:4046C000B6D9000006000080034B04491A680840104318607047C04610020B4008080800024A83009B181868196070474000002038B5041C0D1CFFF70DFFA308084A9B00E1
:404700009B1803221440944019680634A2409143A5400C1C2C431C60FFF700FF38BDC04600E400E0034B04491A6892B20A431A607047C0460CED00E00400FA0510B5041CB6
:404740008022074B1202944205D91868FFF7D8FE044BE418F4E758686043FFF7D1FE10BD180100200080FFFF08B5034B1B7A5843FFF7C6FE08BDC0461801002002B47146F9
:4047800049084900095C49008E4402BC7047C046002934D00123002210B488422CD301242407A14204D2814202D209011B01F8E7E400A14204D2814202D249005B00F8E708
:4047C000884201D3401A1A434C08A04202D3001B5C0822438C08A04202D3001B9C082243CC08A04202D3001BDC082243002803D01B0901D00909E3E7101C10BC7047002874
:4048000001D00020C04307B4024802A14018029003BDC046D90000000029F0D003B5FFF7B9FF0EBC4243891A1847C046002941D010B4041C4C40A44601230022002900D5D5
:404840004942002800D5404288422CD301242407A14204D2814202D209011B01F8E7E400A14204D2814202D249005B00F8E7884201D3401A1A434C08A04202D3001B5C082A
:4048800022438C08A04202D3001B9C082243CC08A04202D3001BDC082243002803D01B0901D00909E3E7101C6446002C00D5404210BC7047002806D003DB0020C043400846
:4048C00001E08020000607B4024802A14018029003BDC046190000000029EBD003B5FFF7A7FF0EBC4243891A1847C0467047C04608B500210A2200F061F908BD014B18688F
:404900007047C0468801002070B50E4B0E4D0024ED1AAD101E1CAC4204D0A300F35898470134F8E703F010F8084B094D0024ED1AAD101E1CAC4204D0A300F35898470134E9
:40494000F8E770BD5479000054790000547900005C79000030B50023934208D0C55C0133CC18013C2478A542F6D0281B00E0002030BD10B50023934203D0CC5CC454013347
:40498000F9E710BD031C8218934202D019700133FAE770470EB400B59CB01DAB04CB822202A992008A810A4A02908A604A6101225242CA81074A086110681D9A019300F065
:4049C0006BF9029A002313701CB008BC03B01847FFFFFF7F8801002010B5021C1378002B01D00132FAE7CC5CD4540133002CFAD110BDC9B20378002B03D08B4204D00130BE
:404A0000F8E7002900D0181C704702780B7801300131002A01D09A42F7D0D01A7047031C0A7801311A700133002AF9D170470023C25C0133002AFBD1581E704708B5021C65
:404A40000023006800F001F808BDF0B5002802D11068002826D00578441C0E1C3778002F09D00136BD42F9D1002B01D0201CF2E71460037016E0002D09D11560281C11E06A
:404A80002F78B74207D00135002FF9D11C1C631C26780D1CF4E7002E02D00021217000E0331C1360F0BD0000F0B51D1C424B87B01B6805900293039101920B1C1C78029F24
:404AC0005E1C3A19517808220A4001D0331CF5E72D2C04D101279E1C5C78009704E000922B2C01D15C789E1C10232A1C9A4311D1302C08D1327820218A43582A07D174789D
:404B00001D1C023606E0002D04D10A2502E0002D00D10825009F291C7B427B4180273F06FF1A381CFFF778FE381C0491291CFFF72FFE0023021C181C029F391949784F07EE
:404B400001D5303C07E003270F4017D05721012F00D13721641AAC4210DA591C0BD0904207D802D1049FBC4203DC68430123201801E001235B4234780136DDE7009F591CCD
:404B80000BD180207B427B410006059FC01A22233B60019F002F09D10BE0002F00D04042019F002F05D0039A002B00D0721E019F3A6007B0F0BDC0468C01002038B5131C4E
:404BC000044A051C0C1C1068291C221CFFF76CFF38BDC04688010020F0B58D6885B0071C0C1C03920193AB4245D390228B89D20013423DD062690326564309692068F20F54
:404C0000401A96190290021C0198013212187610964200D2161C381C5A050FD5311C00F05BFB051E13D0029A2169FFF7A2FEA289184B134080221343A38111E0321C00F04B
:404C40009FFB051E0CD1381C216900F0FDFA0C233B60A389402213430120A381404217E0029B2561ED1825606661019DF61AA6600198A84200D2019D2A1C2068039900F0F4
:404C8000CAFAA2680020531BA36023685D19256005B0F0BD7FFBFFFFF0B59FB0039005938B890E1C171C19060FD53269002A0CD1402100F011FB30603061002803D10399EA
:404CC0000C230B60C9E04023736106AD00236B6120236B763023AB763C1C2378002B03D1E21B029211D003E0252BF9D00134F4E70398311C3A1C029BFFF76EFF013000D150
:404D0000A6E06969029A8B186B612378002B00D19EE0012252426A606A4600235B3201342B60EB60AB601370AB654E4F2178381C052200F065FA002807D0C71B2B680120DC
:404D4000B840184328600134EFE72B68D90603D56A4620215B3211701A0703D56A462B215B32117022782A2A01D0099B0EE0059A111D12680591002A01DB099204E05242BA
:404D8000EA60022213432B60013409E02278303A092A04D80A214B4301349B18F6E7099323782E2B18D163782A2B09D1059B02341A1D1B680592002B0DDA01235B420AE08E
:404DC000013400232278303A092A04D80A214B4301349B18F6E70793234F2178381C032200F00EFA002806D0C71B2B684020B84018432860013421781C480622671C29768A
:404E000000F0FEF9002812D0194B002B06D1059B0722073393430833059314E005AB00930398291C321C134B00E000BF07E005AB00930398291C321C0E4B00F091F804904F
:404E40000499013104D06A69049953186B6143E7B3895A0601D40B9801E0012040421FB0F0BDC046147800001A7800001E78000000000000D94B0000F7B5151C01930A69E8
:404E80008B68061C0C1C934200DA131C221C2B6043321278002A01D001332B602068800602D52B6802332B60216806270F401FD0231C43331B785A1E9341226892061FD57F
:404EC000E11840313020C870211C5A1C45310978A21840320233D17012E0221C301C019919320123089FB847013011D0009F01370097E0682968009F431A9F42EDDBD7E78D
:404F0000221C301C01994332089FB847013002D10120404223E0206806212B68E26801400025042903D1D51AEB43DB171D40A26823699A4201DDD31AED1800270097009F8A
:404F4000AF420BDA221C301C01991A320123089FB8470130DCD0009F0137EFE70020FEBDF0B50D1C8BB0433506920590079304950B7E0C1C109A6E2B00D1A7E011D8632B18
:404F800022D009D8002B00D1B0E0582B00D0C0E045310B707B4D4EE0642B1CD0692B1AD0B7E0732B00D1A5E009D86F2B29D0702B00D0AEE00E68202333430B6036E0752B77
:404FC0001FD0782B32D0A4E013680D1C191D423511601B689FE0216813680E0603D5191D11601E6805E04806F9D5191D116000215E5E644B002E3BDA049D2D2276422A70FF
:4050000036E0216813680E0603D5191D11601E6804E04806F9D5191D1E881160594B227E039308276F2A1ED00A271CE0231C78214533554D197011682368081D0395106087
:405040001E0601D50E6802E05806FBD50E88D90702D52022134323601027002E03D1226820239A432260231C002243331A7001E003930A276368A360002B03DB2568042250
:4050800095432560002E02D1049D002B0ED0049D301C391CFFF7C0FB0398013D435C301C2B70391CFFF774FB061EF1D1082F09D12168C90706D5626823699A4202DC013D63
:4050C00030232B70049E731B23612AE0086813684969050604D5181D10601B68196005E04606F8D5181D10601B68198000232361049D16E01368191D11601D68281CFFF704
:4051000096FC63682061984200D923612069606004E0251C42352B7001232361049E00233370079E05980096211C09AA069BFFF7A3FE013002D10120404221E02A1C05983F
:4051400006992369079DA8470130F4D02668B60705D4099BE068984212DA181C10E00025E0680999431A9D42F3DA221C0598069919320123079EB0470130DCD00135EFE7FC
:405180000BB0F0BD257800003678000030B5051C9BB0141E04DA8B230360012040421DE082229200684600910491002182818C4200D0611E01225242029105916946CA8105
:4051C000281C1A1C1E9BFFF767FD421C01DA8B232B60002C02D0009900230B701BB030BD73B5141C054A061C0D1C1068311C00932A1C231CFFF7CAFF76BDC0468801002053
:40520000C9B28218904204D003788B4202D00130F8E70020704770B5814201D300230CE08C18A042FAD28518131C013B0BD351426618F65C6918CE54F7E7934203D0CC5CFB
:40524000C4540133F9E770BD30B5002940D004390B68002B00DAC9181E4A1368141C002B02D14B60116033E099420FD208680A189A4205D113685268C01808604A6000E0E2
:405280004B60216024E08A4203D8131C5A68002AF9D11D685C198C420BD10968691858181960904214D114685268091919605A600EE08C4202D90C23036009E008680C18CB
:4052C000944203D114685268001908604A60596030BDC046180C002070B50323CD1C9D430835061C0C2D01D20C2501E0002D3FDB8D423DD3204B1C681A1C211C002913D08E
:405300000868431B0DD40B2B02D90B60CC181EE08C4202D1636813601AE0486860600C1C16E00C1C4968E9E7144C2068002803D1301C00F04BF82060301C291C00F046F8AE
:40534000431C15D0C41C03239C4384420AD12560201C0B300722231D9043C31A0BD05A42E25008E0211A301C00F030F80130EED10C233360002070BD180C0020140C00209B
:40538000F8B5061C0C1C151C002904D1111CFFF7A3FF041C18E0002A03D1FFF755FF2C1C12E000F025F8A8420ED2301C291CFFF793FF071E07D0211C2A1CFFF7DAFA301CE3
:4053C000211CFFF741FF3C1C201CF8BD38B5074C0023051C081C2360FEF762FA431C03D12368002B00D02B6038BDC046600C002004390B68181F002B02DAC8581B18181F32
:40540000704700000000000003000000200000001A00000001020300BA000000A55200000000000024000000000000005702000000000000D807000028000000554900554A
:40544000415254004557000077570000000000000100000000000000825700000000000002000000000000008D57000000000000030000000000000072570000000000004F
:4054800000000000000000000000000000000000000000000000000099570000A6570000000000000100000000000000B25700000000000002000000000000000357000099
:4054C000000000000300000000000000BF570000000000000400000000000000C5570000000000000500000000000000D0570000000000000600000000000000DE5700000C
:40550000000000000700000000000000EA57000000000000000000000000000072570000000000000000000000000000000000000000000000000000000000000918000039
:405540009855000000000000F91B0000715B0000091C000034570000211C000038570000B5160000715B0000391C0000715B0000711C0000715B0000B51C0000715B000034
:40558000CD1C0000715B00003D1A0000000000000100000001030002000000003C5700003D1A0000000000000100000045570000D11900000000000000000000FF56000012
:4055C000CD16000000000000000000004E5700006D100000252A000000000000CA5600003115000000000000000000005B5700004D12000000000000000000006557000024
:40560000811000000000000000000000725700000000000000000000000000000000000000000000000000000000000055504752414445204D4F444520005265616479208E
:40564000746F20726563760020662F77207570646174652020002533642E253033642573002531642E2530326400253032642E2531640025303364006D002043414C494280
:40568000524154494F4E20002052656D6F7665204C6561647300DF3A204E657874002041646A2E20766F6C746167650056002041646A2E2043757272656E74004100506C6C
:4056C00065617365207761697400436F6E747261737400DF3A20446F6E650021204F56455254454D502021002120554E444552564F4C54202100DF3A205265736574004D68
:40570000696E20566F6C74616765004F4E004F464600BE00BF007365742025640D0A002020202020200057002D2D2D2D7F004168005768005345540041435400432F432054
:405740004C6F616400526561646F75747300526573657420546F74616C730043616C6962726174650055706772616465204D6F64650045584954004D61696E206469737045
:405780002E004C65667420646973702E00526967687420646973702E0043686F6F73652076616C7565005365742043757272656E74004163742E2043757272656E740050D0
:4057C0006F77657200526573697374616E636500546F74616C2063757272656E7400546F74616C20706F776572004E6F6E6500762568642E25686400B55B00009524000084
:40580000895B0000A92400008D5B0000F1240000925B0000B1210000985B00004D2100009D5B0000DF1F0000A25B00000D220000A85B0000C5210000B05B0000252400003B
:40584000B85B000041240000FB5600005D210000BD5B00006D220000C15B0000FD2300000F0F0F0F0F0F0F0F0F0F0F0F0F0F0F0F0F0F0F0F0F0F0F0F0F0F0F0F0F0F0F0F1E
:405880000F0F0F0F0F0F0F0F0F0F0F0F0F0F0F0F0F0F0F0F0F0F0F0F0F0F0F0F0F0F0F0F0F0F0F0F0F0F0F0F0F0F0F0F0F0F0F0F0F0F0F0F0F0F0F0F0F0F0F0F0F0F0F0F28
:4058C0000F0F0C0A030F0F0F0F0F0F0F0F020F000F0F00090F07030F0F0F0F0F0F0F0F0F6D6F64652063630D0A00657272207365742063757272656E74206D75737420623C
:4059000065206265747765656E203020616E642025640D0A006F6B0D0A00657272206D6F6E69746F722065787065637473206174206C65617374206F6E6520617267756D4B
:40594000656E740D0A00696E666F20756920737461636B2025640D0A00696E666F20636F6D6D7320737461636B2025640D0A00696E666F2068656170206672656520256473
:405980000D0A00696E666F206665742025642025640D0A006572722063616C2065787065637473206174206C65617374206F6E6520617267756D656E740D0A006572722014
:4059C00063616C3A20756E7265636F676E6973656420737562636F6D6D616E640D0A0063616C204F2025640D0A006461635F6C6F775F6761696E2020202020202025313219
:405A0000640D0A006461635F686967685F6761696E202020202020253132640D0A006461635F6F6666736574202020202020202020253132640D0A006F70616D705F6F6681
:405A4000667365745F7472696D2020253132640D0A006164635F63757272656E745F6F666673657420253132640D0A006164635F63757272656E745F6761696E2020202576
:405A80003132640D0A006164635F766F6C746167655F6F666673657420253132640D0A006164635F766F6C746167655F6761696E202020253132640D0A0076635F7261742D
:405AC000696F2020202020202020202020253132640D0A007261775F63757272656E745F75736167652020253132640D0A007261775F766F6C74616765202020202020208D
:405B000020253132640D0A0076657273696F6E202568642E2568640D0A006572722075766C6F206D757374206265206265747765656E203020616E642025640D0A0075769E
:405B40006C6F2025640D0A00726561642025642025640D0A0065727220556E6B6E6F776E20636F6D6D616E642027252E3773270D0A006F76657274656D700D0A00756E64DB
:405B80006572766F6C740D0A006F66660072656164007265736574006D6F64650064756D70006465627567006D6F6E69746F720076657273696F6E0075766C6F0063616CD2
:405BC00000626C0000002C017102D5032205D005790615077907010000E0070002E000E0A0000060E0100009A060E0C0E0E0C080E0C0E0003D03800080806003E00A002058
:405C00001A40208000400D8000040000F000F0400002E0F0F0801BC00020232033E01000201B40234003E01023600040462001600040086014E00800407F4000408FE00D1C
:405C400000E11B1301606021116001020000C0E1024300A02019E00F00E1054701C080415400C021772002E0100000E0217B2067202BE00AAB20DB0040201D1160E0306464
:405C80007A741A0C071E0A01081A040A0E0EE0012B41050400C0C0C0A020261850E030702830180A143C0F04000F010C050D0601030F000002802E00FFA001C000060204B0
:405CC0000207000C074027130E05090F1830181E30607070E0FF40FFC0FF80FF21682002C0001504060E00040F0A01180A1E28101E6030F4F2C0E080C0207DE20133020042
:405D00000000010000E00700027F007F4000033F7F7F0CE00500011C1C20020F3C1C3C3C7C2C277C6F47676F4703074F803D021E013F202F4033006DE00800026E6D6F4099
:405D40000002266F6F802B0261006140000820616100001F203F7F2039203B00604000020020604023013F1E201020020261617E4029E00600017E6160320B1E7F3F0000B4
:405D80001D003D3D7D7D7D2003E008762000209160000200007EE014536024200040FBE00D00E11013E00400040F070F0F072003030000030440BF4000020C0C77E0042365
:405DC00021462145002C2147007CE10847013F1F20F4210E0160602002E01000017F604023402BE007AB0F030408033F5FCFFFFCFBF1FDC0A070E0201F00802003E00100FC
:405E000004FEFEFFFFFF400305FFFF01C13AF5E00118E00E0000FFA001E0170001FF01205000E12055200020630100FEE0063020850FE0D0A8F0FDFE7AFF1F274F3F0003EA
:405E40000007802101000002000300E00C0104F80300FBF82001012063E0010104E02360E3C0200104E00300E3E02001E00339E00B13400109E00310E3F0E3F0F390B3E005
:405E800009014017401F40276057205FE0016D0720630003602320E3E0090100E0208303C00320C34003400B402BE00701E013BF406F40BFE0076F404B405307D02308FB5C
:405EC000F0DBD0FB400B4013E0085B2117405F4047E0030101F0F32001020300F3E00313E00301002020E5E007CD01E02340618093205503FBF82360E10573201B40870236
:405F0000C0C3A0217703E0E320C32041A00306608360E340432060CFE003011F030F051F7FBF1FFFFEFDF8FEE0D0B8F0800080C0000080000817071F3F1F1F3F107F3F7F8F
:405F4000FFF0FF6EFFE0C0E0E0C080C0C080401C20030280C040401102F0E0E02002400320256003400BC003202102804080202F2055128000C0C0C0A0C0E0FFD0FFFF7E63
:405F8000F1FF3F7F7F7F2060033F000F10401E40751280F0E8F4F8FEFDFFFF3F5FAF7F0136033B0030E0030101003002008000E00C010407800087072001010486E0010156
:405FC000110784028703870383038004830793379714B6E00101071FB416BF1F8F1FBFE0074DC047010081E00901405F401F40332009E0000BE00301406F04078503870535
:40600000E002012029602B60870083E005A3C00140572025605BC001E00313401B400FC01B00002000000740004006400320000903000403070307070406E00501201A605E
:40604000232032E004002015402CE0082FC001C04F0005E00201200A600040486008E0063F407F403702020502202BE003392038200202030603603BE00B000001200203DC
:4060800001830303214320C51F8E070E0F960F1E0C1C1E3C183C3C7838357871FB70F9F3E763F7E7CFEFEFFFCF01CEFFE00300007F200C007F8001007F4007200AE004006F
:4060C0001FCFFFEEFFE7EFC7E7F3E375F379F7FAFF7CBB38FF1C3C3A3C1E0C0E1E0E078F0F0B0707838F03830583010381812088208AE00B0001000002000100E0F5010000
:40610000FFA0010080E0B101018000200319C0C0C0E0C0E0E07060B0F8383854381C0E3C1C0E070F0F07030320020787078307838783C7200011E3C6C7E7E7C2F7F7E6EF91
:40614000F7FFFEF6FFFFFFFE2003E003000A7FFF3F5F3FFF0F00160F00E0010007060F170A3F7F3F9FE003288000403E204613F7EFF6FFE7C7E2E7C7C3A6C783C787C783FC
:40618000070387407A130707030F0E0E151F1C3C0A1C3870387870E0E0F020A608E080C080C000008000010000E0F6000001E0B5010F010602031F2F7F7FF96797FF0001A1
:4061C0008001E103CD101CE62A7EFEFFFEFEFFE71AFF070307870320040003400201030120050A0B071F0F2F1F7F3FBF7FFFA0000FC7ABCFDF8190CA9380BEDCFC80BEDF8A
:40620000FF200300FE2003400780030ABCDAFC81C39287EFD787EF80320D7FFF3F7F1F7F1FEF07FF07FB03FF4057205F206520000503E797FFFEF7407D04FE043A489CE075
:4062400003970B008161C1FF7927FF0F173E3F02008C00E0FF01E01901000CE08D0110040A0C0E0F00090F0A0D011F040A060600E000000503017F8F13FF40000380708C3B
:40628000CBE00016E006000D0100020107030B070F070F0F0F1F4002001F2000003F2001021F3F3F40064005021F2F1F601A201B070F07070F0307010720380001604A0031
:4062C000FFA001E00000058000E09F98FE4077030F71963FE00016120000040EF004FE09FA13FB0A05070F0004020C02000100E0FF01E01101007FA0010060E0AD011F011E
:4063000060006103610163066307670C642A7E781020784078907070007870002010600000E032001B20104070708FD8FF58E7B0FF38401C780C06060E0306070701030106
:40634000036151E0070000FFA001600001000000A5A5A5A5A5A5A5A5A5A5A5A5A5A5A5A5A5A5A5A549444C4500000000041A000020020018001C0003201A000001001A00B2
:40638000001820020018000208023000201800000E0031003C0100182013000407130000000F380008008220000004006305400000CEB0DF3BFFFFFF2200F00804000000E2
:4063C0000000000004040400000000010000C00040011011C0010011400140010000000000000000000000000000000002000F4014300F4036310F4041320F4042330F40FA
:4064000007400F4005410F4005420F4003430F4002600F407201810F8502870489028B088D018F02910D9502970D990D9D0DA10DA90DB50FBB20D602D720D904DB04DF016C
:406440000280031208410A110B401080111012011384181019021A0120082344270828412B042C802E103004328033103799380839103A413D103E203F4C4260480449086B
:406480004A804B40522053055F0367016C846E106F13760180108708C00DC20DC40FCAADCCFECE7FD003D20CD810E401020C060109550A040BAA0D330E010FC41008112051
:4064C00013D01402150E1A0C1E0220022194236924022A022C02300C32023401350F37F039203B803E145440580459045B045F0180568209848488018C048E808F0190071E
:40650000923894809604980A9A109C04A084A301A460A901AC84B080B101B27FB602B808BE41BF01D409D804D904DB04DF0101020210031A040805020604070109100A1127
:406540000B440E100F451080126114041651180119011A401B081D2623802408270629022B042D0237063B403D203F4059195B8060016504670B6F018102820488048B02B1
:406580008D308E809211934E9640990A9A019B109C049E409F02A080A2A0A306A708B112C0FFC2FFC4FDCA85CCC0CE38D60FD878E640501052025F028702D4A0D680E64026
:4065C00082028C109420A602E2806D02700480048101DC035501A101D60401011001000000140000001400000002000000020000001400000014000004031202700500002C
:406600003860AB4412A0C86654484025386538602FAF0000000000000000000000000000000000000000000000000000000000FEFE0000000000000000000033330000007D
:4066400000000000003E3E00003E3E000000000000000000000000000000003030F07E37B0F83F31300003233F0703333F03030300000070F88C8CFF0C0C18000000001824
:40668000303030FF31311F0E00003C7E4242FEBC80404040000000010101001E3F21213F1E00000080DC7EE6C60606808000000F1F383031330F3E37230000000000003E14
:4066C0003E000000000000000000000000000000000000000000E0FC0F010000000000000000073FF08000000000000000010FFCE0000000000000000080F03F0700000018
:4067000000000000844830FE3048840000000000000000010000000000000080808080F8F8808080800000010101011F1F010101010000000000000000000000000000002C
:4067400000C078380000000000000000000000000000000000000000000303030303000000000000000000000000000000000000000038380000000000000000000000C06A
:40678000F03C0E0200000080E0781F0701000000000000F0FC0E06C6C60EFCF0000000071F38303030381F07000000000C0C06FEFE000000000000003030303F3F30303014
:4067C0000000000C0606060606CEFC7800000030383C3637333130300000000C06C6C6C6C6EEFC38000000183030303030391F0F0000000080E0300CFEFE000000000007FE
:40680000070606063F3F060600000000FE7E666666E6C680000000183030303030381F0F000000F0FC9CCEC6C6C68C00000000071F39303030391F0F0000000606060606C5
:40684000E6FE3E060000000000203C1F0700000000000038FCC6C6C6C6C6FC380000000F1F39303030391F0F00000078FCCE868686CEFCF00000000018313131391C0F0726
:40688000000000000000E0E000000000000000000000383800000000000000000000E0E0000000000000000000C0783800000000000000008080C040606020300000000167
:4068C000030206040C0C08180000006060606060606060600000000606060606060606060000003020606040C080800000000018080C0C0406020301000000000C0686C605
:40690000E67E3C00000000000000373700000000000000F0FC0E03F1F90BFEFC000000071F386043474407070000000000E0FE1EFEE00000000000303E0F0706070F3E30DB
:40694000000000FEFEC6C6C6C6C6FC380000003F3F30303030391F0F000000F0F81C0E060606060C000000070F1C383030303018000000FEFE0606060E1CF8F00000003F8D
:406980003F303030381C0F07000000FEFEC6C6C6C6C6C6C60000003F3F30303030303030000000FEFEC6C6C6C6C6C6060000003F3F00000000000000000000F0F81C0E062E
:4069C000C6C6C6CC000000070F1C303030301F1F000000FEFEC0C0C0C0C0FEFE0000003F3F00000000003F3F00000000060606FEFE060606000000003030303F3F303030D7
:406A00000000000000060606FEFE000000000018303030301F0F0000000000FEFEC0E0F0180C06020000003F3F000003071E3830000000FEFE000000000000000000003F41
:406A40003F30303030303030000000FEFE1EF080F01EFEFE0000003F3F00000100003F3F000000FEFE0E78C00000FEFE0000003F3F0000010F383F3F000000F0FC0E06066E
:406A8000060EFCF0000000071F38303030381F07000000FEFE86868686CEFC780000003F3F01010101010000000000F0FC0E0606060EFCF0000000071F38303070F8DF079F
:406AC000000000FEFE86868686CEFC780000003F3F01010101071E3C200000387CCEC6C6C6868C00000000183030303030391F0F00000006060606FEFE06060606000000BC
:406B00000000003F3F000000000000FEFE0000000000FEFE0000000F1F38303030381F0F000000067EF8C000C0F87E060000000000033F3C3F03000000000EFEF000E0600F
:406B4000E000F0FE0E0000073F3C0700073C3F07000000020E1EF8E0F81E060200000020383E0F030F3E3820000000020E1E78E0E0781E0E020000000000003F3F0000002C
:406B800000000006060686C6F63E1E06000000303C3E373130303030000000000000FFFF03030000000000000000FFFFC0C00000000000020E3CF0C00000000000000000CF
:406BC000000001071F78E08000000000000303FFFF0000000000000000C0C0FFFF0000000000002030180C06060C1830200000000000000000000000000000000000000020
:406C0000000000000000C0C0C0C0C0C0C0C0C0C0C0000000010306040000000000000000000000000000000000000000603030303070E0C00000001E3E333333331B3F3F15
:406C4000000000FFFF6030303070E0C00000003F3F18303030381F0F00000080E060303030306000000000071F18303030301800000000C0E07030303060FFFF0000000F87
:406C80001F38303030183F3F00000080E07030303070E0C0000000071F1B33333333331B000000303030FEFF333333000000000000003F3F00000000000000F0F81C0C0CCC
:406CC0000C18FCFC0000000367CECCCCCCE67F3F000000FFFF6020303070E0C00000003F3F00000000003F3F00000000303030F3F3000000000000003030303F3F3030303A
:406D000000000000303030F3F3000000000000303030301F0F000000000000FFFF0080C0E07030100000003F3F0303071E383020000000030303FFFF0000000000000000E9
:406D400000000F3F30303000000000F0F02030F0E03030F0E000003F3F00003F3F00003F3F0000F0F06020303070E0C00000003F3F00000000003F3F000000C0E07030304F
:406D80003070E0C00000000F1F38303030381F0F000000F0F06030303070E0C0000000FFFF0C1818181C0F07000000C0E07030303060F0F0000000070F1C1818180CFFFF6F
:406DC0000000000000F0F0403030306000000000003F3F0000000000000000E0E0B0B0B030303060000000183131313133331F1E000000303030FEFE30303030000000007A
:406E000000001F3F30303030000000F0F00000000000F0F00000000F1F38303010183F3F00000010F0E0000000E0F0100000000000073F383F070000000030F0C000008024
:406E40000000C0F0300000033F3C0F010F3C3F03000000103070E080E070301000000020303C0F070F3C302000000010F0E0800000E0F01000000000C0C3EF7C3F070000C6
:406E800000000030303030B0F0F0703000000030383C3F333130303000000000808080FE7F030303000000000101037FFEC0C0C000000000000000FFFF0000000000000045
:406EC000000000FFFF000000000000000303037FFE80808000000000C0C0C0FE7F0301010000000080808080000000800000000301010101030303010000C0E0301010103B
:406F0000101030E0C000373F383030003030383F370000000000000000C0F0F8FCFC0000000080FCFFFFFF7F07017E3E3F1F1F1F1F1F1F3F3E7E00000000000000000000F5
:406F40000000FCFCF8F0C00000000000000001077FFFFFFFFC800000000000000000000000F8F8FC7C7C0000000000000000000000007C7C7E3E3EFEFEFEFEFE00000000A5
:406F8000000000FFFFFFFFFF000000000000000000000000000000000000000000000000000000000000F8FCFC7C7E7E3E3E0000000001000000000000003F1F1F1F1F1F17
:406FC0001F1F1F1F3E3E0000000000000000000000007EFCFCF8F0E0C00000000000000003FFFFFFFFFE0000000000000000007C7C3E3E3E3E1F000000000000000000008F
:4070000000001F1F1F1F1F1F1F1F1F3E3E7E000000000000000000000000FCFCF8F0E0C00000000000000081FFFFFFFF7F00000000000000000000000000000000000000C3
:40704000000000000000000000800000000080E0F0FCFE3EFEFEE0F0FCFE3F1F07010000FFFFFEFEFE000000000000000000FFFFFF000000000000000000000000000000E7
:40708000FEFEFEFEFE3E000000000000FFFFFFFFFF003E3E3E3E3E3E3E3E3E3E3E3E0000000000000000000000003E3E3E3E3E000000000000000000000000000000000083
:4070C00000000000000000000080E0F0F8F80000000000F8FEFFFF7F0F03FC7E7E3E3F1F1F1F1F1F1F1F0000008080808080808080001F3E3E3E7C00000000000000000028
:4071000000000000000000000000000000003E3E3E3E3E3E3E3E0000000000000000000000003E3E3E3E3E3E3E3E3E3E3E3E00000000000000000000E0F83EFEFEFEFEFE6B
:407140007E1E00000000FEFFFF3F0F03000000000000000000000000E0F0F8FCFC7E00000000007FFFFFFFFF81003E3E1F1F1F1F1F1F1F1F3E3E00000000000000000000FC
:4071800000007EFCFCF8F0E00000000000000081FFFFFFFF7F0000000000000000000080E0F0F8FCFC7E00000000FCFFFFFFFF0700003E3F1F1F1F1F1F1F1F3F7E7E000047
:4071C00000000000000000000000FCFCF8F0E0800000000000000107FFFFFFFFFC800000000080C0E0F0F8D8C8C8C0C0C0C0000103070F0D090901010101C0C0C0C0C8C892
:40720000D8F8F0E0C0800101010109090D0F0703010000000000FFFFFFFFFF000000000000003FFFFFFFFFC000000000F0F8FCFCFCFCF8F00000000000010303030301006D
