:400000000010002011000000750200007502000008B500F0ABFB00F02FF9000010B572B680220021D200344800F04BFD8023DA000021324800F045FD314CEE20314B01029C
:40004000992221601A603049C024304B2204802008602F4C1A60D8202E4B01010A2221602D481A602D492E4A02240860992314602C492D4A18042D4B086010601878062105
:4000800004431C701C782A4A0C431C7010688023DC0204432749284B146008781978274B141C1A78172A05D9254A58789978033B9342F6D1234B244A18602448016019210A
:4000C0001160052000F014FC214B224918780860052000F0A1FC22681F4B2048134023608021132404600B061D4A1E4C1E481F4913602360086010BD00300F4000400F4092
:400100000C000140100001400000044008000440080304400004044031040000080404401804044000500F4030500F4000700F4000010B40CCF1FF0FCDF1FF0FC9F1FF0F3D
:40014000BDF1FF0F1CFF0B402CFF0B4020FF0B40E5F1FF0F28FF0B40FFFFFBFF0802024008010B4004010B4010000C800001024010B5064C2378002B07D10548002802D064
:40018000044800E000BF0121217010BDF000002000000000DC0A000008B5084B002B03D00748084900E000BF07480168002903D0064A002A00D0904708BDC04600000000F1
:4001C000DC0A0000F4000020D00000200000000008B500F0F3FA08BD70B5061C0D1C141C002020802388AB4205D2F05C00F002FB20880130F5E7002070BD0000F7B5114CA3
:40020000071C5C4300230191151C138010262888019A904214D2002C12DB00F0E3FA002809D02C8800F044FB3E19013430702C800026044CEBE70A2000F0EEFB0A3CE6E74A
:40024000301CFEBD1027000010B5094C2368402B01D100F05BFA012000F0C8FB00F0E6FB8021002800D14021216000F04FFA10BDC000002000B5FEE770B50F490F4A013968
:400280004B1C14D0506895681468031C1E1AAE4202D040CC40C3F9E7D0681D1C5C1B844202D0002640C3F9E710320139E8E700F0D9FBFFF7C9FFFEE7010000000C0B000067
:4002C00008B500239A00032B02D80D48815800E00C490D4801338150302BF3D1FFF79EFE0A490B4B086800221A60002800D108608022D305186801210843186008BDC0464E
:40030000000000007502000000000020C0000020C800002000470000021C013830B5062822D84B06591ACC0100F088FB080A0C06191B0400164D06E0164813E0164D02E074
:4003400016480FE0164D6319DD789C785978187823020006284318430D04284309E0114800E01148241800E000246178207800020843022A04D0032A07D0012A06D104E0B7
:40038000020A0302134398B200E000BA30BDC046D87F0000D27F0000C17F0000C57F0000C97F0000D67F0000D47F000070B5041C211C0220FFF7B0FF211C061C0320FFF722
:4003C000ABFF751CE9010D18211C0220FFF7A4FF0023421CD201191CAA4209D21078461EF6B2FD2E00D80121C318DBB20132F3E7E401074E604285195B422A78DCB2944220
:4004000001D0062002E00029FBD0002070BDC046C07F0000F0B50E4B0A1C8C1A055D08242E1C5E405B08F70702D50A4F7B409BB2013CE4B26D08002CF2D1013A92B2002AA4
:40044000EBD1D84381B20E02B0B20F0A3843F0BDFFFF00000884FFFFF0B5A24CA544FFF7B7FE62B6002601960296002726AD05AC9621281C4900221CFF23FFF7BFFE002879
:40048000F4D12188042306292BD92A78012A28D1EB78AE781C0234432A19137956790393E31D9C4603238C451BD891790423172917D1E21891B2002902D0281CFFF7AAFF1C
:4004C000039936023143082381420AD131E0019A012A00D003E1012C00D000E10C23002E3FD00026694699310B7001206B469A3328700022301D6C461E705A7081B2281CD5
:40050000E682FFF787FFBCA9774A8B199918774A08709918764A000A08709B181634172107361970281CB1B2221C9623FFF754FE9CE7992327A86B440678187831380B28E8
:4005400001D90523CDE700F083FA1A002900FCFFFCFF7200FCFF7600870040009600BB00C2FF301CFFF722FF0C230028BAD127A86049382200F09CFA331C3826B2E7019EE1
:40058000012E00D0ABE0002C00D0A8E0201CFFF70DFF27AA4142414111708EE00198012800D09CE0012C00D099E0002E00D096E0514B1968FF230A88AB71D409200AEE71DF
:4005C000331C2C71687104268CE70198012800D085E0022C00D882E071A9C8192639E21E3F19FF3900F064FABAB20027832A74D19E246C449D2623786E443178029A1F0295
:400600000F43002A0AD1111C06A8802200F059FAFF2006A900F07CF901980290381C71A900F076F9002856D000270A2359E7019C012C54D119E70198012850D196233E19B4
:4006400059008E4249D871AAD01927A9221C00F02FFAB7B2002344E7002C40D106AB274A191C41CA41C127AA41CB41C201260196231C082636E70198012830D1032C2ED194
:40068000AB796A791902114334020819C00100238022013A145C1B19DBB2002AF9D1002E08D1FF2906D1164E164A31781478581A031BDBB25E4226A90E710023012611E73B
:4006C0000020FFF773FE002802D10F4980240C6000F080F903E0071CBCE7032301E70423FFE6C0460CFDFFFFACFDFFFFADFDFFFFAEFDFFFFC07F0000D4000020E00A0000C2
:40070000D07F0000D17F0000C0000020154810B50368002219680B1C013BBF2B03D01C781219D2B2F8E740680478A21AD3B2A34201D1002902D1002000F04AF90020FFF747
:4007400035FE094C2168221C402901D0002803D000231360FFF780FE8020206000F03AF910BDC046D4000020C00000200C4B10201A6810B502400B4900D10A600C68802C42
:400780000DD100240C600120211CFFF7C5FDA04205D0211C0120FFF7BFFDFFF7BBFD10BD00030B40C0000020034B802219681006084318607047C0460000064010B5054CE2
:4007C0002378002B03D100F02BF801202070FFF7EBFF10BD0C010020014B18687047C04640030640024B0F21186808407047C0460803064000B5044B0F211A681140082924
:40080000F9D0024B186000BD0802064040020640024B002218681A607047C046C80F0640124A134B134810B51A6000230360124A124C134801212160026012480724046075
:40084000114C1248236001601149124C0A601248124A134913602360124A0360124C13480B6013602360036010BDC0460B00000200000640400006400700008048000640B6
:400880000003064004030640100306404400064000020640880E0640C80E064004020640480F0640080F0640C80F0640880F064010B5FFF7ADFF041CFFF794FF094B0028B3
:4008C00003D01C60FFF788FF02E0074A10681C60064CD82321689A0022600A401402204310BDC046C80F064040030640C00F06400230800804D0C0460138FDD1C046C0461B
:400900007047EFF3108072B6704780F310887047F0B50023A7B0071C0193FF2845D8994243D0244A244C04AE26607F25049206A88022756000F0BCF8204D214929602B68D9
:40094000002BFCDB2068A0210290029A0B069A4201D1002004E00298020F0F2A02D10920019003E021680B0F0A2BFBD1019A002A1DD12660134E3F0437430497FFF7C1FF9B
:400980001149124A0B6803932A602F68002FFCDB039DA0260D60FFF7B8FF2468310602940298884203D0029800E001200190019827B0F0BDB6D700000800004004000040DF
:4009C00004000080B6D8000008010B400500008001BE7047034B04491A6890B2084318607047C0460CED00E00400FA0510B5041C8022074B1002844205D91868FFF778FF5F
:400A000004496418F4E758686043FFF771FF10BDDC0000200080FFFF08B5034B197A4843FFF766FF08BDC046DC000020024B18680107C80F7047C0460404044002B4714695
:400A400049084900095C49008E4402BC7047C04603B47146490840004900095E49008E4403BC704770B50E4B0E4D0024E81A85101E1CAC4204D0A100725890470134F8E7BB
:400A800000F032F80849094A0E1C541AA5100024AC4204D0A300F05880470134F8E770BDF40A0000F40A0000F40A0000FC0A000010B50023934203D0CC5CC4540133F9E76E
:400AC00010BD00B58218031C934202D019700133FAE700BD400B000092000000000000009311A60411140101F8B5C046F8BC08BC9E46704799010000C1020000F8B5C04691
:400B0000F8BC08BC9E46704771010000200B0000D000002020000000280000000000000000000000D40A0000D80A00000000E02EC05D00001800000000366E010000000025
:400B40000000000000000000000000000000000000000000000000000000000000000000000000000000000000000000000000000000000000000000000000000000000075
:400B80000000000000000000000000000000000000000000000000000000000000000000000000000000000000000000000000000000000000000000000000000000000035
:400BC00000000000000000000000000000000000000000000000000000000000000000000000000000000000000000000000000000000000000000000000000000000000F5
:400C000000100020110C0000A9350000A935000008B5024B83F3088802F0C8FC00100020F8B572B6002406236343694D0134EE187279707831793778B3781202F678000221
:400C40000A4338431904084337063843002103F08FFC032CE7D1291C12315E48802203F07EFC0023191C5C4AFF25141C143418593C32061CAE434F00C4B2351CD219002C10
:400C800007D0167857787619013C3770E4B20232F5E7C0B204330918282BE4D14F4A504B504C514D1A60514F2C605149514A524B524D99264F200F243E600860504F1A6010
:400CC00050492C60504B514C03263C2287203E604F4D0860D8271A604E4922604E4A38014E4B2E604E4C08604E4D16604E480E264E491E60C027022299262C603304076057
:400D00004B4C0A604B4D4C4F4C484D494D4E23603D6003604C4D0B603360F0234B4F1C032C603878062102433A703A78484E0A433A7034688023DD022543464F464A356003
:400D40003878464B1178341C1E78172E05D9444D58789978033BAB42F6D1424A424B434F19263860116005201E6003F025FA4048404D01780520296003F0F2FA27683E4A62
:400D80003E4E3A402260132434603D4B3D4D82273D4C3A0610202021802618603B4F2960300622603A4E3B4B3B493C4D3C4A3D4C186029603C4817603C4D34603C4F3D4BAC
:400DC0003D4A3E4C04211860296017602760F8BD245E000080300F40A45E0000003300030000014076EE00000C0001401000014000000440920DD800080004400C000440B6
:400E00000001044018010440000204401802044000030440080304401803044000040440B1050000080404400C0404401804044000500F400000701008500F4010500F4000
:400E400020500F4030500F4038500F4000700F4000010B40CCF1FF0FCDF1FF0FC9F1FF0FBDF1FF0F20FF0B402CFF0B401CFF0B40E5F1FF0F28FF0B40FFFFFBFF0802024007
:400E80001C0202403002024008010B40170000800001024004010B400D000080000002404000024010000C8004012400C00010403C0042008000104000031A4040031A4072
:400EC00010B5064C2378002B07D10548002802D0044800E000BF0121217010BD9001002000000000FC4F000008B5084B002B03D00748084900E000BF07480168002903D08E
:400F0000064A002A00D0904708BDC04600000000FC4F000094010020D00000200000000008B5034B03481968302203F02BF808BDD400002000500000034B044A0448054957
:400F4000DA629863D963704700000020212A0000C52A0000092B000030B585B062B6274B19681C1C0A78012A01D8FFF7D9FF012003F046F8002002F0DDFF0A2003F0F0F9C2
:400F8000012002F0D7FF0A2003F0EAF902F0DEFE20680024856AE8B202F05BFE00F0C2FE02F082FB02F0D0FB154B201C1C7200F063FE022000F0F6FE01F04CFA00F08AFEEE
:400FC000104902250191231C0095029403940E49B2220E4801F0E0FF0D4A0E49231C01920095A022029403940B4801F0D5FFFFF7A3FF02F085F805B030BDC046D4000020CE
:40100000140C0020240C0020305000001D1C0000100C0020335000007122000000B572B6FEE700B572B6FEE710B5041C88470023201C23606360237210BD000010B5041CF1
:4010400002F0ADFE0020011C0B4A012302F0B0FE00210B1C0420094A02F0AAFE00210B1C0620074A02F0A4FE02F082FF0023201C23606360237210BD205200002E52000065
:401080003C520000F7B5C643F6170191141C064001271F4BFA21301C89009E4204DD03F0C1F90137061CF4E703F0BCF9FA22051C9100301C03F00CFA081C092D06DC0A2191
:4010C00003F0B0F91349031C201C07E0632D09DC642103F0A7F91049031C201C2A1C03F051FA04E0201C0D492A1C03F04BFA201C012F05D10A4903F067FA201C019904E05A
:40110000019903F061FA0749201C03F05DFAF7BD3F420F004A520000535200005C520000615200007A520000C30107B5181803F079F9FF221030C3B2009206201021072242
:4011400002F00AFE07BD000010B5041C01F0BCF90249221CFFF796FF10BDC0466352000010B5041C01F0ECFA0249221CFFF78AFF10BDC0466552000010B5041C01F0DAFA92
:401180000249221CFFF77EFF10BDC0466852000070B5041C01F076F9051C01F095F9FA21061C8900281C03F03DF9FA22051C9100301C03F037F903496843221CFFF762FF65
:4011C00070BDC0466B52000010B5041C01F05AF90249221CFFF756FF10BDC0466D52000070B5041C01F04EF9051E10DD01F06CF90A2646430849281C03F014F9011C301CD6
:4012000003F010F90549221CFFF73CFF03E0201C034903F0FFF970BDA0860100735200006F52000008B5024903F0F4F908BDC0467552000010B5041C00F062FD0249221C8E
:40124000FFF720FF10BDC0466D5200007FB5041C01F07CFF104B051C1A681E1C811A322907D903232370E5600820356003F01EF810E00A4832320068521B211C002301F069
:40128000E0FD0028EDD02478052C03D168460021FFF7D4FE7FBDC046AC010020280C0020F0B5061C95B0002000F0E6FC6E4D3022296808A803F053F902F071FD0020011CA9
:4012C0006A4A012302F074FD002000F0D5FC02200021674A012302F06BFD002306202621644A02F065FD04AD00232B702878012803D0281CFFF7AAFFF8E76F68012FF8D131
:4013000008A801F031FA002102205B4A3B1C02F04FFD0021297004AC2278012A23D0201CFFF794FF01F0C4F80F9A109B801A584302AA5249FFF7A6FE514902A803F044F9F2
:4013400004202B2102AA002302F032FD2778022FE1D1109D6068FA246843610003F062F828181090D7E76768012FD8D100250420291C0822A023009502F0EEFC0220291C06
:40138000404A3B1C02F014FD06202621394A2B1C02F00EFD3C4800F06FFC257004AC2378012B23D0201CFFF751FF01F05FF80D9B0E9FC01A02AA78433449FFF763FE30498A
:4013C00002A803F001F904202B2102AA002302F0EFFC20780228E1D10E9D6068FA246100684303F01FF829180E91D7E760680128D8D10027391C009702200822A02302F0D3
:40140000ABFCFF253B1C03200E21214A02F0D0FC009506200F210722102302F09DFC0095062091210722922302F096FC81219123009106201021072202F08EFC08A8154A7C
:40144000114901F0B1F908A80F4901F0FDF9064A08A81168302202F095FD301C37607760377215B0F0BDC046D40000207C5200008A52000098520000A0520000635200002F
:401480007A520000AE52000080841E006D520000BC5200002911000070B588B0FF25041C02F07DFC02210A1C0020A023009502F053FC00202021324A012302F079FC06209B
:4014C0002621304A002302F073FC04200F2105221023009502F040FC0420922300959121052202F039FC284E3368986A03900399FF2508314A00D3B2009504201021052249
:4015000002F02AFC039B812208335800C1B2009204200522912304AD02F01EFC281CFFF795FE2978022904D0042920D00129DED110E06D6803994B193F2B01DD3F2302E04A
:40154000002B00DA0023039368460C22105C02F080FBCCE76B68012BC9D131680422283103A802F00FFD00222260626004E06E680648666020600022201C227208B070BD60
:40158000C8520000D1520000D40000209115000070B5FF2586B0041C00200E1CA0230095011C082202F0D8FB331C2B4005D0012B09D102200021164A03E0164A0220062143
:4015C000012302F0F5FB012306202021124A02F0EFFB02AE002333703078012807D0301CFFF734FE00F0FAFB0228F5D108E071680129F4D1002000F03FFB022000F0D2FBE2
:401600000022201C22606260227206B070BDC046E6520000D9520000F4520000F0B589B0041C02F0BCFB0221FF230A1C00930020A02302F091FB00203F4A1421012302F0E8
:40164000B7FB3E484668751C6A1E9541002D02D100F03AFF061C301C394902F039FF761A04201E21374A2B1C02F0A2FB01236B4004205A21344A02F09BFB301C334902AA20
:40168000FFF700FD04AF3021062002AA002302F08FFB381CFFF7DAFD3978022904D0042910D00129DCD104E07968012739404D40D6E77A68012AD3D1002D0ED11F485342A4
:4016C00043602EE07A68224B00206260236020722FE0042A28D0012A1ED01C4902AA301CFFF7D0FC02A802F09DFF02AF3918013900253A1C0D7006203021012304AF02F0DA
:4017000057FB381CFFF7A2FD3A78022AE1D17D680B4F7D437619E0E77B68012BDDD1074846602560656003E07E680949666021602572201C09B0F0BDFD520000140C002063
:40174000A0860100095300000C5300006352000091150000F0B591B005900C1C02F01FFB00200CAA107004900CAB1878012800D1BDE02068002826D002F054FF0C23584300
:401780009E21081A4508EEB2771C0221FFB2FF250A1C00203B1C009502F0DEFA0020391C2268012302F004FB61225342991B0020C9B200950222A02302F0CEFA01260320D9
:4017C0000790069602E00422079206906F461825EA5D0498530007990992DEB202F022FE002801DD494A00E0494A301C9421002302F0DEFA0498079902F06AFE04980A91B3
:40180000411A0F01E519043500272B68FAB20892002B25D0099811180A984E00F2B23E1A0B927242564102211A1C0B98331C02F0BFFA286802F0F6FE0C234343069A0898E7
:4018400001330132D9B283185A00D2B2002E00D0FF2600960B98942302F07EFA10350EE0089E0998009331184A000699D0B2013176187200D2B20121A02302F06DFA07992B
:4018800001378F42C1DB2B6806209421002B02D0204A002300E01E4A0CAD02F089FA281CFFF7D4FC2F78022F0BD0042F00D05BE7059A6C68184800260394106054601672D7
:4018C00020E06968049D681800290CDAC543EF17384048E7049A01321301E6187168002900D141E70492049F8742F3D13CE70D99012900D03DE7049D059F2E01A41908343A
:4019000007CC07C7059811B0F0BDC046105300007A5200001253000091150000F0B5184B8BB0184F041C186804AD01900E1C281C391CFFF70FFF69680091002908D007AD51
:40194000391C5431281CFFF705FF6A68002A03D1231C07CD07C310E07300019FF618009D6846B9190F30691802702B31012202F009FB0020206060602072201C0BB0F0BD37
:40198000D40000203850000030B5041C85B006256846013DFFF75AFC002DF9D102F0D6FA002801D1FFF7BCFA034B221C783323CB23C2201C05B030BDB8500000F0B58BB0DF
:4019C000041C02F0ECF906AD281CFFF73FFC2B78022B0CD0042B24D0012B29D16868012826D14B4E221C043623CE23C28DE02820A9686E6802F0C8FC002800D101207043DD
:401A0000444B454F58433A68801800F035F9FA213868890002F006FD011C404800F074FA06E069683E4F00256160276025726CE03C48374E0568371C2C350395039B103719
:401A40001A783948D1007E183568854215D004A8A847364904A802F0B7FD0020011C04AA02F0C3F904A82E2102F0BCFD002813D100906C21042278230CE00027381C391C52
:401A800006227823009702F067F90097042078210622A02302F060F97768381C02F0C2FD0C2343436022DEB251428D1BEDB20020291C3A1C012302F07BF9232E06D80020D7
:401AC00000907C2102222B1C02F046F9002703980137C35D0E4EDA00103604A8B158884704A802F09FFD052803D104A80F4902F06BFD58257D43583DE9B2062004AA002306
:401B000002F056F9022FE2D15DE7201C0BB0F0BD3851000010270000140C00201453000091150000D4000020251200007A52000070B502F0EFF9061C02F0F4F9204D002304
:401B4000204AE856503211561F4CB14204D1267929700136267106E09357834203D120792E70013820710422A156C8170B184340032B24DD2E69A66001F0F4FAA268286151
:401B8000811A01D0E96001E00120E8600423E656F217910F88190D4E83100022AB60291D131C3068042501F01EF962570849114004D504200139434219430131217170BDBC
:401BC000D800002038510000AC010020280C00200300008038B502F0B9F90D4CA06102F0BDF90C4D236AEB6001F0BCFAA169206200290BD0EA68801A022807D9064D211C3F
:401C0000002228681431131C01F0EDF838BDC046D8000020AC010020280C00207FB510210022022001F031F80E4B18600E4802F05FF90E4802F03AF900210D4B0D4D0E1CE8
:401C400001AC201C9847019B002B07D00822A05661680028F4D00E1C1D1CF1E7311C2B1CEEE7C046280C0020311B0000D51B000089190000BD19000038B5002804DB124B26
:401C8000984202DD181C00E00020104C104922680860D568451B00F059FD281AC343DD1721680540281C896802F0BCFB01F00AFD2468281CA16802F00BFC081C616802F01C
:401CC000B1FB01F04FFD38BD808D5B00D4000020140C002008B50122064B5042186058600020FFF7C9FF044904480B681A69026008BDC046140C0020D4000020000F10404A
:401D0000014B18687047C046140C0020014B18787047C046D77F0000014B18787047C046D67F00007FB5A020800000F0D3FD061C0020011C01F07AFF0024154B1548E51822
:401D40000022AB5E0222A95EA022C91A95001818321C6B46009500F0FDFA301C291C01F04DFF0234012002F0E5FA102CE5D10A4E0A4C3278237801A8094902F003FC002140
:401D8000062001AA0B1C02F013F800F0D3FD7FBD7E56000090560000D77F0000D67F0000D85300000C4B10B5041C1870012809D0002807D002280DD1002001F031FD01F0A5
:401DC0000BFD07E001F016FD201C01F01DFD062001F026FD10BDC046FC000020014B18787047C046FC00002070477047F0B585B001F03CFE00250190019B9D4237DA01F025
:401E000093FEC4B20A2C0FD00D2C0DD0002C2CD01A4F28243E1C513631783B7861437A1CCE18B05401331FE0144C207800281CD0261C5136337828277B4311491A1811488D
:401E400000235354006803A91A1C0B7000F0CBFF012807D133780A4A5F430133D719184067653070054F00233B700135C4E70648064902680A6005B0F0BDC046BC010020D6
:401E8000BD0100202C0C0020CC0F0640C00F0640023938B5021C052901D9002430E0194B0578181C5830445D60180A28F5D801381C1C09281AD81C1C02F05CFA170507093F
:401EC0000B0D0F111315103410E018340EE020340CE028340AE0303408E0383406E0403404E0483402E0503400E0083421680B78AB42D2D1501C013102F082FB0028CCD12C
:401F0000201C38BDE45300000FB437B50F4CA06D002817D000210122251C0B1C52425C3500F08FFF07AB5121069A281C019302F059FF281C01F00CFE0021A06D0A1C0B1C24
:401F400000F0C4FE37BC08BC04B01847BC01002010B503780E4C002B0FD002F0C5FA002805DBFA218A0050430A4B984204DD0A480A49FFF7C9FF00E060606068FA24A100D9
:401F800002F050FA011C0648FFF7BEFF10BDC046140C002000879303BC54000060EA0000E054000010B5FFF7B1FE041CFFF7B4FE211C021C0148FFF7A7FF10BDEA5400008C
:401FC0001FB50748FFF7A0FF6A4605230548137000226946131C006800F078FE05B000BDFC540000280C002070B58EB00190314901A802F01EFB0378041C002B01D12E486D
:4020000054E04078002849D12C4E02A835683022291C02F0A4FA217869291ED00BD84F2923D064293AD1019802F05EFA011C02A800F00AFC34E0742927D0762905D06F2937
:402040002CD102A800F090FB2AE0019802F04CFA011C02A800F091FB22E0019802F044FA011C02A800F094FB1AE001980278002A04D129691248FFF747FF19E002F034FAC2
:40208000011C02A800F020FC0AE0019802F02CFA0C4A011C02A800F087FB01E00A4805E0316802A8302201F06DFF0848FFF72CFF0EB070BD7A52000001550000D4000020A7
:4020C0004C550000E91D000029550000FC540000114B10B5186801F0F9F9011C0F48FFF713FF0F48006801F0F1F9011C0D48FFF70BFF00F025FC011C0B48FFF705FF0220C2
:4021000001F076FC041C032001F072FC211C021C0648FFF7F9FE10BD240C002057550000100C00206A550000805500009455000013B50E49019001A802F07BFA0378002B1C
:4021400003D10B48FFF7E0FE0FE002F0CDF9094C002803D101204342236006E06421FA224843910002F010F9206013BD7A520000A55500000001002008B50220FFF712FE89
:402180000148FFF7C1FE08BDFC54000008B50378002B10D002F0A8F9002805DBFA218A0050430A4B984204DD09480A49FFF7ACFE01E0FFF761FD0848FA210068890002F01F
:4021C00031F9011C0548FFF79FFE08BD808D5B00D155000070170000140C00201453000008B50248FFF790FE08BDC046FC55000038B500F047F9041C00F066F9FA21051CC8
:402200008900201C02F00EF9FA22041C9100281C02F008F9211C021C0148FFF775FE38BD0656000008B5FFF7E3FF08BD08B5011C0148FFF769FE08BD1356000013B50B495A
:40224000019001A802F0F5F9041C02F0EBF9011C201CFFF71DFE002803D1201CFFF7E6FF02E043680198984713BDC0467A520000F0B5012085B0011C002200F006FD1E4C93
:402280002060012000F08EFD1C4F251CB8651C4801F0D6FE01F0D6FB1A4B03AC1868019000F054FF184E0199326B831A8B4205D900F04CFF30630120207009E0019B211CC0
:4022C000D218121A0023286800F0BBFD0028EFD020780328E0D802F04DF80502090BFFF787FFD9E7786DFFF7A9FFD5E7074800E00748FFF709FECFE72C0C0020BC010020D8
:40230000ED1D0000000100203C020020305600003B56000030B541180023884214D20578441C1F2D04D80135601988420AD90EE06D09072D02D14578841C07358C4206D2E1
:40234000601C02335B19E8E71360002001E00220404230BDF0B589B002908C46161C1D1E03D018681118039100E00393002307939D4269D0029F9F4204D16046984263D14F
:40238000286065E0002E5FD0029A0298141C64440494341C0178431C1F2916D84A1CA7180192039A0597974241D8019FDA19049FBA424BD8023140181978013321700134A1
:4023C0008342F9D1059C101C2AE01F270F404A093902CF43E719072A02D14278831C073202320399A0180190884206D900200821914240410238181819E00498834225D292
:402400001978581C7F1A0097009BB3421ED30021009F7B5C6354013105939142F8D1019C049B9842B6D3A61B2E60002010E0029A111A614407AAFFF76DFF002808DB079F04
:40244000A41BE119296003E0032500E00225684209B0F0BD08B501F0B3FA034801F018FE01F0BCFA08BDC04609250000034B044A19781068084100B27047C0460401002029
:4024800070020020074B084808491A6803780868516918419269431A5343D843C01718407047C046D40000200401002070020020034B044A19785068084100B27047C046DA
:4024C000040100207002002010B50C4B0C490D4A18684C681378C2691C41006AA41A4443FFF7D0FFC317990D0A189012282358432018C443E117084010BDC046D400002032
:402500007002002004010020F0B57F4B8FB0186801250290284200D1F1E07C490A7A0C1C632A74D87A4E0B6831781A1C0A4100209F1A01F05DFA616836780A1C3B183241BF
:40254000281C8F1A236001F053FA3D18714F65603B7A002B14D1FFF795FF061CFFF7D0FB311AE0688A106C4B15189D4204DC6B4B9D4201DBE56000E0E3603868FFF77CFBEB
:4025800000F0E4FD2769051EBD4233D9FFF77AFF061CFFF799FFE91B01917143626903908F18381C5E4901F0EFFEA3695C49C018A061381C01F02CFF301CFA266161B1006C
:4025C00001F030FFFA21071C8900039801F02AFF4743019AE3695743FE185149301C01F0D3FE276A4E49C0192062301C01F010FF2561E161454C257A632D7CD1494E0C200F
:4026000001F008FA3068F021884370246CE0652A6DD1FFF7E3FB061E022E5DD13D4F7B6801332BD0FFF76CFB002827DDFFF74CFF7968884222DA0020FFF7B4FB0020FFF746
:402640001BFB394806AC076800211022201C01F08FFF04222270656000F084FD0022131CE060211C381C00F0BEFB304D032369460B74286804A90022331C2BE0022001F03E
:40268000B7F9051C032001F0B3F9281AC21784185440042C20DD0020FFF784FB0020FFF7EBFA0AAD204E00211022281C376801F05FFF04232B7000F055FD0022131CE8603A
:4026C000291C381C00F08FFB18490223086805A90B70002200F087FB124E332001F09AF93068F027B843C0242043306003E0662A01D100260E72054B1A7A01321A720C4E74
:40270000029F37600FB0F0BD1C021A407002002004010020140C0020A08601006079FEFF407E050000001A40280C00202C0C002010021A40014B98697047C04670020020B8
:40274000014B186A7047C04670020020014BD8687047C04670020020024B00229A611A627047C0467002002010B5041CFFF7A0FEE061FFF77BFE606110BD38B50D1C041C3F
:40278000FFF796FE011C281C01F04CFE206238BD38B50D1C041CFFF769FE011C281C01F041FEA06138BD0000F0B5244B87B00592012204901A72081C214901F033FE051C6C
:4027C000002000F0CFFF80200024010601940291661C301C03961B4E4021059FB847281C346000F06FFF322000F08CFDFFF74AFE071C042000F066FF322000F083FDFFF7A1
:4028000041FE6843BA00801A291F01F00BFE002804DC029B984201DD01940290039C402CD6D10498019D056135600020FFF724FA024E0021317207B0F0BDC046140C0020BB
:40284000A5520000000F10401D4AF8B501231372041C081C1B4901F0E5FD051C002000F081FF281C00F02EFF642000F04BFDFFF709FE071C042000F025FF642000F042FDF1
:40288000FFF700FE291F061C381A01F0CBFD4543A060781BE0607F2000F064FFC82000F031FDFFF7EFFD7F21801B01F0BBFD60600020FFF7E1F9024C00212172F8BDC04629
:4028C000140C0020A5520000014B016119607047000F104038B50723051C184201D09D43083500F02BFC0F4A1068002804D1141C0C3407218C4314600B490C484B68ED18C4
:40290000854205D89D4203D912684D60D41800E0002400F0A7FC002C01D1FEF782FB201C38BDC04694020020140B00207708000070470000014B00225A607047140B00209E
:40294000024B03485968401A7047C046140B002078080000031C0833012243605142C36003610023816003607047002303617047436808619A684B608A609A68996051603B
:4029800001680131016070470A68031C30B50833541C01D1036905E05C682568954201D8231CF9E75C6808614C60A16059608B6001680131016030BD4368816800B5996057
:4029C0008268536003695968814200D15A600022026118680138186000BD00B572B6FEE7064A13681868203080F30988022080F314883FBCAE4662B600BDC0461C0B0020A9
:402A000010B58024031F64041C60043B19600349043B1960143B40381A6010BDDB2900007047000008B50C4BFF2219681004084318601968FF221006084318600749084BF7
:402A4000084819600722084B026000211960FFF7C7FF72B6FEE7C04620ED00E07FA9030014E000E010E000E0080100208022044B50051860BFF34F8FBFF36F8F7047C046A6
:402A800004ED00E072B6044B1A6801321A60BFF34F8FBFF36F8F704708010020044A00B51368013B1360002B00D162B600BDC04608010020EFF3108072B67047002080F36E
:402AC00010887047EFF309800E4B1A6820381060F0C044464D4656465F46F0C008B572B600F02AFC62B60CBC116808681030F0C8A046A946B246BB4680F309882038F0C81D
:402B00001847C0461C0B002010B5FFF7D3FF041C00F034FB002803D08022034B50051860201CFFF7CCFF10BD04ED00E038B50468002C0CD0C368026C9D184368C5609D426C
:402B400000D3C460C468081C211C01F008FD38BD10B5041CFFF796FFA36C002B0EDD606A00280BD0201C243000F04AFC002801D000F0A6FCA06C0138A064EDE701214A4268
:402B8000A264FFF78BFFFFF77DFF636C002B0EDD206900280BD0201C103000F031FC002801D000F08DFC636C013B6364EDE701214A426264FFF772FF10BD38B5151C026CC7
:402BC000041C002A07D10568002D29D1406800F0C9FC656024E0002D0CD1806801F0BFFCA168206C65680B18A360AB4218D32268A26015E0C06801F0B2FC216CE0684B4251
:402C00002168C218E2608A4202D26068C318E360022D05D1A56B002D02D0A26B013AA263A16B0131A16338BD38B5041C0D1CFFF729FFE16B226C081C504301394A4323689A
:402C4000012118186060A36000209B184A42A063E3606264A26485420BD12569854210D0201C103000F0CCFB01280AD1FFF7FEFE07E0201C1030FFF76DFE201C2430FFF783
:402C800069FEFFF70BFF012038BDF8B5061C0F1C002801D1002018E04C20FFF71BFE041EF8D0301C78430130FFF714FE051C206007D0E6632764201C0121FFF7B5FF201C56
:402CC00003E0201CFFF734FE281CF8BDF0B585B0041C009101921F1C0025FFF7D3FEA36BE26B934201D3022F13D13A1C201C0099FFF763FF626A002A07D0201C243000F066
:402D00007FFB012801D1FFF7B1FEFFF7C7FE012046E0019E002E02D1FFF7C0FE3FE0002D02D102A800F09AFBFFF7B8FE00F006FAFFF7A8FE606C431C01D100216164A56CA9
:402D40006B1C01D10023A364FFF7A8FE02A801A900F090FB00281DD1FFF794FEA66BE56BFFF79CFE201CAE420FD11030019900F029FB201CFFF7ECFE00F074FA002801D069
:402D80000125AAE7FFF772FEFAE7FFF7E1FE00F069FAF5E7201CFFF7DBFE00F063FA002005B0F0BD38B54C20FFF794FD041E18D00123002559428563C3634164456081642C
:402DC00005608560C56005641030FFF7C3FD201C2430FFF7BFFD201C291C2A1C2B1CFFF775FF201C38BDF7B5041C161C1F1C0091FFF760FEA36BE26B0190934202D3002541
:402E0000022F19D1201C00993A1CFFF7D6FEA06C431C0DD1656A002D0DD0201C243000F0EFFA002807D0002E05D00125356003E0A16C0131A16401250198FFF740FE281CDC
:402E4000FEBDF0B585B0041C0F1C019200930025FFF718FEA36B002B2AD0201C391CE668FFF764FE0098002814D1A26B2368013AA263002B02D100F03BFB60602769002F91
:402E800012D0201C103000F0BBFA01280CD1FFF7EDFD09E0616AE660002905D0201C243000F0AEFA0028F2D1FFF7F8FD012050E0019E002E02D1FFF7F1FD49E0002D02D135
:402EC00002A800F0CBFAFFF7E9FD00F037F9FFF7D9FD606C431C01D100216164A26C531C01D10025A564FFF7D9FD02A801A900F0C1FA002827D1FFF7C5FDA66BFFF7CEFDD6
:402F0000002E1AD12368002B06D1FFF7BBFD606800F0F4FAFFF7C2FD201C2430019900F051FA201CFFF714FE00F09CF9002801D001258DE7FFF79AFDFAE7201CFFF708FE7B
:402F400000F090F9F4E7201CFFF702FE00F08AF9002005B0F0BD00B5FEE700000C4B10B51A68041C50605868844205D2986819680431FFF709FD09E0D86819680431FFF7EA
:402F800003FD04490B689C4200D20C6010BDC0461C0B00200C010020F0B585B0029040200E1C171C03930C9CFFF794FC051E00D199E0002C03D1B800FFF78CFC041C2C63AF
:402FC000002C03D1281CFFF7B3FC8CE0BA00A521201C01F0CDFA013F2A6BB80011180723994301910027F45DE81934300470F257002A02D00137082FF5D12E1C0A9C3B368E
:4030000000213170032C00D903242F1D381CEC62EC63FFF7AAFC281C1830FFF7A6FC0423181BA861039A2D616D6201980299FFF7E7FC0B9A2860002A00D01560FFF722FD87
:403040002B4C2669013626612668002E21D125602169012927D114207043231C143318180136FFF777FC042EF5D12248FFF772FC2148FFF76FFC214E301C0C30FFF76AFC8D
:40308000301C2030FFF766FC1A4A1B49E260A16009E01A494B6B002B05D120680A9AC66A964200D82560154BED6A986BDA6B013098631E1C954200D9DD6314235D43211C14
:4030C00014314819391CFFF753FCFFF7E7FC776B0126002F09D024680A9DE06AA84204D2FFF7C4FC01E001225642301C05B0F0BD1C0B0020800B0020940B00209C0B0020F1
:403100001FB500240094019402940394074808493222231CFFF740FF012806D172B6054B586305484460FFF77DFC1FBD572F00001E5E00009C0B00201C0B0020024B1A6C87
:4031400001321A647047C0469C0B002010B5FFF799FC034B5C68FFF7A1FC201C10BDC0461C0B002010B5FFF7A5FC034B5C68FFF7A6FC201C10BDC0461C0B0020F7B5364D44
:403180002B6C002B3CD1354C354E61680131616062680092002A12D1E768A368E360A760686C01306864E1680A68002A02D10122514203E0E768FB68D86841683160376886
:4031C000009B0026BB4211D3E0680168002904D10123234F5842386008E0E2680098D768FF687B68984214D21D4A136021681422CB6A5343E4186069012805D9012603E069
:40320000A86C00260130A864ED6C002D22D0012620E0391D081C0191FFF7CEFBBA6A002A03D0381C1830FFF7C7FBFB6AE86B834200D9EB631422534308491431C8180199B8
:40324000FFF796FB054BFF6A1868C16A8F42BBD30126B9E7301CFEBD9C0B00201C0B00200C010020F8B5FFF70DFC244C236C013B2364206C002801D000243BE0204E3169C1
:403280000029F9D0E268002A1ED0A069C568281C18302F1DFFF790FB381CFFF78DFBE96AE26B914200D9E16314204143331C14335818391CFFF75CFB3768ED6AF96A8D4241
:4032C000E0D30122E264DDE7A56C002D0ED1E46C012CD1D1FFF7CAFB0CE0FFF74FFF002801D00127E764A36C013BA364A66C002EF3D1ECE7FFF7D2FB201CF8BD9C0B0020B7
:403300001C0B002010B5041E02D1FFF7AFFB0FE0FFF714FF074B5A681868A4180430FFF74BFB201CFFF71AFEFFF79CFF0028ECD010BDC0461C0B002038B51F4B1A6C1D1C45
:40334000002A02D00120D86434E01C4CDA642068216802680B6B9A4204D8206821683431FDF75CFE20681649006B142201F0E8F8002804D0206821683431FDF74FFEE96B6D
:403380001422514363185869002803D1E96B0139E963F4E7ED6BA3186A4398184268011C5568083145608D4201D16B6843604068C268226038BDC0469C0B00201C0B002010
:4033C0000A5E000038B50C4C0D1C21681831FFF7DBFA20680430FFF7EFFA6B1C06D12168064804312030FFF7C3FA03E060682818FFF7B4FD38BDC0461C0B00209C0B0020B7
:40340000F8B5C368DD682F1C1837381CFFF7D4FA104C114E206C00280ED12F1D381CFFF7CBFAE96AE26B914200D9E16314204143331C1433581801E0201C0C30391CFFF722
:4034400097FA3768ED6AFE6A0020B54201D30120E064F8BD9C0B00201C0B0020034B044A596C5368016043607047C0469C0B00201C0B002070B50E1C051CFFF703FB0E4BA2
:403480005A683368591C12D00C492C68486C6968A04202D001248A420AD2501A0124984206D28A1AD3183360281CFFF7D7FF0024FFF7F4FA201C70BD1C0B00209C0B002077
:4034C000014B0122DA6470479C0B002000B5002801D1064B1868026B131C1978981A80B2A52901D10133F8E7800800BD1C0B0020014B18687047C0461C0B002070B5041EBA
:403500002AD0164BC26A19681D1CC86A824223D21E680420F16A461A14204243191CA661143166698A18964213D1261D301CFFF743FA2968CB6AE362094CE06B834200D988
:40354000E363142253431435E818311CFFF710FA02E01B68DD6AE56270BDC0461C0B00209C0B002038B5041E19D0C26AC36B9A4215D0051D281CFFF71FFAE36B0420C11A9A
:40358000E362A161064CE26B934200D9E3631420434304491431C818291CFFF7E9F938BD9C0B00201C0B002000B5FEE770B50F490F4A01394B1C14D0506895681468031CA0
:4035C0001E1AAE4202D040CC40C3F9E7D0681D1C5C1B844202D0002640C3F9E710320139E8E700F087FFFDF7B7FCFEE701000000E873000008B500239A00032B02D80D48D9
:40360000815800E00C490D4801338150302BF3D1FDF706FB0A490B4B086800221A60002800D108608022D305186801210843186008BDC046000C0000A93500000000002044
:40364000C0000020C800002010B500F0BEFD084A084913681360084B1C682140196011687824214311601A681A6000F0B2FD10BD08000840FFFFFEFF0400084008B500F03A
:40368000A4FD074BC022196892000A431A60054B8022196812060A431A6000F09AFD08BD080008400400084010B5054C2368002B03D1FFF7C9FF01202060FFF7DFFF10BD81
:4036C000EC0B002010B5041C00F07FFD044BFF211A688A4314431C6000F07BFD10BDC0460800084010B500F070FD094A094913681360094B1C68214019601468F021C90386
:40370000214311601A681A6000F063FD10BDC04608000840FFFFFDFF0400084008B500F054FD074BC022196892040A431A60054B8022196812060A431A6000F04AFD08BDA1
:40374000080008400400084010B5054C2368002B03D1FFF7C7FF01202060FFF7DFFF10BDF00B002038B5041C00F02FFD054B06491D6822042C1C0C4014431C6000F029FD04
:4037800038BDC04608000840FFFF80FF084B80221968100608431860064A074B002101201960106018680421084318607047C04600001040080F104004001040044B032182
:4037C0001A688A431A601868024A104318607047040010400308000008B5054B1A68002A03D101201860FFF7D1FFFFF7E7FF08BDF40B0020024B034A19680A401A60704711
:4038000004001040FCF7FFFF044BFB22196880000A400421084010431860704700010440044B10B51C6804498201201C08401043186010BD080104403FFEFFFFF7B50E2072
:40384000032100F051FD3E490E2000F045FD3D4B13221A603C483D493D4C3E4DA0263E4A3703086080232C603C4917603C4C3D4D3D4E3E4F18063E4B08602C603E601868AC
:403880008022540220433B4D186029683A4F0C432C603A4C3A4D002311263A4A236002202B603E60384E1060316801273943374A31603649DC20166818318701585C3740C5
:4038C0000743BC469F000197052B16D0304960467F18012138600E4204D0266899408FB237432760106881070DD58026770229689F40380C0843286005E08026F105604643
:40390000244F0843386002CA80267700880501D5381C01E08020400139408C461E4F5E00002901D000218C466146B9531B4F1C4E78430199C01201337050062BB9D1F7BDBB
:40394000253A000020001A40C020001300001A407C00008004001A4018001A401C001A400400080010001A400400040014001A4000031A4040031A4018021A4028021A4001
:4039800038021A40000F1A4030001A405C60000080001A4080021A40480C002010270000300C002008B5054B802219681006084318600A2000F0D4FC08BDC04600001A40EF
:4039C00010B5054C2378002B03D1FFF737FF01202070FFF7E7FF10BDF80B0020034B802219685002084318607047C04604001A4000B5042804D8054A81008B18186801E03C
:403A0000034B186880B200B200BDC04680011A4090021A401F230249184008607047C04620001A40014B1A681A60704710021A40034B802219681006084318607047C04654
:403A40000000064010B5054C2378002B03D100F023F801202070FFF7EBFF10BDFC0B0020014B18687047C04640030640024B0F21186808407047C0460803064000B5044B57
:403A80000F211A6811400829F9D0024B186000BD0802064040020640124A134B134810B51A6000230360124A124C1348012121600260124807240460114C12482360016037
:403AC0001149124C0A601248124A134913602360124A03600B60124812490424136004600B6010BD0B00000200000640400006400700008048000640000306400403064002
:403B0000100306404400064000020640880E0640C80E064004020640480F0640080F0640C80F0640880F064008B5FFF79FFF031C0020834201D0FFF793FF044BD8221968AA
:403B40009200114201D01A60002008BDC00F064010B5041C0134631E1878002802D0FFF78DFFF7E710BD38B50D1C041C002000F01DFBE9B2201C00F0C5FA012000F016FBC3
:403B800038BD13B5041C002000F010FB013C01A8E82202210270447000F0B4FA13BD0000F7B5071C30200C1C161CFFF7EAFF381C18230C212038614358435F430A180D4D9D
:403BC0000D4854192A18D7197D182378002E01D0D943CBB201A804210134037043708370C37000F08FFAAC42EFD1012000F0DEFAF7BDC0468E6000000CFDFFFFF8B5061C2C
:403C00000D1C0024AC4210DA2B1BFF2B00DDFF23DFB2381CFFF7B5FF3019391C00F072FA012000F0C3FAFF34ECE7F8BD13B50F2250241040644201AB20431870102408099F
:403C400020430A4058700321181C9A70FFF78BFF13BD07B53F2101AB0840812258700221181C1A70FFF77FFF07BD0000F0B5354D8BB0291C0C2207A800F071FC07A80E21CA
:403C8000FFF771FF304E3378002B06D12C206A46107001216846FFF766FF2020FFF7D9FF291C0C31022204A800F059FC04A80221FFF759FF00242D2060433C2100F0B2FBFC
:403CC00080214A42171CC3B2E1B205A8274307704F1C174387708F1C0331174304340A4308214370C370077143718271C371FFF73AFF402CDFD1291C0E31022203A800F064
:403D00002EFC03A80221FFF72EFF3078002815D1C82000F00FFB2E2401A801210470FFF722FFC82000F006FB291C103102A8022200F015FC02A80221FFF715FF0125357058
:403D40000BB0F0BD7C600000040C002008B500F01FFAFFF78BFF08BDF0B585B001930AAB1D780F1C0092041C0098844215D2201C391CFFF75BFF3E1C01998E420AD203A8BE
:403D800004210136057045708570C570F6B2FFF735FFF1E70134E4B2E6E705B0F0BD07B500210091081C0822A023FFF7D5FF07BDF0B585B001900F1C029203930024019B22
:403DC000E6B2F018C0B2391CFFF730FF029D2878002805D0311C039AFFF7E2FE0135F6E70134022CEBD105B0F0BDF0B589B00590069107920025EAB20292029E059853001F
:403E00007701C118103FCCB2FAB200230394049201936846077903997C18E0B20699FFF705FF079E3278002A26D000243078031C303B092B06D84200049B101819186218C0
:403E4000D0B20FE00299022908D12E2800D1DE20391C0022FFF7A4FE022407E002242E2804D12020391C0022FFF79AFE0134E4B2032CDBD10136D5E7019E01360196022E25
:403E8000C7D10135032DB6D109B0F0BD10B5041C00F09BF9044BA2011968C024A1431143196000F096F910BD04E400E010B5054B054910241C6008650320FFF7E7FF0348C8
:403EC000046010BD80E100E00000002000E100E010B5041C00F079F9044BA2011968C024A1431143196000F074F910BD00E400E010B5054B054901241C6008640320FFF7A9
:403F0000E7FF0348046010BD80E100E00000002000E100E0024B0321186808407047C04604000440024B0322186810401860704710000440044BFB22196880000A4004211E
:403F4000084010431860704700040440024B18680107C80F7047C04604040440034B082218681040C1081860C8B270471004044008B5034B40221A6000F0D0F908BDC046FD
:403F8000C0000020F0B51D4BA5B002928A1803900F1C01209A422ED8C809FC0BC1B225026E18F40104AA00200191161B051C029B9D4204D301281ED9012778421BE00028B1
:403FC000F8D1201C8030A74207D802998D4204D2039B595D0135315501E02278325501348442F0D1019804A900F0F6F8019A803E01320192DBE725B0F0BDC046FF7F00002B
:40400000044B7F2219681140C201081C1043C1B2196070470000044038B5041C00F0D5F8054B06491D68A2052C1C0C4014431C6000F0CFF838BDC04608E400E0FFFF3FFFE7
:4040400010B5064B06498024E4001C6088660320FFF7E2FF0348046010BDC04680E100E00000002000E100E038B5041C00F0ADF8054B06491D68A2052C1C0C4014431C6077
:4040800000F0A7F838BDC0460CE400E0FFFF3FFF10B5064B06498024E4011C6088670320FFF7E2FF0348046010BDC04680E100E00000002000E100E008B500F086F8084BF5
:4040C00020211A780A431A70064B1022197811431970054B19780A431A7000F07AF808BD91000F4092000F4093000F4000B5034B19784A07FBD5024A107000BD62000F40B4
:4041000041000F4070B5051C0E1C041CAA19D0B2E3B2984204D02078FFF7E8FF0134F5E770BD000008B50A4B1878820602D509480378F8E700F049F8074B012219781143ED
:40414000197019789143197000F043F808BDC04663000F4051000F4091000F4008B5074B0F221A70FFF7DEFF054806490378064A06480B7800231370037008BD81000F401D
:4041800062000F4063000F4082000F4083000F4010B5054C2378002B03D1FFF7DFFF01202070FFF789FF10BD050C0020014B18707047C04672000F400230800804D0C04662
:4041C0000138FDD1C046C0467047EFF3108072B6704780F310887047F0B50023A7B0071C0193FF2845D8994243D0244A244C04AE26607F25049206A88022756000F0AFF9CD
:40420000204D214929602B68002BFCDB2068A0210290029A0B069A4201D1002004E00298020F0F2A02D10920019003E021680B0F0A2BFBD1019A002A1DD12660134E3F047A
:4042400037430497FFF7C1FF1149124A0B6803932A602F68002FFCDB039DA0260D60FFF7B8FF2468310602940298884203D0029800E001200190019827B0F0BDB6D70000A7
:40428000080000400400004004000080B6D8000008010B4005000080034B802219681006084318607047C04604010B40074B10B5041C1868002801DBFFF7EEFF044B0549F5
:4042C0001A680C4014431C6010BDC04604010B4010020B4008080800024A83009B181868196070474000002038B5041C0D1CFFF76CFFA308084A99008B18032214409440D6
:4043000019680634A2409143A5400C1C2C431C60FFF75FFF38BDC04600E400E0034B04491A6890B2084318607047C0460CED00E00400FA0510B5041C8022074B1002844295
:4043400005D91868FFF738FF04496418F4E758686043FFF731FF10BD100100200080FFFF08B5034B197A4843FFF726FF08BDC0461001002002B4714649084900095C490014
:404380008E4402BC7047C046002934D00123002210B488422CD301242407A14204D2814202D209011B01F8E7E400A14204D2814202D249005B00F8E7884201D3401A1A43FF
:4043C0004C08A04202D3001B5C0822438C08A04202D3001B9C082243CC08A04202D3001BDC082243002803D01B0901D00909E3E7101C10BC7047002801D00020C04307B41E
:40440000024802A14018029003BDC046D90000000029F0D003B5FFF7B9FF0EBC4243891A1847C046002941D010B4041C4C40A44601230022002900D54942002800D540427E
:4044400088422CD301242407A14204D2814202D209011B01F8E7E400A14204D2814202D249005B00F8E7884201D3401A1A434C08A04202D3001B5C0822438C08A04202D388
:40448000001B9C082243CC08A04202D3001BDC082243002803D01B0901D00909E3E7101C6446002C00D5404210BC7047002806D003DB0020C043400801E08020000607B4B8
:4044C000024802A14018029003BDC046190000000029EBD003B5FFF7A7FF0EBC4243891A1847C0467047C04608B500210A2200F063F908BD70B50E4B0E4D0024E81A85100B
:404500001E1CAC4204D0A100725890470134F8E702F058FF0849094A0E1C541AA5100024AC4204D0A300F05880470134F8E770BDD0730000D0730000D0730000D873000002
:4045400030B50023934208D0C55C0133CC18013C2478A542F6D0281B00E0002030BD10B50023934203D0CC5CC4540133F9E710BD00B58218031C934202D019700133FAE733
:4045800000BD00000EB400B59CB01DAB02A904CB822202900861920009488A810122886048615042074AC88110681D9A019300F069F9029900230B701CB008BC03B01847DC
:4045C000FFFFFF7F8401002000B5031C1A78002A01D00133FAE70A7801311A700133002AF9D100BD00B5CAB20378002B03D0934205D00130F8E753425A415142084000BDD5
:4046000002780B7801300131002A01D09A42F7D0D01A7047031C0A7801311A700133002AF9D170470023C25C0133002AFBD1581E704708B5021C0023006800F001F808BDF3
:40464000F0B500280CD11068002809D129E037780136002F0CD0BD42F9D1002B04D0201C0578441C0E1CF2E71460013C237018E0201C002D08D11560281C12E01E78013345
:40468000AE4205D0002EF9D125780B1C0134F5E7002D03D0671E0021397000E02C1C14600138F0BDF0B51E1C424B87B0059018680191029203900C1C2578039F0823791902
:4046C0004A7801341340F7D12D2D04D1012025780090013404E000932B2D01D125780134002E61D0102E07D1302D05D12578782D53D1657810260234009F79427941802276
:4047000013065F1A381C311CFFF782FE381C0491311CFFF739FE0023021C181C03994F1979784F0701D5303D07E003270F4017D05721012F00D137216D1AB54210DA591C75
:404740000BD0904207D802D1049B9D4203DC70430123281801E001256B4225780134DDE7009E591C0BD1774277418020059B029E01062225C81B1D60002E08D118E0002E01
:4047800000D04042029A002A12D0002B01D0013C0194019C029A14600AE0582DA9D03025002EA9D10826A7E7302D9FD00A26A3E707B0F0BD8801002038B5131C044A051CC5
:4047C0000C1C1068291C221CFFF76CFF38BDC04684010020F7B501919168071C141C002940D190239289D80002423BD02568216963696E1A58000096C6180098F50FAB1945
:4048000001305D10A84201DB009D0235381C53050FD5291C00F03EFB061E13D02169009AFFF79DFEA7891649802239401143A18111E02A1C00F084FB061E0CD1381C2169E1
:4048400000F0E0FA0C203860A58940263543A5810124604213E0009B6561F018ED1A26612060A560A668002E08DD694627680A793A70A3680137013B2760A3600020FEBDD2
:404880007FFBFFFFF0B5A1B0049007938B890E1C171C19060FD53269002A0CD1402100F0F9FA30603061002803D1049C0C262660D6E04020706108AD00212024302369616F
:4048C0006C76AB763C1C2278002A04D1E01B069019D003970FE0252AF8D00134F3E70399321C09780498FFF775FF039A01320392013000D1AFE003990698CB1B8342EEDB86
:404900000D9F3A180D922178002900D1A3E001206A4600234742633201342B60EB606F60AB601370AB65504F2178381C052200F0FBFA002807D0C71B2B680120B8401843BA
:4049400028600134EFE72B68D90603D568462021633001701A0703D56A462B276332177021782A2901D00B9B0EE0079A1068111D0791002801DB0B9004E00222474213439A
:40498000EF602B60013409E020783038092804D80A277B4301341B18F6E70B9323782E2B18D161782A2909D1079B02341A68191D0791002A0DDA012042420AE0013400221E
:4049C00020783038092804D80A277A4301341218F6E70992254F2178381C032200F0A4FA002806D02B68C21B4021914019432960013421781E4806222976671C00F094FA50
:404A0000002817D01B4800280BD12868079C0723C10501D5E41800E007349C430834079414E007AA00920498291C321C124B00E000BF07E007AC00940498291C321C0E4B22
:404A400000F08CF8059005994A1C04D00D99059A8C180D9436E7B589690601D40D9801E00127784221B0F0BD90720000967200009A72000000000000D5470000F7B5151C37
:404A800001930A698B6800900C1C934200DA131C201C2B6043300178002901D001332B602668B00602D52F6802372F602268062616401CD0261C4336377822683E1C731EA9
:404AC0009E4192061CD5A319181C40303021271CC17045373A784133DA70023610E0617E0098019A089FB847013006D00136E3682868191A8E42F2DBDCE7012040422CE002
:404B00000027B7420ADAE119433109780098019A089B98470130F0D00137F2E72B68256806212940E6680025042903D1F01AC743FD170540A2682669B24201DD931BED181C
:404B40000027AF4208DAA17E0098019A089EB0470130D2D00137F4E70020FEBDF0B50D1C8BB0433507930590069204950A7E0C1C109B6E2A00D1A8E012D8632A24D009D812
:404B8000002A00D1B1E0582A00D0C1E045310A707D4D51E0642A1FD0692A00D0B8E01BE0732A00D1A5E009D86F2A2BD0702A00D0AEE00A68202616430E6038E0752A21D091
:404BC000782A00D0A4E032E018680E1C051D1D600368423633709EE026681F68300606D4750604D5381D186000203D5E02E03D1D1D603D68644B002D3BDA04992D226D4275
:404C00000A7036E027681E683D0605D4780603D5351D1D60358802E0311D196035685A4B207E039308276F281ED00A271CE0271C45377820554D38701A682668111D03955A
:404C40001960300603D4750601D5158800E01568F00702D520231E4326601027002D03D12668202086432660261C43360022327001E003930A276168A160002903DB206896
:404C8000042398432060002D02D1049E00290ED0049E281C391CFFF7BBFB039A013E515C281C3170391CFFF76FFB051EF1D1049B9A1B2261082F33D12768F80730D560686D
:404CC00090422DDC013262602AE008681E684969050606D4450604D5351D1D603368198003E0321D1A603768396000202061049E16E01E68311D19603668301CFFF792FC4E
:404D000065682061A84200D925612369636004E0261C4236327001212161049F00223A7007990598009109AA211C069BFFF7A6FE01300CD0351C2269AB1B93420ADA297838
:404D40000598069A079FB84701350130F3D10122504217E02668B10705D4099BE068984210DA181C0EE00025E7680998391A8D42F3DA617E0598069A079EB0470130E6D0E6
:404D80000135F1E70BB0F0BDA1720000B272000030B5051C9BB0141E04DA8B210122016050421DE082229200684600910491002182818C4200D0611E0122504202910591FD
:404DC00069461A1CC8811E9B281CFFF75BFD421C01DA8B232B60002C02D0009C002525701BB030BD73B5141C054A061C0D1C1068311C00932A1C231CFFF7CAFF76BDC046F5
:404E00008401002030B5002940D004390B68002B00DAC9181E4A1368141C002B02D14B60116033E099420FD20D684A199A4205D110682B1855680B604D6000E04B602160F7
:404E400024E08A4203D8131C5A68002AF9D11D685C198C420BD10C682D1958191D60904214D1116852686C181C605A600EE08C4202D90C21016009E008680D18954203D164
:404E800014685268001908604A60596030BDC046080C002070B50323CD1C9D430835061C0C2D01D20C2501E0002D2DDB8D422BD31C4A1368111C1C1C002C12D02068421BE5
:404EC0000CD40B2A02D92260A41815E0A34202D166680E601CE065685D6019E0231C6468EAE7301C291C00F051F8421C0CD0C41C03218C43844201D1256009E0211A301CDC
:404F000000F044F80130F7D10C243460002008E0201C0B300722211D9043431A01D05D42E55070BD080C002000B5C9B28218904204D003788B4202D00130F8E7002000BDF5
:404F4000F8B5061C0C1C151C002904D1111CFFF7A1FF041C18E0002A03D1FFF753FF2C1C12E000F025F8A8420ED2301C291CFFF791FF071E07D0211C2A1CFFF7F0FA301C17
:404F8000211CFFF73FFF3C1C201CF8BD38B5074C0023051C081C236000F014F8431C03D12168002900D0296038BDC046540C002004390B6800B5181F002B02DAC858191863
:404FC000081F00BD0A4A00B51368002B0CD018186946884202D81060181C00BD054B0C2201201A604342F7E7034B1360EFE7C0460C0C0020540C0020580C00200000000009
:4050000002000000BA000000A55200000000000024000000000000005702000000000000D8070000200000001A0000000102030055490055415254002E5300006053000013
:405040000000000001000000000000006B530000000000000200000000000000765300000000000003000000000000005B53000000000000000000000000000000000000F5
:40508000000000000000000000000000825300008F5300000000000001000000000000009B53000000000000020000000000000001530000000000000300000000000000F1
:4050C000A8530000000000000400000000000000AE530000000000000500000000000000B9530000000000000600000000000000C753000000000000070000000000000078
:40510000D35300000000000000000000000000005B53000000000000000000000000000000000000000000000000000000000000BD19000000000000010000005517000058
:405140008C51000000000000251200002F560000351200001D530000C911000021530000491100002F560000911100002F560000E11100002F560000791100002F56000005
:40518000611100002F560000010300020000000025530000BD19000000000000010000002E5300001D1900000000000000000000FD5200001D16000000000000000000006A
:4051C00037530000291000005927000000000000C852000099140000000000000000000044530000A112000000000000000000004E5300003D10000000000000000000006D
:405200005B5300000000000000000000000000000000000000000000000000000000000055504752414445204D4F44452000526561647920746F20726563760020662F775F
:40524000207570646174652020002531642E2530326400253032642E2531640025303364006D005600576800416800570041002D2D2D2D7F00202020202020002043414C13
:405280004942524154494F4E20002052656D6F7665204C6561647300DF3A204E657874002041646A2E20766F6C74616765002041646A2E2043757272656E7400506C6561B6
:4052C0007365207761697400436F6E747261737400DF3A20446F6E650021204F56455254454D502021002120554E444552564F4C54202100DF3A205265736574004D696E5B
:4053000020566F6C74616765004F4E004F464600BE00BF007365742025640D0A005345540041435400432F43204C6F616400526561646F75747300526573657420546F74C0
:40534000616C730043616C6962726174650055706772616465204D6F64650045584954004D61696E20646973702E004C65667420646973702E0052696768742064697370E5
:405380002E0043686F6F73652076616C7565005365742043757272656E74004163742E2043757272656E7400506F77657200526573697374616E636500546F74616C206304
:4053C000757272656E7400546F74616C20706F776572004E6F6E6500762568642E2568640000000047560000C11F0000F95200008D2100004A560000E12100004F560000E9
:405400002522000054560000792100005A5600003121000062560000EB1D000067560000D12000006D560000A51F000075560000511F00007A560000E91F00000D0D0D0DA3
:405440000D0D0D0D0D0D0D0D0D0D0D0D0D0D0D0D0D0D0D0D0D0D0D0D0D0D0D0D0D0D0D0D0D0D0D0D0D0D0D0D0D0D0D0D0D0D0D0D0D0D0D0D0D0D0D0D0D0D0D0D0D0D0D0DEC
:405480000D0D0D0D0D0D0D0D0D0D0D0D0D0D0D0D0D0D0D0D0D0D0D0D0D0D0D0D0D0D0009040D0D0D0D0D0D0D0D000D0D0D0D01000D07030D0D0D0D0D0D0D0D0D65727220C7
:4054C00075766C6F206D757374206265206265747765656E203020616E642025640D0A0075766C6F2025640D0A0076657273696F6E202568642E2568640D0A006F6B0D0AE5
:40550000006572722063616C2065787065637473206174206C65617374206F6E6520617267756D656E740D0A006572722063616C3A20756E7265636F676E69736564207300
:405540007562636F6D6D616E640D0A0063616C204F2025640D0A00696E666F20756920737461636B2025640D0A00696E666F20636F6D6D7320737461636B2025640D0A007E
:40558000696E666F206865617020667265652025640D0A00696E666F206665742025642025640D0A00657272206D6F6E69746F722065787065637473206174206C65617344
:4055C00074206F6E6520617267756D656E740D0A00657272207365742063757272656E74206D757374206265206265747765656E203020616E642025640D0A006D6F646581
:405600002063630D0A00726561642025642025640D0A0065727220556E6B6E6F776E20636F6D6D616E642027252E3773270D0A006F76657274656D700D0A00756E646572E7
:40564000766F6C740D0A00626C006D6F64650072656164007265736574006D6F6E69746F720064756D700064656275670076657273696F6E0075766C6F0063616C0000005B
:405680002C017102D5032205D005790615077907010000E0070002E000E0A0000060E0100009A060E0C0E0E0C080E0C0E0003D03800080806003E00A00201A402080004031
:4056C0000D8000040000F000F0400002E0F0F0801BC00020232033E01000201B40234003E01023600040462001600040086014E00800407F4000408FE00D00E11B1301602C
:405700006021116001020000C0E1024300A02019E00F00E1054701C080415400C021772002E0100000E0217B2067202BE00AAB20DB0040201D1160E030647A741A0C071EE0
:405740000A01081A040A0E0EE0012B41050400C0C0C0A020261850E030702830180A143C0F04000F010C050D0601030F000002802E00FFA001C0000602040207000C0740D2
:4057800027130E05090F1830181E30607070E0FF40FFC0FF80FF21682002C0001504060E00040F0A01180A1E28101E6030F4F2C0E080C0207DE2013302000000010000E002
:4057C0000700027F007F4000033F7F7F0CE00500011C1C20020F3C1C3C3C7C2C277C6F47676F4703074F803D021E013F202F4033006DE00800026E6D6F400002266F6F803A
:405800002B0261006140000820616100001F203F7F2039203B00604000020020604023013F1E201020020261617E4029E00600017E6160320B1E7F3F00001D003D3D7D7DEE
:405840007D2003E008762000209160000200007EE014536024200040FBE00D00E11013E00400040F070F0F072003030000030440BF4000020C0C77E0042321462145002C42
:405880002147007CE10847013F1F20F4210E0160602002E01000017F604023402BE007AB0F030408033F5FCFFFFCFBF1FDC0A070E0201F00802003E0010004FEFEFFFFFF3D
:4058C000400305FFFF01C13AF5E00118E00E0000FFA001E0170001FF01205000E12055200020630100FEE0063020850FE0D0A8F0FDFE7AFF1F274F3F000300078021010084
:405900000002000300E00C0104F80300FBF82001012063E0010104E02360E3C0200104E00300E3E02001E00339E00B13400109E00310E3F0E3F0F390B3E009014017401F33
:4059400040276057205FE0016D0720630003602320E3E0090100E0208303C00320C34003400B402BE00701E013BF406F40BFE0076F404B405307D02308FBF0DBD0FB400B80
:405980004013E0085B2117405F4047E0030101F0F32001020300F3E00313E00301002020E5E007CD01E02340618093205503FBF82360E10573201B408702C0C3A02177039E
:4059C000E0E320C32041A00306608360E340432060CFE003011F030F051F7FBF1FFFFEFDF8FEE0D0B8F0800080C0000080000817071F3F1F1F3F107F3F7FFFF0FF6EFFE058
:405A0000C0E0E0C080C0C080401C20030280C040401102F0E0E02002400320256003400BC003202102804080202F2055128000C0C0C0A0C0E0FFD0FFFF7EF1FF3F7F7F7F37
:405A40002060033F000F10401E40751280F0E8F4F8FEFDFFFF3F5FAF7F0136033B0030E0030101003002008000E00C010407800087072001010486E001011107840287031F
:405A8000870383038004830793379714B6E00101071FB416BF1F8F1FBFE0074DC047010081E00901405F401F40332009E0000BE00301406F040785038705E0020120296016
:405AC0002B60870083E005A3C00140572025605BC001E00313401B400FC01B00002000000740004006400320000903000403070307070406E00501201A60232032E00400D7
:405B00002015402CE0082FC001C04F0005E00201200A600040486008E0063F407F403702020502202BE003392038200202030603603BE00B0000012002030183030321438C
:405B400020C51F8E070E0F960F1E0C1C1E3C183C3C7838357871FB70F9F3E763F7E7CFEFEFFFCF01CEFFE00300007F200C007F8001007F4007200AE004001FCFFFEEFFE7E1
:405B8000EFC7E7F3E375F379F7FAFF7CBB38FF1C3C3A3C1E0C0E1E0E078F0F0B0707838F03830583010381812088208AE00B0001000002000100E0F50100FFA0010080E006
:405BC000B101018000200319C0C0C0E0C0E0E07060B0F8383854381C0E3C1C0E070F0F07030320020787078307838783C7200011E3C6C7E7E7C2F7F7E6EFF7FFFEF6FFFFEF
:405C0000FFFE2003E003000A7FFF3F5F3FFF0F00160F00E0010007060F170A3F7F3F9FE003288000403E204613F7EFF6FFE7C7E2E7C7C3A6C783C787C783070387407A13CB
:405C40000707030F0E0E151F1C3C0A1C3870387870E0E0F020A608E080C080C000008000010000E0F6000001E0B5010F010602031F2F7F7FF96797FF00018001E103CD1002
:405C80001CE62A7EFEFFFEFEFFE71AFF070307870320040003400201030120050A0B071F0F2F1F7F3FBF7FFFA0000FC7ABCFDF8190CA9380BEDCFC80BEDFFF200300FE20D1
:405CC00003400780030ABCDAFC81C39287EFD787EF80320D7FFF3F7F1F7F1FEF07FF07FB03FF4057205F206520000503E797FFFEF7407D04FE043A489CE003970B00816174
:405D0000C1FF7927FF0F173E3F02008C00E0FF01E01901000CE08D0110040A0C0E0F00090F0A0D011F040A060600E000000503017F8F13FF40000380708CCBE00016E00660
:405D4000000D0100020107030B070F070F0F0F1F4002001F2000003F2001021F3F3F40064005021F2F1F601A201B070F07070F0307010720380001604A00FFA001E000009D
:405D8000058000E09F98FE4077030F71963FE00016120000040EF004FE09FA13FB0A05070F0004020C02000100E0FF01E01101007FA0010060E0AD011F01600061036101BD
:405DC00063066307670C642A7E781020784078907070007870002010600000E032001B20104070708FD8FF58E7B0FF38401C780C06060E03060707010301036151E00700D6
:405E000000FFA001600001000000A5A5A5A5A5A5A5A5A5A5A5A5A5A5A5A5A5A5A5A549444C45000000300F40800000310F40000300400F40000484C10032010000000404CA
:405E40000012608400000A121004569A0905072738488400000004168000801204008412000400160000081D7F0702E08000080000220000510043021000000EDCBF3DFF2A
:405E8000FFFF2200F008040000000000022004040404000000010000C00040011011C00100114001400100000000000000000000000000000000000002000F4004300F4049
:405EC00029310F403D320F403D330F4005400F4005410F4003420F4005430F4002600F407201810F38A03E5058045F010514060207400C800D020E281510171518051D840A
:405F00001E8624282507261427282D902E012F2037293D023E103F80458247284D085642575467016E116F55748075807702C0F0C2F0C470CAF0CCE0CEB0D0F0D81000CD0B
:405F400004100502066008720A080C4D0E800F04101212641680170318011A321C021E0D1F0120CD2304248D264028CD2F03328034703504360F37033AA03E043F105409DC
:405F8000580459045B045F01800E8102830D8509870689038B0C9005920A94039604A404A609AD05AF0AB00FB70FB802BB80D440D804D904DB04DF010102040407490906F6
:405FC0000C010D0A0E090F201308171619021C141D101E011F20230126A028012C012D023680370838283B013D485D085E825F106011630866806D4086848A608B108C0155
:406000008D088E8090289204970199089A409B5F9D10A106A245A314A720B405B504C0F8C2FCC474CA98CC50CE57D6F0D81EE260EA1057805E805F02D440D6A08A408F8075
:40604000A640A780B7026C407008DC035402A002B44AD604EC0A01011001000000140000001400000002000000020000001400000014000004031202700500003860AB4413
:4060800012A0C86654484025386538602FAF0000000000000000000000000000000000000000000000000000000000FEFE000000000000000000003333000000000000008A
:4060C000003E3E00003E3E000000000000000000000000000000003030F07E37B0F83F31300003233F0703333F03030300000070F88C8CFF0C0C180000000018303030FF1B
:4061000031311F0E00003C7E4242FEBC80404040000000010101001E3F21213F1E00000080DC7EE6C60606808000000F1F383031330F3E37230000000000003E3E000000EA
:40614000000000000000000000000000000000000000E0FC0F010000000000000000073FF08000000000000000010FFCE0000000000000000080F03F0700000000000000DB
:40618000844830FE3048840000000000000000010000000000000080808080F8F8808080800000010101011F1F0101010100000000000000000000000000000000C0783842
:4061C0000000000000000000000000000000000000000000000303030303000000000000000000000000000000000000000038380000000000000000000000C0F03C0E0224
:4062000000000080E0781F0701000000000000F0FC0E06C6C60EFCF0000000071F38303030381F07000000000C0C06FEFE000000000000003030303F3F3030300000000CC9
:406240000606060606CEFC7800000030383C3637333130300000000C06C6C6C6C6EEFC38000000183030303030391F0F0000000080E0300CFEFE0000000000070706060676
:406280003F3F060600000000FE7E666666E6C680000000183030303030381F0F000000F0FC9CCEC6C6C68C00000000071F39303030391F0F0000000606060606E6FE3E063C
:4062C0000000000000203C1F0700000000000038FCC6C6C6C6C6FC380000000F1F39303030391F0F00000078FCCE868686CEFCF00000000018313131391C0F0700000000D4
:406300000000E0E000000000000000000000383800000000000000000000E0E0000000000000000000C0783800000000000000008080C040606020300000000103020604DD
:406340000C0C08180000006060606060606060600000000606060606060606060000003020606040C080800000000018080C0C0406020301000000000C0686C6E67E3C00F9
:40638000000000000000373700000000000000F0FC0E03F1F90BFEFC000000071F386043474407070000000000E0FE1EFEE00000000000303E0F0706070F3E30000000FE03
:4063C000FEC6C6C6C6C6FC380000003F3F30303030391F0F000000F0F81C0E060606060C000000070F1C383030303018000000FEFE0606060E1CF8F00000003F3F30303042
:40640000381C0F07000000FEFEC6C6C6C6C6C6C60000003F3F30303030303030000000FEFEC6C6C6C6C6C6060000003F3F00000000000000000000F0F81C0E06C6C6C6CC64
:40644000000000070F1C303030301F1F000000FEFEC0C0C0C0C0FEFE0000003F3F00000000003F3F00000000060606FEFE060606000000003030303F3F303030000000007A
:4064800000060606FEFE000000000018303030301F0F0000000000FEFEC0E0F0180C06020000003F3F000003071E3830000000FEFE000000000000000000003F3F303030F8
:4064C00030303030000000FEFE1EF080F01EFEFE0000003F3F00000100003F3F000000FEFE0E78C00000FEFE0000003F3F0000010F383F3F000000F0FC0E0606060EFCF0C3
:40650000000000071F38303030381F07000000FEFE86868686CEFC780000003F3F01010101010000000000F0FC0E0606060EFCF0000000071F38303070F8DF07000000FE26
:40654000FE86868686CEFC780000003F3F01010101071E3C200000387CCEC6C6C6868C00000000183030303030391F0F00000006060606FEFE060606060000000000003F00
:406580003F000000000000FEFE0000000000FEFE0000000F1F38303030381F0F000000067EF8C000C0F87E060000000000033F3C3F03000000000EFEF000E060E000F0FE06
:4065C0000E0000073F3C0700073C3F07000000020E1EF8E0F81E060200000020383E0F030F3E3820000000020E1E78E0E0781E0E020000000000003F3F000000000000067A
:40660000060686C6F63E1E06000000303C3E373130303030000000000000FFFF03030000000000000000FFFFC0C00000000000020E3CF0C000000000000000000000010752
:406640001F78E08000000000000303FFFF0000000000000000C0C0FFFF0000000000002030180C06060C1830200000000000000000000000000000000000000000000000AD
:406680000000C0C0C0C0C0C0C0C0C0C0C0000000010306040000000000000000000000000000000000000000603030303070E0C00000001E3E333333331B3F3F000000FF9C
:4066C000FF6030303070E0C00000003F3F18303030381F0F00000080E060303030306000000000071F18303030301800000000C0E07030303060FFFF0000000F1F38303055
:4067000030183F3F00000080E07030303070E0C0000000071F1B33333333331B000000303030FEFF333333000000000000003F3F00000000000000F0F81C0C0C0C18FCFCEC
:406740000000000367CECCCCCCE67F3F000000FFFF6020303070E0C00000003F3F00000000003F3F00000000303030F3F3000000000000003030303F3F30303000000000DB
:40678000303030F3F3000000000000303030301F0F000000000000FFFF0080C0E07030100000003F3F0303071E383020000000030303FFFF000000000000000000000F3F21
:4067C00030303000000000F0F02030F0E03030F0E000003F3F00003F3F00003F3F0000F0F06020303070E0C00000003F3F00000000003F3F000000C0E07030303070E0C0E3
:406800000000000F1F38303030381F0F000000F0F06030303070E0C0000000FFFF0C1818181C0F07000000C0E07030303060F0F0000000070F1C1818180CFFFF0000000034
:4068400000F0F0403030306000000000003F3F0000000000000000E0E0B0B0B030303060000000183131313133331F1E000000303030FEFE303030300000000000001F3FA1
:4068800030303030000000F0F00000000000F0F00000000F1F38303010183F3F00000010F0E0000000E0F0100000000000073F383F070000000030F0C00000800000C0F058
:4068C000300000033F3C0F010F3C3F03000000103070E080E070301000000020303C0F070F3C302000000010F0E0800000E0F01000000000C0C3EF7C3F07000000000030CC
:40690000303030B0F0F0703000000030383C3F333130303000000000808080FE7F030303000000000101037FFEC0C0C000000000000000FFFF00000000000000000000FFFB
:40694000FF000000000000000303037FFE80808000000000C0C0C0FE7F030101000000008080808000000080000000030101010103030301000000F880F884F0F084F880EF
:40698000F8000E321F210F3F3F0F310E320E00000000000000C0F0F8FCFC0000000080FCFFFFFF7F07017E3E3F1F1F1F1F1F1F3F3E7E000000000000000000000000FCFCFC
:4069C000F8F0C00000000000000001077FFFFFFFFC800000000000000000000000F8F8FC7C7C0000000000000000000000007C7C7E3E3EFEFEFEFEFE00000000000000FF24
:406A0000FFFFFFFF000000000000000000000000000000000000000000000000000000000000F8FCFC7C7E7E3E3E0000000001000000000000003F1F1F1F1F1F1F1F1F1F1F
:406A40003E3E0000000000000000000000007EFCFCF8F0E0C00000000000000003FFFFFFFFFE0000000000000000007C7C3E3E3E3E1F0000000000000000000000001F1F52
:406A80001F1F1F1F1F1F1F3E3E7E000000000000000000000000FCFCF8F0E0C00000000000000081FFFFFFFF7F000000000000000000000000000000000000000000000087
:406AC0000000000000800000000080E0F0FCFE3EFEFEE0F0FCFE3F1F07010000FFFFFEFEFE000000000000000000FFFFFF000000000000000000000000000000FEFEFEFE75
:406B0000FE3E000000000000FFFFFFFFFF003E3E3E3E3E3E3E3E3E3E3E3E0000000000000000000000003E3E3E3E3E00000000000000000000000000000000000000000000
:406B4000000000000080E0F0F8F80000000000F8FEFFFF7F0F03FC7E7E3E3F1F1F1F1F1F1F1F0000008080808080808080001F3E3E3E7C00000000000000000000000000AD
:406B8000000000000000000000003E3E3E3E3E3E3E3E0000000000000000000000003E3E3E3E3E3E3E3E3E3E3E3E00000000000000000000E0F83EFEFEFEFEFE7E1E000055
:406BC0000000FEFFFF3F0F03000000000000000000000000E0F0F8FCFC7E00000000007FFFFFFFFF81003E3E1F1F1F1F1F1F1F1F3E3E0000000000000000000000007EFCA4
:406C0000FCF8F0E00000000000000081FFFFFFFF7F0000000000000000000080E0F0F8FCFC7E00000000FCFFFFFFFF0700003E3F1F1F1F1F1F1F1F3F7E7E00000000000046
:406C4000000000000000FCFCF8F0E0800000000000000107FFFFFFFFFC800000000080C0E0F0F8D8C8C8C0C0C0C0000103070F0D090901010101C0C0C0C0C8C8D8F8F0E077
:406C8000C0800101010109090D0F0703010000000000FFFFFFFFFF000000000000003FFFFFFFFFC000000000F0F8FCFCFCFCF8F00000000000010303030301000000000093
:406CC00000FFFFFFFFFF000000000000C0FFFFFFFF3F000000000000000000000000000000000000000000000000000000000000000000FFFFFFFFFF00000000000000FFA4
:406D0000FFFFFFFF000000000000000000000000000000000000000000000000000000000000000000000000000000000000000000000000000000000000000000000080D7
:406D4000C0F080C0E0F0F8F8FC7E7F3F1F0FF8FCFFFF3F1F0701000000000703010000000000000000000000000000000000000000F8000000000000000000000000F8F8B2
:406D8000F8F8F8F8F8F8FCFCFCFE000000000000000000010103DFDF8F8F070300000000000003071FFFFFFEFCE00000000000000000000080E0F0FCFE7F000000F0FCFF71
:406DC000FFFFEFE3E0E01F070300000000000000FFFFE0E0E0E0E0E0E0E0E0E0FFFFFFFFFF000000000000000000FFFFFFE0E0E0E0E0E00000000000000000007F3F3F3FA8
:406E00003F1E0000000000000000000000001F1F1F1F1F1F1F1F3F3E3E7E000000000000000000000000FCFCF8F0E0C0000000000000000107FFFFFFFFFC00000000000044
:406E40000000FFFFFFFFFFF0F8FC000000003FFFFFFFFFFF03003E3F1F0F0F0F0F0F0F0F1F1F0000000000000000000000003F7EFEFCF8F0C00000000000000003FFFFFF54
:406E8000FFFE0000000000000000000000000000000000000000000000000000000000000000000080E0FCFFFFFF00000080F0FCFFFFFF1F07003F070100000000000000A6
:406EC0000000000000000000000000000000000000000000010387CFDFDE00000000E0FCFEFFFF1F0703FCFCF8F8F8F8F8F8F8F8FCFC010100000000000000000101DEDF09
:406F0000CF87030100000000000003071FFFFFFEFCE000000000000000000F7FFFFFFFF8C0800000000000000103070F0F1F0000000000000000000080801F3F3E3E3E3E95
:406F40003E3E3E1F1F0FE0F8FFFFFFFFFFFF000000000703C1FFFFFFFF1F000000000080C0E0F0F8F0E0C0800000000701007F7F7F000107000000E08000FEFEFE0080E0F3
:406F80000000000103070F1F0F07030100000000000000071F7FFFFFFCF0000000000000000001030707C080800000000000008080C00F0F1F1F1F1F1F1F1F1F0F0FF0FC3D
:406FC000FFFF7F1F07000000000007070301000000000000000000000000000000008080808000000000000000000F0F0F0F8080808080FFFFFFFFFF80800F0F0F0F0F0FCB
:407000000F0F0F0F0F0F8080808080808000000000000F0F0F0F0F0F0F00000000000000000080C0E0F0F8FCFEFF000000000F0F0F0F0F0F0F0FBF9F8F878381808080801C
:4070400080800F0F0F0F0F0F0F0F0F0F0F0F8080808080808080000000000F0F0F0F0F0F0F0F0000000000000000E0C0C0C0808080000000000007070F0F0F0F1F1F0000BC
:40708000000000000000008080C01F1F1F1F1F1F1F1F1F1F0F0FC0E0F8FFFFFF7F0F000000000F07070301000000000000000000000303030303030303030000000000005D
:4070C00000000000000003030303030303030303FFFF000000000000000000000F0FFFFFFF0303030303030000000F0F0F00000000000000000000000000E0C0C08080803A
:40710000800000000000070F0F0F0F1F1F1F0000000000000000808080C01F1F1F1F1F1F1F1F1F0F0F0FE0F0FCFFFF7F1F070000000007070301000000000000000000002A
:40714000000000073FFFFFFFFCF0000000000000000001030707C0C0800000000000000080800F0F1F1F1F1F1F1F1F1F1F0FC0E0FCFFFFFF3F07000000000F07070301008A
:4071800000000000000000000000000000000000000000000000000000000000080FC0F8FEFFFF7F0F03000000000F0F0F0F01000000000000000000000000000000000036
:4071C0000000000000000000000000000000000000001F7FFFFFFFF8E0C0000000000000000303070F0F8080000000000000000080800F1F1F1F1F1F1F1F1F1F1F0FC0E03D
:40720000F8FFFFFF7F1F000000000F0F0703030000000000000000000000000000C08080800000000000000000070F0F0F1F000000000000008080C0C0E01F1F1F1F1F1FE3
