:400000000010002011000000750200007502000008B500F0ABFB00F02FF9000010B572B680220021D200344800F04BFD8023DA000021324800F045FD314CEE20314B01029C
:40004000992221601A603049C024304B2204802008602F4C1A60D8202E4B01010A2221602D481A602D492E4A02240860992314602C492D4A18042D4B086010601878062105
:4000800004431C701C782A4A0C431C7010688023DC0204432749284B146008781978274B141C1A78172A05D9254A58789978033B9342F6D1234B244A18602448016019210A
:4000C0001160052000F014FC214B224918780860052000F0A1FC22681F4B2048134023608021132404600B061D4A1E4C1E481F4913602360086010BD00300F4000400F4092
:400100000C000140100001400000044008000440080304400004044031040000080404401804044000500F4030500F4000700F4000010B40CCF1FF0FCDF1FF0FC9F1FF0F3D
:40014000BDF1FF0F1CFF0B402CFF0B4020FF0B40E5F1FF0F28FF0B40FFFFFBFF0802024008010B4004010B4010000C800001024010B5064C2378002B07D10548002802D064
:40018000044800E000BF0121217010BDF000002000000000DC0A000008B5084B002B03D00748084900E000BF07480168002903D0064A002A00D0904708BDC04600000000F1
:4001C000DC0A0000F4000020D00000200000000008B500F0F3FA08BD70B5061C0D1C141C002020802388AB4205D2F05C00F002FB20880130F5E7002070BD0000F7B5114CA3
:40020000071C5C4300230191151C138010262888019A904214D2002C12DB00F0E3FA002809D02C8800F044FB3E19013430702C800026044CEBE70A2000F0EEFB0A3CE6E74A
:40024000301CFEBD1027000010B5094C2368402B01D100F05BFA012000F0C8FB00F0E6FB8021002800D14021216000F04FFA10BDC000002000B5FEE770B50F490F4A013968
:400280004B1C14D0506895681468031C1E1AAE4202D040CC40C3F9E7D0681D1C5C1B844202D0002640C3F9E710320139E8E700F0D9FBFFF7C9FFFEE7010000000C0B000067
:4002C00008B500239A00032B02D80D48815800E00C490D4801338150302BF3D1FFF79EFE0A490B4B086800221A60002800D108608022D305186801210843186008BDC0464E
:40030000000000007502000000000020C0000020C800002000470000021C013830B5062822D84B06591ACC0100F088FB080A0C06191B0400164D06E0164813E0164D02E074
:4003400016480FE0164D6319DD789C785978187823020006284318430D04284309E0114800E01148241800E000246178207800020843022A04D0032A07D0012A06D104E0B7
:40038000020A0302134398B200E000BA30BDC046D87F0000D27F0000C17F0000C57F0000C97F0000D67F0000D47F000070B5041C211C0220FFF7B0FF211C061C0320FFF722
:4003C000ABFF751CE9010D18211C0220FFF7A4FF0023421CD201191CAA4209D21078461EF6B2FD2E00D80121C318DBB20132F3E7E401074E604285195B422A78DCB2944220
:4004000001D0062002E00029FBD0002070BDC046C07F0000F0B50E4B0A1C8C1A055D08242E1C5E405B08F70702D50A4F7B409BB2013CE4B26D08002CF2D1013A92B2002AA4
:40044000EBD1D84381B20E02B0B20F0A3843F0BDFFFF00000884FFFFF0B5A24CA544FFF7B7FE62B6002601960296002726AD05AC9621281C4900221CFF23FFF7BFFE002879
:40048000F4D12188042306292BD92A78012A28D1EB78AE781C0234432A19137956790393E31D9C4603238C451BD891790423172917D1E21891B2002902D0281CFFF7AAFF1C
:4004C000039936023143082381420AD131E0019A012A00D003E1012C00D000E10C23002E3FD00026694699310B7001206B469A3328700022301D6C461E705A7081B2281CD5
:40050000E682FFF787FFBCA9774A8B199918774A08709918764A000A08709B181634172107361970281CB1B2221C9623FFF754FE9CE7992327A86B440678187831380B28E8
:4005400001D90523CDE700F083FA1A002900FCFFFCFF7200FCFF7600870040009600BB00C2FF301CFFF722FF0C230028BAD127A86049382200F09CFA331C3826B2E7019EE1
:40058000012E00D0ABE0002C00D0A8E0201CFFF70DFF27AA4142414111708EE00198012800D09CE0012C00D099E0002E00D096E0514B1968FF230A88AB71D409200AEE71DF
:4005C000331C2C71687104268CE70198012800D085E0022C00D882E071A9C8192639E21E3F19FF3900F064FABAB20027832A74D19E246C449D2623786E443178029A1F0295
:400600000F43002A0AD1111C06A8802200F059FAFF2006A900F07CF901980290381C71A900F076F9002856D000270A2359E7019C012C54D119E70198012850D196233E19B4
:4006400059008E4249D871AAD01927A9221C00F02FFAB7B2002344E7002C40D106AB274A191C41CA41C127AA41CB41C201260196231C082636E70198012830D1032C2ED194
:40068000AB796A791902114334020819C00100238022013A145C1B19DBB2002AF9D1002E08D1FF2906D1164E164A31781478581A031BDBB25E4226A90E710023012611E73B
:4006C0000020FFF773FE002802D10F4980240C6000F080F903E0071CBCE7032301E70423FFE6C0460CFDFFFFACFDFFFFADFDFFFFAEFDFFFFC07F0000D4000020E00A0000C2
:40070000D07F0000D17F0000C0000020154810B50368002219680B1C013BBF2B03D01C781219D2B2F8E740680478A21AD3B2A34201D1002902D1002000F04AF90020FFF747
:4007400035FE094C2168221C402901D0002803D000231360FFF780FE8020206000F03AF910BDC046D4000020C00000200C4B10201A6810B502400B4900D10A600C68802C42
:400780000DD100240C600120211CFFF7C5FDA04205D0211C0120FFF7BFFDFFF7BBFD10BD00030B40C0000020034B802219681006084318607047C0460000064010B5054CE2
:4007C0002378002B03D100F02BF801202070FFF7EBFF10BD0C010020014B18687047C04640030640024B0F21186808407047C0460803064000B5044B0F211A681140082924
:40080000F9D0024B186000BD0802064040020640024B002218681A607047C046C80F0640124A134B134810B51A6000230360124A124C134801212160026012480724046075
:40084000114C1248236001601149124C0A601248124A134913602360124A0360124C13480B6013602360036010BDC0460B00000200000640400006400700008048000640B6
:400880000003064004030640100306404400064000020640880E0640C80E064004020640480F0640080F0640C80F0640880F064010B5FFF7ADFF041CFFF794FF094B0028B3
:4008C00003D01C60FFF788FF02E0074A10681C60064CD82321689A0022600A401402204310BDC046C80F064040030640C00F06400230800804D0C0460138FDD1C046C0461B
:400900007047EFF3108072B6704780F310887047F0B50023A7B0071C0193FF2845D8994243D0244A244C04AE26607F25049206A88022756000F0BCF8204D214929602B68D9
:40094000002BFCDB2068A0210290029A0B069A4201D1002004E00298020F0F2A02D10920019003E021680B0F0A2BFBD1019A002A1DD12660134E3F0437430497FFF7C1FF9B
:400980001149124A0B6803932A602F68002FFCDB039DA0260D60FFF7B8FF2468310602940298884203D0029800E001200190019827B0F0BDB6D700000800004004000040DF
:4009C00004000080B6D8000008010B400500008001BE7047034B04491A6890B2084318607047C0460CED00E00400FA0510B5041C8022074B1002844205D91868FFF778FF5F
:400A000004496418F4E758686043FFF771FF10BDDC0000200080FFFF08B5034B197A4843FFF766FF08BDC046DC000020024B18680107C80F7047C0460404044002B4714695
:400A400049084900095C49008E4402BC7047C04603B47146490840004900095E49008E4403BC704770B50E4B0E4D0024E81A85101E1CAC4204D0A100725890470134F8E7BB
:400A800000F032F80849094A0E1C541AA5100024AC4204D0A300F05880470134F8E770BDF40A0000F40A0000F40A0000FC0A000010B50023934203D0CC5CC4540133F9E76E
:400AC00010BD00B58218031C934202D019700133FAE700BD400B000092000000000000009311A60411140101F8B5C046F8BC08BC9E46704799010000C1020000F8B5C04691
:400B0000F8BC08BC9E46704771010000200B0000D000002020000000280000000000000000000000D40A0000D80A00000000E02EC05D00001800000000366E010000000025
:400B40000000000000000000000000000000000000000000000000000000000000000000000000000000000000000000000000000000000000000000000000000000000075
:400B80000000000000000000000000000000000000000000000000000000000000000000000000000000000000000000000000000000000000000000000000000000000035
:400BC00000000000000000000000000000000000000000000000000000000000000000000000000000000000000000000000000000000000000000000000000000000000F5
:400C000000100020110C00007D3300007D33000008B5024B83F3088802F0B2FB00100020F8B572B6002406236343704D0134EE187279707831793778B3781202F67800028D
:400C40000A4338431904084337063843002103F07BFB032CE7D1291C12316548802203F06AFB0023191C634AFF25141C143418593C32061CAE434F00C4B2351CD219002C2C
:400C800007D0167857787619013C3770E4B20232F5E7C0B204330918282BE4D1564A574B574C584D584F59491A6099262C604F20574A584B584D3E600F240860574F5849A5
:400CC0001A6003262C608720564B574C3E603C220860564DD82756491A6038012260554A2E60554B0860554C554D56481660C0270E2655491E6002222C6093260760534BCF
:400D0000A02553480A6034042F035249524E1C60524D07609924524F524831602304F021514C2B600E033B600360504B26601D7806272A431A701A784D4E3A431A70306824
:400D40008021CC0204434B4B4B4D346018784B4F29783A78172A05D9494C7878B978033FA742F6D1474B484D484F19221860296005203A6002F088FD4548464C01780520CA
:400D8000216002F0F5FD3568434B444A2B4033604348444C444B13261027202121251660076082262160414F1D608020404C414D414B320601063A60404E2160404A1D602E
:400DC000404F41484149424C424D434B16600760424E2160424A1D604249434D4348444C04271660076021602960F8BD5C5B000080300F40DC5B000000330003000001404E
:400E000076EE00000C0001401000014000000440920DD800080004400C0004400001044018010440000204401802044000030440080304401803044000040440B105000020
:400E4000080404400C0404401804044000500F4004500F400000701008500F4010500F4020500F4030500F4038500F4000700F4000010B40CCF1FF0FCDF1FF0FC9F1FF0F87
:400E8000BDF1FF0F1CFF0B4020FF0B402CFF0B40E5F1FF0F28FF0B40FFFFFBFF080202401C020240340202403C02024008010B4004010B400D000080000002401700008034
:400EC00040000240F301008004000240DF0100C04400024010000C800001024004012400800010403C00420040031A40C000104000031A4010B5064C2378002B07D105482E
:400F0000002802D0044800E000BF0121217010BD7801002000000000D44D000008B5084B002B03D00748084900E000BF07480168002903D0064A002A00D0904708BDC046A5
:400F400000000000D44D00007C010020D00000200000000008B5034B03481968302203F02FF808BDD4000020D84D0000034B044A04480549DA629863D96370470000002022
:400F800021290000C5290000092A000030B585B062B6274B19681C1C0A78012A01D8FFF7D9FF012002F02EFC002002F037FC0A2002F0DEFC012002F031FC0A2002F0D8FC6D
:400FC00002F078FE20680024856AE8B202F0F5FD00F080FE02F052FA02F0A0FA154B201C1C7300F027FE022000F0B4FE01F0CAF900F048FE104902250191231C00950294CE
:4010000003940E49B2220E4801F00CFF0D4A0E49231C01920095A022029403940B4801F001FFFFF7A3FF01F0B1FF05B030BDC046D40000209C0B0020B00B0020084E000087
:40104000D91B0000980B00200B4E0000B521000000B572B6FEE700B572B6FEE710B5041C88470023201C23606360237210BD000010B5041C02F047FE0020011C0B4A012379
:4010800002F04AFE00210B1C0420094A02F044FE00210B1C0620074A02F03EFE02F00EFD0023201C23606360237210BDC84F0000D64F0000E44F0000F7B5C643F61701914F
:4010C000141C064001271F4BFA21301C89009E4204DD03F093F80137061CF4E703F08EF8FA22051C9100301C03F0DEF8081C092D06DC0A2103F082F81349031C201C07E0B6
:40110000632D09DC642103F079F81049031C201C2A1C03F023F904E0201C0D492A1C03F01DF9201C012F05D10A4903F039F9201C019904E0019903F033F90749201C03F0D7
:401140002FF9F7BD3F420F00F24F0000FB4F000004500000095000002250000010B5041C01F04AF90249221CFFF7A6FF10BDC0460B50000010B5041C01F06AFA0249221C2B
:40118000FFF79AFF10BDC0460D50000010B5041C01F058FA0249221CFFF78EFF10BDC0461050000070B5041C01F004F9051C01F023F9FA21061C8900281C03F01FF8FA2278
:4011C000051C9100301C03F019F803496843221CFFF772FF70BDC0461350000010B5041C01F0E8F80249221CFFF766FF10BDC0461550000070B5041C01F0DCF8051E10DDCF
:4012000001F0FAF80A2646430849281C02F0F6FF011C301C02F0F2FF0549221CFFF74CFF03E0201C034903F0E1F870BDA08601001B5000001750000008B5024903F0D6F857
:4012400008BDC0461D50000010B5041C00F030FD0249221CFFF730FF10BDC0461550000030B585B002F09CFE051C02F0A1FE1D4B00221D499A561D4C8856A84204D1257873
:4012800018700135257006E04957914203D122781D70013A22700023E056C11742184A40032A1CDDC1178A0F01AD101802232B708310029301F09CFE0D490022A860131C16
:4012C0000868291C002501F0E5FC62570948104004D504230138594208430130207005B030BDC046D8000020104E000094010020B40B00200300008038B502F01DFE0A4CA3
:40130000A06002F021FE01F073FEE268051C831A0A2B06D9054800220068211D131C01F0B9FCE56038BDC046D8000020B40B00207FB5041C01F050FE0F4B051C5A681E1C13
:401340000A32904207D903232370A5600820756002F0B4FA0FE00948521B0068211C002301F0C6FC0028EED02178052903D168460021FFF77DFE7FBD94010020B40B00206B
:40138000F0B5061C95B0002000F054FC624D3022296808A802F0CFFF02F0B5FC0020011C5E4A012302F0B8FC002000F043FC022000215B4A012302F0AFFC002306202621E5
:4013C000584A02F0A9FC05AD00232B702878012803D0281CFFF7ACFFF8E76F68012FF8D108A801F049F9002102204F4A3B1C02F093FC0021297005AC2278012A23D0201C1E
:40140000FFF796FF00F0ECFF0F99109A401A5043464903AAFFF750FE454903A802F0C0FF04202B2103AA002302F076FC2578022DE1D1109F6068FA237843590002F0DEFE05
:401440003C181094D7E76768012FD8D100250420291C0822A023009502F032FC0220291C344A3B1C02F058FC062026212D4A2B1C02F052FC304800F0DDFB257005AC2378D0
:40148000012B23D0201CFFF753FF00F087FF0D9A0E9D801A684303AA2849FFF70DFE244903A802F07DFF002304202B2103AA02F033FC2378022BE1D10E9F6068FA247843AE
:4014C000610002F09BFE38180E90D7E760680128D8D10027391C009702200822A02302F0EFFB3B1C164A04200C2102F015FC08A8114901F0E1F808A80F4901F025F9064977
:4015000008A80968302202F05BFD301C37607760377215B0F0BDC046D4000020245000003250000040500000485000000B500000225000005650000080841E001550000007
:401540006450000070B586B0FF25041C02F0DBFB02210A1C0020A023009502F0B1FB00202021324A012302F0D7FB06202621304A002302F0D1FB04200F2105221023009521
:4015800002F09EFB0420922300959121052202F097FB284E3368986A02900299FF2508314A00D3B2009504201021052202F088FB029B812208335800C1B2009204200522C0
:4015C000912303AD02F07CFB281CFFF7B1FE2978022904D0042920D00129DED110E06D6802994B193F2B01DD3F2302E0002B00DA0023029368460822105C02F0DEFACCE7D1
:401600006B68012BC9D131680422283102A802F0D7FC00222260626004E06E680648666020600022201C227206B070BD7050000079500000D40000203D16000070B5FF25E8
:4016400086B0041C00200E1CA0230095011C082202F036FB331C2B4005D0012B09D102200021164A03E0164A02200621012302F053FB012306202021124A02F04DFB03AE0E
:40168000002333703078012807D0301CFFF750FE00F07CFB0228F5D108E071680129F4D1002000F0C7FA022000F054FB0022201C22606260227206B070BDC0468E500000F6
:4016C000815000009C500000F0B589B0041C02F01AFB0221FF230A1C00930020A02302F0EFFA00203F4A1421012302F015FB3E488668751C6A1E9541002D02D100F07CFE9B
:40170000061C301C394902F0CFFD761A04201E21374A2B1C02F000FB01236B4004205A21344A02F0F9FA301C334903AAFFF7C4FC05AF3021062003AA002302F0EDFA381C2F
:40174000FFF7F6FD3978022904D0042910D00129DCD104E07968012739404D40D6E77A68012AD3D1002D0ED11F48534283602EE07A68224B00206260236020722FE0042A0F
:4017800028D0012A1ED01C4903AA301CFFF794FC03A802F033FE03AF3918013900253A1C0D7006203021012305AF02F0B5FA381CFFF7BEFD3A78022AE1D17D680B4F7D43AD
:4017C0007619E0E77B68012BDDD1074886602560656003E07E680949666021602572201C09B0F0BDA55000009C0B0020A0860100B1500000B45000000B5000003D16000026
:40180000F0B591B005900C1C02F07DFA00200DAA107004900DAB1878012800D1BDE02068002826D002F0EAFD0C2358439E21081A4508EEB2771C0221FFB2FF250A1C0020EA
:401840003B1C009502F03CFA0020391C2268012302F062FA61225342991B0020C9B200950222A02302F02CFA012603200790069602E00422079206906F461825EA5D04985F
:40188000530007990992DEB202F0B8FC002801DD494A00E0494A301C9421002302F03CFA0498079902F000FD04980A91411A0F01E519043500272B68FAB20892002B25D0E8
:4018C000099811180A984E00F2B23E1A0B927242564102211A1C0B98331C02F01DFA286802F08CFD0C234343069A089801330132D9B283185A00D2B2002E00D0FF260096D2
:401900000B988E2302F0DCF910350EE0089E0998009331184A000699D0B2013176187200D2B20121A02302F0CBF9079901378F42C1DB2B6806209421002B02D0204A00233D
:4019400000E01E4A0DAD02F0E7F9281CFFF7F0FC2F78022F0BD0042F00D05BE7059A6C6818480026039410605460167220E06968049D681800290CDAC543EF17384048E783
:40198000049A01321301E6187168002900D141E70492049F8742F3D13CE70E99012900D03DE7049D059F2E01A419083407CC07C7059811B0F0BDC046B85000002250000002
:4019C000BA5000003D160000F0B51B4B8BB0041C0F1C1868194904AD01900431281CFFF70FFF049A16498A4203D1261C07CD07C61FE0124907AE301C4831FFF701FF07986F
:401A00000F4B984203D1271C07CE07C711E072687900019E7F186D686846F3190F302C330270E918012202F0CBFA0020206060602072201C0BB0F0BDD4000020104E0000DC
:401A40003D16000030B5041C85B01E2501A8013DFFF76EFC002DF9D102F06EFA002801D1FFF778FA034B221C5C3323CB23C2201C05B030BD904E0000F0B58BB0041C02F000
:401A800042F907AD281CFFF753FC2B78022B0CD0042B19D0012B1ED1686801281BD1464E221C683623CE23C282E0444B04201A566E68002A01D1424900E042494E431F683F
:401AC000F01900F0B7F806E069683F4F00256160276025726CE03D4D374B2E68181C2C360396039A74301178394BCF00C61935689D4215D005A8A847364905A802F050FC75
:401B00000020011C05AA02F024F905A82E2102F055FC002813D100906C21042278230CE00027381C391C06227823009702F0C8F80097042078210622A02302F0C1F87768F0
:401B4000381C02F05BFC0C2242436020D6B241428D1BEDB20020291C3A1C012302F0DCF8232E06D8002000907C2102222B1C02F0A7F80027039B01370F4ADE5D7432F000FF
:401B8000115805A8884705A802F038FC052803D105A8104902F004FC58257D43583DE9B2062005AA002302F0B7F8022FE2D168E7201C0BB0F0BDC046904E00009C0B0020EC
:401BC00088130000204E00003D160000D400002039120000225000007FB50C210022022000F0CBFF0E4B18600E4802F0C7F90E4802F090F900210D4B0D4D0E1C01AC201CE9
:401C00009847019B002B07D00822A05661680028F4D00E1C1D1CF1E7311C2B1CEEE7C046B40B002061120000F9120000451A0000791A000038B5114CC5432268E917104B22
:401C4000D5680840451B186000F008FD281AC1432368CD1705409968281C02F0CFFA01F01BFC2468281CA16802F01EFB081C616802F0C4FA01F060FC38BDC046D400002053
:401C80009C0B002008B50122064B50421860187198600020FFF7CEFF034904480B681A69026008BD9C0B0020D4000020000F1040014B18687047C0469C0B0020014B1878C3
:401CC0007047C046D77F0000014B18787047C046D67F00007FB5A020800000F07BFD061C0020011C01F056FF0024154B1548E5180022AB5E0222A95EA022C91A95001818C4
:401D0000321C6B46009500F0BDFA301C291C01F029FF0234012001F015FE102CE5D10A4E0A4C3278237801A8094902F017FB0021062001AA0B1C01F0EFFF00F07BFD7FBDE3
:401D4000B6530000C8530000D77F0000D67F0000725100000C4B10B5041C1870012809D0002807D002280DD1002001F043FC01F01DFC07E001F028FC201C01F02FFC062030
:401D800001F038FC10BDC046E8000020014B18787047C046E80000207047000008B5024801F080FE08BDC0464C5200000FB400B58BB00CAB04CB212101A8009302F0FEFE47
:401DC00001A801F06FFE0BB008BC04B01847000010B5FFF773FF041CFFF776FF211C021C0148FFF7E3FF10BD565200001FB5074801F058FE064801A9002205230B70006812
:401E0000131C00F0DBFE05B000BDC04668520000B40B002013B50E49019001A802F0F5FA0378002B03D10B4801F03CFE0FE002F047FA094C002803D101204342236006E0E5
:401E40006421FA224843910002F08AF9206013BD225000006D520000EC00002070B58EB00190314901A802F0D0FA0378041C002B01D12E4853E04078002848D12C4E02A872
:401E800035683022291C02F056FA217869291ED00BD84F2923D0642939D1019802F010FA011C02A800F050FC33E0742927D0762905D06F292BD102A800F0DEFB29E0019852
:401EC00002F0FEF9011C02A800F0DFFB21E0019802F0F6F9011C02A800F0E2FB19E001980278002A04D129691248FFF75FFF18E002F0E6F9011C02A800F066FC09E00198AA
:401F000002F0DEF9011C02A800F0D6FB01E00A4805E0316802A8302202F052F8074801F0C1FD0EB070BDC0462250000099520000D4000020E4520000C15200006852000024
:401F400010B51A4B88B0186801F006FA1849021C684602F003FA684601F0A4FD1548006801F0FAF91449021C684602F0F7F9684601F098FD00F064FC1049021C684602F0E3
:401F8000EDF9684601F08EFD022001F01BFC041C032001F017FC0A49031C221C684602F0DDF9684601F07EFD08B010BDB00B0020EF520000980B002001530000165300003F
:401FC0002953000008B50220FFF7C4FE014801F069FD08BD6852000007B50D49019001A802F013FA0378002B06D002F069F9FA218A005043FFF71EFE0648FA2399000068DE
:4020000002F0FCF8011C0448FFF7D0FE07BDC046225000009C0B002039530000F0B585B001F0CEFC00250190019B9D4237DA01F025FDC4B20A2C0FD00D2C0DD0002C2CD04B
:402040001A4F28243E1C513631783B7861437A1CCE18B05401331FE0144C207800281CD0261C5136337828277B4311491A18114800235354006803A91A1C0B7000F00AFE1E
:40208000012807D133780A4A5F430133D719184067653070054F00233B700135C4E70648064902680A6005B0F0BDC0469C0100209D010020B80B0020CC0F0640C00F064026
:4020C000023938B5021C052901D900242EE0184B0578181C5030445D60180928F5D801381C1C082818D81C1C02F030F8150507090B0D0F11130010340EE018340CE020349F
:402100000AE0283408E0303406E0383404E0403402E0483400E0083421680B78AB42D4D1501C013102F058F90028CED1201C38BD7C51000038B500F03DF9041C00F05CF92D
:40214000FA21051C8900201C02F058F8FA22041C9100281C02F052F8211C021C0148FFF725FE38BD4253000008B5FFF7E3FF08BD08B5011C0148FFF719FE08BD4F53000097
:4021800013B50B49019001A802F03FF9041C02F035F9011C201CFFF793FF002803D1201CFFF7E6FF02E043680198984713BDC04622500000F7B50120011C002200F0DDFC49
:4021C0001A4C20601A4801F04DFF01F0E5FB271C184B01AD1E6800F0FFFE174CA26D811AB14205D900F0F8FEA0650120287008E093191A1A291C3868002300F079FD0028E2
:40220000F0D028780328E3D801F0A0FF0502090BFFF790FFDCE7606DFFF7B2FFD8E7074800E0074801F03EFCD2E7C046B80B00201D200000EC0000209C0100206C53000022
:402240007753000030B541180023884214D20578441C1F2D04D80135601988420AD90EE06D09072D02D14578841C07358C4206D2601C02335B19E8E71360002001E00220EE
:40228000404230BDF0B589B002908C46161C1D1E03D018681118039100E00393002307939D4269D0029F9F4204D16046984263D1286065E0002E5FD0029A0298141C644462
:4022C0000494341C0178431C1F2916D84A1CA7180192039A0597974241D8019FDA19049FBA424BD80231401819780133217001348342F9D1059C101C2AE01F270F404A094C
:402300003902CF43E719072A02D14278831C073202320399A0180190884206D900200821914240410238181819E00498834225D21978581C7F1A0097009BB3421ED30021C9
:40234000009F7B5C6354013105939142F8D1019C049B9842B6D3A61B2E60002010E0029A111A614407AAFFF76DFF002808DB079FA41BE119296003E0032500E0022568429E
:4023800009B0F0BD08B501F005FA034801F066FA01F00EFA08BDC04625240000034B044A19781068084100B27047C046F0000020F8010020074B084808491A68037808687B
:4023C000516918419269431A5343D843C01718407047C046D4000020F0000020F8010020034B044A19785068084100B27047C046F0000020F8010020074B084808491A687D
:4024000003784868D1691841126A431A5343D843C01718407047C046D4000020F0000020F8010020F0B57C4B8DB0186801250290284200D1EAE079490A7A0C1C632A74D81E
:40244000774E0B683778191C394100205F1A01F0B9F963683678191C3A183141281C5F1A226001F0AFF93D186E4F65603A7B002A14D1FFF79FFF061CFFF71AFC331AE0684E
:402480009910694A0D18954204DC684A954201DBE56000E0E2603868FFF7CCFB00F09CFD2769051EBD4233D9FFF784FF061CFFF7A3FFEB1B01937343616903905F18381CC9
:4024C0005B4901F04DFEA26959498018A061381C01F08AFE301CFA266161B10001F08EFEFA239900071C039801F088FE47430199E2694F43BE184E49301C01F031FE276A37
:402500004B49C0192062301C01F06EFE2561E161424C257A632D75D10C2001F065F94548F023046870269C4365E0652A66D1FFF72DFC061E022E56D13A4FBB68013327D0C0
:40254000FFF7B6FB002823DDFFF756FFB96888421EDA0020FFF7FEFB0020FFF76BFB364806AC042207682270079500F041FD0022131CA060211C381C00F08CFB2F4D0323B7
:4025800069460B74286804A90022331C00F082FB022001F017F9061C032001F013F9301AC717C4197C40042C1DDD0020FFF7D2FB0020FFF73FFB204A002709AD0423166863
:4025C0002B700A9700F014FD291CA8603A1C3B1C301C00F05FFB1949022308683A1C05A90B7000F057FB332001F0FEF81148F0220468C02694433443046003E0662A01D168
:4026000000260E7205490A7A01320A720C4E029F37600DB0F0BDC0461C021A40F8010020F00000209C0B0020A08601006079FEFF407E050000001A40B40B0020B80B00202D
:4026400010021A40014B98697047C046F8010020014B186A7047C046F8010020014BD8687047C046F8010020024B00229A611A627047C046F801002010B5041CFFF7B0FE80
:40268000E061FFF78BFE606110BD38B50D1C041CFFF7A6FE011C281C01F0B0FD206238BD38B50D1C041CFFF779FE011C281C01F0A5FDA06138BD0000F0B5204E85B001238D
:4026C00003903373081C1E4901F098FD051C002000F032FF802000240106271C0191194E281C346000F0D8FE322000F051FDFFF761FE0290042000F0CFFE322000F048FDAA
:40270000FFF758FE6843029A291F9300C01A01F075FD002804DC0199884201DD271C01900134202CDBD1039D00202F613760FFF781FA02480024047305B0F0BD9C0B00203D
:40274000A5520000000F10401D4AF8B501231373041C081C1B4901F051FD051C002000F0EBFE281C00F098FE642000F011FDFFF721FE071C042000F08FFE642000F008FDA6
:40278000FFF718FE291F061C381A01F037FD4543A060781BE0607F2000F0CEFEC82000F0F7FCFFF707FE7F21801B01F027FD60600020FFF73FFA024C00212173F8BDC04693
:4027C0009C0B0020A5520000014B016119607047000F104038B50723051C184201D09D43083500F0F1FB0F4A1068002804D1141C0C3407218C4314600B490C484B68ED1879
:40280000854205D89D4203D912684D60D41800E0002400F06DFC002C01D1FEF71CFC201C38BDC0461C0200209C0A00207708000070470000014B00225A6070479C0A0020A8
:40284000024B03485968401A7047C0469C0A002078080000031C0833012243605142C36003610023816003607047002303617047436808619A684B608A609A6899605160B5
:4028800001680131016070470A68031C30B50833541C01D1036905E05C682568954201D8231CF9E75C6808614C60A16059608B6001680131016030BD4368816800B5996058
:4028C0008268536003695968814200D15A600022026118680138186000BD00B572B6FEE7064A13681868203080F30988022080F314883FBCAE4662B600BDC046A40A002023
:4029000010B58024031F64041C60043B19600349043B1960143B40381A6010BDDB2800007047000008B50C4BFF2219681004084318601968FF221006084318600749084BF9
:40294000084819600722084B026000211960FFF7C7FF72B6FEE7C04620ED00E07FA9030014E000E010E000E0F40000208022044B50051860BFF34F8FBFF36F8F7047C046BC
:4029800004ED00E072B6044B1A6801321A60BFF34F8FBFF36F8F7047F4000020044A00B51368013B1360002B00D162B600BDC046F4000020EFF3108072B67047002080F399
:4029C00010887047EFF309800E4B1A6820381060F0C044464D4656465F46F0C008B572B600F0F0FB62B60CBC116808681030F0C8A046A946B246BB4680F309882038F0C859
:402A00001847C046A40A002010B5FFF7D3FF041C00F0FAFA002803D08022034B50051860201CFFF7CCFF10BD04ED00E038B50468002C0CD0C368026C9D184368C5609D4221
:402A400000D3C460C468081C211C01F074FC38BD38B5151C026C041C002A24D0002D0CD1806801F068FCA168206C65680B18A360AB4218D32268A26015E0C06801F05BFC1A
:402A8000216CE0684B422168C218E2608A4202D26068C318E360022D05D1A56B002D02D0A26B013AA263A16B0131A16338BD10B5041CFFF767FFA36C002B0EDD606A002899
:402AC0000BD0201C243000F0E1FB002801D000F03DFCA06C0138A064EDE701214A42A264FFF75CFFFFF74EFF636C002B0EDD206900280BD0201C103000F0C8FB002801D07F
:402B000000F024FC636C013B6364EDE701214A426264FFF743FF10BD38B5041C0D1CFFF731FFE16B226C081C504301394A432368012118186060A36000209B184A42A063B0
:402B4000E3606264A26485420BD12569854210D0201C103000F09AFB01280AD1FFF706FF07E0201C1030FFF775FE201C2430FFF771FEFFF713FF012038BDF8B5061C0F1C95
:402B8000002801D1002018E04C20FFF723FE041EF8D0301C78430130FFF71CFE051C206007D0E6632764201C0121FFF7B5FF201C03E0201CFFF73CFE281CF8BDF0B585B09C
:402BC000041C009101921F1C0025FFF7DBFEA36BE26B934201D3022F13D13A1C201C0099FFF736FF626A002A07D0201C243000F04DFB012801D1FFF7B9FEFFF7CFFE0120D2
:402C000046E0019E002E02D1FFF7C8FE3FE0002D02D102A800F068FBFFF7C0FE00F0D4F9FFF7B0FE606C431C01D100216164A56C6B1C01D10023A364FFF7B0FE02A801A972
:402C400000F05EFB00281DD1FFF79CFEA66BE56BFFF7A4FE201CAE420FD11030019900F0F7FA201CFFF723FF00F042FA002801D00125AAE7FFF77AFEFAE7FFF718FF00F029
:402C800037FAF5E7201CFFF712FF00F031FA002005B0F0BDF7B5041C161C1F1C0091FFF789FEA36BE26B0190934202D30025022F19D1201C00993A1CFFF7CAFEA06C431CB6
:402CC0000DD1656A002D0DD0201C243000F0DEFA002807D0002E05D00125356003E0A16C0131A16401250198FFF769FE281CFEBDF0B585B0041C0F1C019200930025FFF760
:402D000041FEA36B002B24D0201C391CE668FFF78DFE009B002B0ED1A16B22690139A163002A12D0201C103000F0B0FA01280CD1FFF71CFE09E0606AE660002805D0201CE3
:402D4000243000F0A3FA0028F2D1FFF727FE012045E0019E002E02D1FFF720FE3EE0002D02D102A800F0C0FAFFF718FE00F02CF9FFF708FE606C431C01D100216164A26CF2
:402D8000531C01D10025A564FFF708FE02A801A900F0B6FA00281CD1FFF7F4FDA66BFFF7FDFD201C002E0FD12430019900F050FA201CFFF77CFE00F09BF9002801D00125F6
:402DC0009DE7FFF7D3FDFAE7FFF771FE00F090F9F5E7201CFFF76BFE00F08AF9002005B0F0BD00B5FEE700000C4B10B51A68041C50605868844205D2986819680431FFF74D
:402E000043FD09E0D86819680431FFF73DFD04490B689C4200D20C6010BDC046A40A0020F8000020F0B585B002903C200E1C171C03930C9CFFF7CEFC051E00D198E0002CF3
:402E400003D1B800FFF7C6FC041C2C63002C03D1281CFFF7EDFC8BE0BA00A521201C01F073FA013F2A6BB80011180723994301910027F45DE81934300470F257002A02D0D3
:402E80000137082FF5D12E1C0A9C3B3600213170032C00D903242F1D381CEC62FFF7E5FC281C1830FFF7E1FC0423181BA861039A2D616D6201980299FFF722FD0B9A286094
:402EC000002A00D01560FFF75DFD2C4C2669013626612668002E21D125602169012927D114207043231C143318180136FFF7B2FC042EF5D12248FFF7ADFC2248FFF7AAFCF0
:402F0000214E301C0C30FFF7A5FC301C2030FFF7A1FC1B4A1B49E260A16009E01A494B6B002B05D120680A9AC66A964200D82560154BED6A986BDA6B013098631E1C9542F8
:402F400000D9DD6314235D43211C14314819391CFFF78EFCFFF722FD776B0126002F09D024680A9DE06AA84204D2FFF7FFFC01E001225642301C05B0F0BDC046A40A002037
:402F8000080B00201C0B0020240B00201FB500240094019402940394074808493222231CFFF740FF012806D172B6054B586305484460FFF7B7FC1FBDE32D0000565B000028
:402FC000240B0020A40A0020024B1A6C01321A647047C046240B002010B5FFF7D3FC034B5C68FFF7DBFC201C10BDC046A40A002010B5FFF7DFFC034B5C68FFF7E0FC201C28
:4030000010BDC046A40A0020F7B5364D2B6C002B3CD1354C354E61680131616062680092002A12D1E768A368E360A760686C01306864E1680A68002A02D10122514203E002
:40304000E768FB68D868416831603768009B0026BB4211D3E0680168002904D10123234F5842386008E0E2680098D768FF687B68984214D21D4A136021681422CB6A5343F5
:40308000E4186069012805D9012603E0A86C00260130A864ED6C002D22D0012620E0391D081C0191FFF708FCBA6A002A03D0381C1830FFF701FCFB6AE86B834200D9EB63CA
:4030C0001422534308491431C8180199FFF7D0FB054BFF6A1868C16A8F42BBD30126B9E7301CFEBD240B0020A40A0020F8000020F8B5FFF747FC244C236C013B2364206C39
:40310000002801D000243BE0204E31690029F9D0E268002A1ED0A069C568281C18302F1DFFF7CAFB381CFFF7C7FBE96AE26B914200D9E16314204143331C14335818391C83
:40314000FFF796FB3768ED6AF96A8D42E0D30122E264DDE7A56C002D0ED1E46C012CD1D1FFF704FC0CE0FFF74FFF002801D00127E764A36C013BA364A66C002EF3D1ECE7C9
:40318000FFF70CFC201CF8BD240B0020A40A002010B5041E02D1FFF7E9FB0FE0FFF714FF074B5A681868A4180430FFF785FB201CFFF71AFEFFF79CFF0028ECD010BDC046EB
:4031C000A40A002038B51F4B1A6C1D1C002A02D00120D86434E01C4CDA642068216802680B6B9A4204D8206821683431FDF730FF20681649006B142201F08EF8002804D09B
:40320000206821683431FDF723FFE96B1422514363185869002803D1E96B0139E963F4E7ED6BA3186A4398184268011C5568083145608D4201D16B6843604068C2682260BA
:4032400038BDC046240B0020A40A0020425B000038B50C4C0D1C21681831FFF715FB20680430FFF729FB6B1C06D12168064804312030FFF7FDFA03E060682818FFF7B4FD44
:4032800038BDC046A40A0020240B0020F8B5C368DD682F1C1837381CFFF70EFB104C114E206C00280ED12F1D381CFFF705FBE96AE26B914200D9E16314204143331C14332A
:4032C000581801E0201C0C30391CFFF7D1FA3768ED6AFE6A0020B54201D30120E064F8BD240B0020A40A0020034B044A596C5368016043607047C046240B0020A40A002075
:4033000070B50E1C051CFFF73DFB0E4B5A683368591C12D00C492C68486C6968A04202D001248A420AD2501A0124984206D28A1AD3183360281CFFF7D7FF0024FFF72EFB3D
:40334000201C70BDA40A0020240B0020014B0122DA647047240B002000B5002801D1064B1868026B131C1978981A80B2A52901D10133F8E7800800BDA40A002000B5FEE723
:4033800070B50F490F4A01394B1C14D0506895681468031C1E1AAE4202D040CC40C3F9E7D0681D1C5C1B844202D0002640C3F9E710320139E8E700F089FFFDF7E7FDFEE770
:4033C000010000002871000008B500239A00032B02D80D48815800E00C490D4801338150302BF3D1FDF71CFC0A490B4B086800221A60002800D108608022D3051868012197
:403400000843186008BDC046000C00007D33000000000020C0000020C800002010B500F03CFA084A084913681360084B1C682140196011687824214311601A681A6000F057
:4034400030FA10BD08000840FFFFFEFF0400084008B500F022FA074BC022196892000A431A60054B8022196812060A431A6000F018FA08BD080008400400084010B5054C1C
:403480002368002B03D1FFF7C9FF01202060FFF7DFFF10BD740B002010B5041C00F0FDF9044BFF211A688A4314431C6000F0F9F910BDC0460800084010B500F0EEF9094A93
:4034C000094913681360094B1C68214019601468F021C903214311601A681A6000F0E1F910BDC04608000840FFFFFDFF0400084008B500F0D2F9074BC022196892040A436D
:403500001A60054B8022196812060A431A6000F0C8F908BD080008400400084010B5054C2368002B03D1FFF7C7FF01202060FFF7DFFF10BD780B002038B5041C00F0ADF9C9
:40354000054B06491D6822042C1C0C4014431C6000F0A7F938BDC04608000840FFFF80FF084B80221968100608431860064A074B00210120196010601868042108431860BE
:403580007047C04600001040080F104004001040044B03211A688A431A601868024A104318607047040010400308000008B5054B1A68002A03D101201860FFF7D1FFFFF778
:4035C000E7FF08BD7C0B0020024B034A19680A401A60704704001040FCF7FFFF044BFB22196880000A400421084010431860704700010440044B10B51C6804498201201C0F
:4036000008401043186010BD080104403FFEFFFFF7B50E20032100F06FF93E490E2000F063F93D4B13221A603C483D493D4C3E4DA0263E4A3703086080232C603C4917605B
:403640003C4C3D4D3D4E3E4F18063E4B08602C603E6018688022540220433B4D186029683A4F0C432C603A4C3A4D002311263A4A236002202B603E60384E106031680127A7
:403680003943374A31603649DC20166818318701585C37400743BC469F000197052B16D0304960467F18012138600E4204D0266899408FB237432760106881070DD5802629
:4036C000770229689F40380C0843286005E08026F1056046244F0843386002CA80267700880501D5381C01E08020400139408C461E4F5E00002901D000218C466146B95335
:403700001B4F1C4E78430199C01201337050062BB9D1F7BDF937000020001A40C020001300001A407C00008004001A4018001A401C001A400400080010001A400400040074
:4037400014001A4000031A4040031A4018021A4028021A4038021A40000F1A4030001A409C5D000080001A4080021A40D40B002010270000BC0B002008B5054B8022196866
:403780001006084318600A2000F0F2F808BDC04600001A4010B5054C2378002B03D1FFF737FF01202070FFF7E7FF10BD800B0020034B802219685002084318607047C046E3
:4037C00004001A4000B5042804D8054A81008B18186801E0034B186880B200B200BDC04680011A4090021A401F230249184008607047C04620001A40014B1A681A6070471B
:4038000010021A40044B7F2219681140C201081C1043C1B21960704700000440044BFB22196880000A40042108401043186070470004044038B5041C00F02FF8054B064988
:403840001D68A2052C1C0C4014431C6000F029F838BDC0460CE400E0FFFF3FFF10B5064B06498024E4011C6088670320FFF7E2FF0348046010BDC04680E100E00000002067
:4038800000E100E0000000000230800804D0C0460138FDD1C046C0467047EFF3108072B6704780F310887047034B802219681006084318607047C04604010B40074B10B568
:4038C000041C1868002801DBFFF7EEFF044B05491A680C4014431C6010BDC04604010B4010020B4008080800024A83009B181868196070474000002038B5041C0D1CFFF7AD
:40390000CCFFA308084A99008B1803221440944019680634A2409143A5400C1C2C431C60FFF7BFFF38BDC04600E400E0034B04491A6890B2084318607047C0460CED00E0A2
:403940000400FA0510B5041C8022074B1002844205D91868FFF798FF04496418F4E758686043FFF791FF10BDFC0000200080FFFF08B5034B197A4843FFF786FF08BDC04645
:40398000FC000020034B802219681006084318607047C0460000064010B5054C2378002B03D100F023F801202070FFF7EBFF10BD840B0020014B18687047C04640030640C4
:4039C000024B0F21186808407047C0460803064000B5044B0F211A6811400829F9D0024B186000BD0802064040020640124A134B134810B51A6000230360124A124C13482A
:403A0000012121600260124807240460114C1248236001601149124C0A601248124A134913602360124A03600B60124812490424136004600B6010BD0B000002000006406A
:403A40004000064007000080480006400003064004030640100306404400064000020640880E0640C80E064004020640480F0640080F0640C80F0640880F064008B5FFF7FF
:403A80009FFF031C0020834201D0FFF793FF044BD82219689200114201D01A60002008BDC00F064010B5041C0134631E1878002802D0FFF78DFFF7E710BD000008B5034BBA
:403AC00040221A60FFF732FF08BDC046C000002038B50D1C041C002000F006FAE9B2201C00F0AEF9012000F0FFF938BD13B5041C002000F0F9F9013C01A8E82202210270F7
:403B0000447000F09DF913BDF7B5071C30200C1C161CFFF7EBFF381C18230C212038614358435F430A180D4D0D4854192A18D7197D182378002E01D0D943CBB201A8042127
:403B40000134037043708370C37000F079F9AC42EFD1012000F0C8F9F7BDC046CE5D00000CFDFFFFF8B5061C0D1C0024AC4210DA2B1BFF2B00DDFF23DFB2381CFFF7B6FF03
:403B80003019391C00F05CF9012000F0ADF9FF34ECE7F8BD13B50F2250241040644201AB204318701024080920430A4058700321181C9A70FFF78CFF13BD07B53F2101AB81
:403BC0000840812258700221181C1A70FFF780FF07BD0000F0B5354D8BB0291C0C2207A800F0A9FB07A80E21FFF772FF304E3378002B06D12C206A46107001216846FFF72E
:403C000067FF2020FFF7D9FF291C0C31022204A800F091FB04A80221FFF75AFF00242D2060433C2100F0EAFA80214A42171CC3B2E1B205A8274307704F1C174387708F1C82
:403C40000331174304340A4308214370C370077143718271C371FFF73BFF402CDFD1291C0E31022203A800F066FB03A80221FFF72FFF3078002815D1C820FFF763FE2E24A6
:403C800001A801210470FFF723FFC820FFF75AFE291C103102A8022200F04DFB02A80221FFF716FF012535700BB0F0BDBC5D00008C0B002008B500F009F9FFF78BFF08BD1C
:403CC000F0B585B001930AAB1D780F1C0092041C0098844215D2201C391CFFF75BFF3E1C01998E420AD203A804210136057045708570C570F6B2FFF735FFF1E70134E4B299
:403D0000E6E705B0F0BD07B500210091081C0822A023FFF7D5FF07BDF0B585B001900F1C029203930024019BE6B2F018C0B2391CFFF730FF029D2878002805D0311C039A15
:403D4000FFF7E2FE0135F6E70134022CEBD105B0F0BDF0B589B00590069107920025EAB20292029E059853007701C118103FCCB2FAB20023039404920193684607790399D9
:403D80007C18E0B20699FFF705FF079E3278002A26D000243078031C303B092B06D84200049B101819186218D0B20FE00299022908D12E2800D1DE20391C0022FFF7A4FE75
:403DC000022407E002242E2804D12020391C0022FFF79AFE0134E4B2032CDBD10136D5E7019E01360196022EC7D10135032DB6D109B0F0BD08B5FFF750FD084B20211A78D9
:403E00000A431A70064B1022197811431970054B19780A431A70FFF744FD08BD91000F4092000F4093000F4000B5034B19784A07FBD5024A107000BD62000F4041000F40E4
:403E400070B5051C0E1C041CAA19D0B2E3B2984204D02078FFF7E8FF0134F5E770BD000008B50A4B1878820602D509480378F8E7FFF713FD074B0122197811431970197851
:403E800091431970FFF70DFD08BDC04663000F4051000F4091000F4008B5074B0F221A70FFF7DEFF054806490378064A06480B7800231370037008BD81000F4062000F4074
:403EC00063000F4082000F4083000F4010B5054C2378002B03D1FFF7DFFF01202070FFF789FF10BD8D0B0020014B18707047C04672000F4010B5041CFFF7CFFC044BA2014B
:403F00001968C024A14311431960FFF7CAFC10BD04E400E010B5054B054910241C6008650320FFF7E7FF0348046010BD80E100E00000002000E100E0024B18680107C80F51
:403F40007047C04604040440034B082218681040C1081860C8B270471004044010B5041CFFF79BFC044BA2011968C024A14311431960FFF796FC10BD00E400E010B5054B7E
:403F8000054901241C6008640320FFF7E7FF0348046010BD80E100E00000002000E100E0024B0321186808407047C04604000440024B032218681040186070471000044006
:403FC000F0B51D4BA5B002928A1803900F1C01209A422ED8C809FC0BC1B225026E18F40104AA00200191161B051C029B9D4204D301281ED9012778421BE00028F8D1201C4C
:404000008030A74207D802998D4204D2039B595D0135315501E02278325501348442F0D1019804A900F032F8019A803E01320192DBE725B0F0BDC046FF7F000038B5041CA6
:40404000FFF72BFC054B06491D68A2052C1C0C4014431C60FFF725FC38BDC04608E400E0FFFF3FFF10B5064B06498024E4001C6088660320FFF7E2FF0348046010BDC04604
:4040800080E100E00000002000E100E0F0B50023A7B0071C0193FF2845D8994243D0244A244C04AE26607F25049206A88022756000F041F9204D214929602B68002BFCDB42
:4040C0002068A0210290029A0B069A4201D1002004E00298020F0F2A02D10920019003E021680B0F0A2BFBD1019A002A1DD12660134E3F0437430497FFF7CFFB1149124A26
:404100000B6803932A602F68002FFCDB039DA0260D60FFF7C6FB2468310602940298884203D0029800E001200190019827B0F0BDB6D700000800004004000040040000804F
:40414000B6D8000008010B400500008002B4714649084900095C49008E4402BC7047C046002934D00123002210B488422CD301242407A14204D2814202D209011B01F8E731
:40418000E400A14204D2814202D249005B00F8E7884201D3401A1A434C08A04202D3001B5C0822438C08A04202D3001B9C082243CC08A04202D3001BDC082243002803D0AB
:4041C0001B0901D00909E3E7101C10BC7047002801D00020C04307B4024802A14018029003BDC046D90000000029F0D003B5FFF7B9FF0EBC4243891A1847C046002941D012
:4042000010B4041C4C40A44601230022002900D54942002800D5404288422CD301242407A14204D2814202D209011B01F8E7E400A14204D2814202D249005B00F8E78842E7
:4042400001D3401A1A434C08A04202D3001B5C0822438C08A04202D3001B9C082243CC08A04202D3001BDC082243002803D01B0901D00909E3E7101C6446002C00D5404241
:4042800010BC7047002806D003DB0020C043400801E08020000607B4024802A14018029003BDC046190000000029EBD003B5FFF7A7FF0EBC4243891A1847C0467047C046F0
:4042C00008B500210A2200F063F908BD70B50E4B0E4D0024E81A85101E1CAC4204D0A100725890470134F8E702F00CFF0849094A0E1C541AA5100024AC4204D0A300F058FE
:4043000080470134F8E770BD1071000010710000107100001871000030B50023934208D0C55C0133CC18013C2478A542F6D0281B00E0002030BD10B50023934203D0CC5C0D
:40434000C4540133F9E710BD00B58218031C934202D019700133FAE700BD00000EB400B59CB01DAB02A904CB822202900861920009488A810122886048615042074AC88162
:4043800010681D9A019300F069F9029900230B701CB008BC03B01847FFFFFF7F7001002000B5031C1A78002A01D00133FAE70A7801311A700133002AF9D100BD00B5CAB236
:4043C0000378002B03D0934205D00130F8E753425A415142084000BD02780B7801300131002A01D09A42F7D0D01A7047031C0A7801311A700133002AF9D170470023C25CA6
:404400000133002AFBD1581E704708B5021C0023006800F001F808BDF0B500280CD11068002809D129E037780136002F0CD0BD42F9D1002B04D0201C0578441C0E1CF2E70F
:404440001460013C237018E0201C002D08D11560281C12E01E780133AE4205D0002EF9D125780B1C0134F5E7002D03D0671E0021397000E02C1C14600138F0BDF0B51E1C07
:40448000424B87B0059018680191029203900C1C2578039F082379194A7801341340F7D12D2D04D1012025780090013404E000932B2D01D125780134002E61D0102E07D19A
:4044C000302D05D12578782D53D1657810260234009F79427941802213065F1A381C311CFFF782FE381C0491311CFFF739FE0023021C181C03994F1979784F0701D5303D15
:4045000007E003270F4017D05721012F00D137216D1AB54210DA591C0BD0904207D802D1049B9D4203DC70430123281801E001256B4225780134DDE7009E591C0BD17742C1
:4045400077418020059B029E01062225C81B1D60002E08D118E0002E00D04042029A002A12D0002B01D0013C0194019C029A14600AE0582DA9D03025002EA9D10826A7E7B2
:40458000302D9FD00A26A3E707B0F0BD7401002038B5131C044A051C0C1C1068291C221CFFF76CFF38BDC04670010020F7B501919168071C141C002940D190239289D80077
:4045C00002423BD02568216963696E1A58000096C6180098F50FAB1901305D10A84201DB009D0235381C53050FD5291C00F03EFB061E13D02169009AFFF79DFEA789164954
:40460000802239401143A18111E02A1C00F084FB061E0CD1381C216900F0E0FA0C203860A58940263543A5810124604213E0009B6561F018ED1A26612060A560A668002E32
:4046400008DD694627680A793A70A3680137013B2760A3600020FEBD7FFBFFFFF0B5A1B0049007938B890E1C171C19060FD53269002A0CD1402100F0F9FA306030610028C7
:4046800003D1049C0C262660D6E04020706108AD00212024302369616C76AB763C1C2278002A04D1E01B069019D003970FE0252AF8D00134F3E70399321C09780498FFF796
:4046C00075FF039A01320392013000D1AFE003990698CB1B8342EEDB0D9F3A180D922178002900D1A3E001206A4600234742633201342B60EB606F60AB601370AB65504FC6
:404700002178381C052200F0FBFA002807D0C71B2B680120B840184328600134EFE72B68D90603D568462021633001701A0703D56A462B276332177021782A2901D00B9B4E
:404740000EE0079A1068111D0791002801DB0B9004E0022247421343EF602B60013409E020783038092804D80A277B4301341B18F6E70B9323782E2B18D161782A2909D12C
:40478000079B02341A68191D0791002A0DDA012042420AE00134002220783038092804D80A277A4301341218F6E70992254F2178381C032200F0A4FA002806D02B68C21B86
:4047C0004021914019432960013421781E4806222976671C00F094FA002817D01B4800280BD12868079C0723C10501D5E41800E007349C430834079414E007AA0092049897
:40480000291C321C124B00E000BF07E007AC00940498291C321C0E4B00F08CF8059005994A1C04D00D99059A8C180D9436E7B589690601D40D9801E00127784221B0F0BD43
:40484000D06F0000D66F0000DA6F000000000000AD450000F7B5151C01930A698B6800900C1C934200DA131C201C2B6043300178002901D001332B602668B00602D52F68EE
:4048800002372F602268062616401CD0261C4336377822683E1C731E9E4192061CD5A319181C40303021271CC17045373A784133DA70023610E0617E0098019A089FB84700
:4048C000013006D00136E3682868191A8E42F2DBDCE7012040422CE00027B7420ADAE119433109780098019A089B98470130F0D00137F2E72B68256806212940E668002590
:40490000042903D1F01AC743FD170540A2682669B24201DD931BED180027AF4208DAA17E0098019A089EB0470130D2D00137F4E70020FEBDF0B50D1C8BB043350793059091
:40494000069204950A7E0C1C109B6E2A00D1A8E012D8632A24D009D8002A00D1B1E0582A00D0C1E045310A707D4D51E0642A1FD0692A00D0B8E01BE0732A00D1A5E009D8BD
:404980006F2A2BD0702A00D0AEE00A68202616430E6038E0752A21D0782A00D0A4E032E018680E1C051D1D600368423633709EE026681F68300606D4750604D5381D1860A9
:4049C00000203D5E02E03D1D1D603D68644B002D3BDA04992D226D420A7036E027681E683D0605D4780603D5351D1D60358802E0311D196035685A4B207E039308276F288A
:404A00001ED00A271CE0271C45377820554D38701A682668111D03951960300603D4750601D5158800E01568F00702D520231E4326601027002D03D12668202086432660C6
:404A4000261C43360022327001E003930A276168A160002903DB2068042398432060002D02D1049E00290ED0049E281C391CFFF7BBFB039A013E515C281C3170391CFFF7EB
:404A80006FFB051EF1D1049B9A1B2261082F33D12768F80730D5606890422DDC013262602AE008681E684969050606D4450604D5351D1D603368198003E0321D1A60376861
:404AC000396000202061049E16E01E68311D19603668301CFFF792FC65682061A84200D925612369636004E0261C4236327001212161049F00223A7007990598009109AA6F
:404B0000211C069BFFF7A6FE01300CD0351C2269AB1B93420ADA29780598069A079FB84701350130F3D10122504217E02668B10705D4099BE068984210DA181C0EE0002525
:404B4000E7680998391A8D42F3DA617E0598069A079EB0470130E6D00135F1E70BB0F0BDE16F0000F26F000030B5051C9BB0141E04DA8B210122016050421DE0822292003A
:404B8000684600910491002182818C4200D0611E012250420291059169461A1CC8811E9B281CFFF75BFD421C01DA8B232B60002C02D0009C002525701BB030BD73B5141CB3
:404BC000054A061C0D1C1068311C00932A1C231CFFF7CAFF76BDC0467001002030B5002940D004390B68002B00DAC9181E4A1368141C002B02D14B60116033E099420FD205
:404C00000D684A199A4205D110682B1855680B604D6000E04B60216024E08A4203D8131C5A68002AF9D11D685C198C420BD10C682D1958191D60904214D1116852686C1804
:404C40001C605A600EE08C4202D90C21016009E008680D18954203D114685268001908604A60596030BDC046900B002070B50323CD1C9D430835061C0C2D01D20C2501E057
:404C8000002D2DDB8D422BD31C4A1368111C1C1C002C12D02068421B0CD40B2A02D92260A41815E0A34202D166680E601CE065685D6019E0231C6468EAE7301C291C00F0C6
:404CC00051F8421C0CD0C41C03218C43844201D1256009E0211A301C00F044F80130F7D10C243460002008E0201C0B300722211D9043431A01D05D42E55070BD900B002045
:404D000000B5C9B28218904204D003788B4202D00130F8E7002000BDF8B5061C0C1C151C002904D1111CFFF7A1FF041C18E0002A03D1FFF753FF2C1C12E000F025F8A84284
:404D40000ED2301C291CFFF791FF071E07D0211C2A1CFFF7F0FA301C211CFFF73FFF3C1C201CF8BD38B5074C0023051C081C236000F014F8431C03D12168002900D0296072
:404D800038BDC046E00B002004390B6800B5181F002B02DAC8581918081F00BD0A4A00B51368002B0CD018186946884202D81060181C00BD054B0C2201201A604342F7E72A
:404DC000034B1360EFE7C046940B0020E00B0020E80B00200000000002000000BA000000A55200000000000024000000000000005702000000000000D8070000200000000A
:404E00001A00000001020300554900554152540001030002CD500000FA50000000000000000000000000000005510000000000000100000000000000105100000000000053
:404E40000200000000000000000000000000000000000000000000001C5100002951000000000000010000000000000035510000000000000200000000000000A9500000C7
:404E8000000000000300000000000000425100000000000004000000000000004851000000000000050000000000000053510000000000000600000000000000615100005E
:404EC0000000000007000000000000006D51000000000000000000000000000000000000000000000000000000000000791A0000000000000100000001180000444F0000AD
:404F000000000000391200006B53000049120000BC500000DD110000C05000005D1100006B530000A51100006B530000F51100006B5300008D1100006B53000075110000BD
:404F40006B53000000000000C4500000791A00000000000001000000CD500000C91900000000000000000000A5500000C91600000000000000000000D65000005D10000065
:404F8000692600000000000070500000451500000000000000000000E3500000811300000000000000000000ED5000007110000000000000000000000000000000000000C3
:404FC000000000000000000055504752414445204D4F44452000526561647920746F20726563760020662F77207570646174652020002531642E2530326400253032642E81
:405000002531640025303364006D005600576800416800570041002D2D2D2D7F00202020202020002043414C4942524154494F4E20002052656D6F7665204C656164730015
:40504000DF3A204E657874002041646A2E20766F6C74616765002041646A2E2043757272656E7400506C65617365207761697400436F6E747261737400DF3A20446F6E654D
:405080000021204F56455254454D502021002120554E444552564F4C54202100DF3A205265736574004D696E20566F6C74616765004F4E004F464600BE00BF005345540084
:4050C00041435400432F43204C6F616400526561646F75747300526573657420546F74616C730043616C6962726174650055706772616465204D6F6465004D61696E2064A5
:405100006973702E004C65667420646973702E00526967687420646973702E0043686F6F73652076616C7565005365742043757272656E74004163742E2043757272656ECE
:405140007400506F77657200526573697374616E636500546F74616C2063757272656E7400546F74616C20706F776572004E6F6E6500762568642E25686400008353000039
:40518000ED1D0000A1500000D91F0000865300009D1D00008B5300006921000090530000C51F000096530000151E00009E530000991D0000A3530000411F0000A953000025
:4051C000D11D0000B15300005D1E00000C0C0C0C0C0C0C0C0C0C0C0C0C0C0C0C0C0C0C0C0C0C0C0C0C0C0C0C0C0C0C0C0C0C0C0C0C0C0C0C0C0C0C0C0C0C0C0C0C0C0C0CD2
:405200000C0C0C0C0C0C0C0C0C0C0C0C0C0C0C0C0C0C0C0C0C0C0C0C0C0C0C0C0C0C0C0C0C0C0C0C0C0C0C0C0C0C0C0C0C0C0008040C0C0C0C0C0C0C0C000C0C0C0C0100A9
:405240000C0C030C0C0C0C0C0C0C0C0C6D6F64652063630D0A0076657273696F6E202568642E2568640D0A006F6B0D0A00657272206D6F6E69746F7220657870656374733A
:40528000206174206C65617374206F6E6520617267756D656E740D0A006572722063616C2065787065637473206174206C65617374206F6E6520617267756D656E740D0AE5
:4052C000006572722063616C3A20756E7265636F676E6973656420737562636F6D6D616E640D0A0063616C204F2025640D0A00696E666F20756920737461636B2025640A63
:4053000000696E666F20636F6D6D7320737461636B2025640A00696E666F206865617020667265652025640A00696E666F206665742025642025640A007365742025640D51
:405340000A00726561642025642025640D0A0065727220556E6B6E6F776E20636F6D6D616E642027252E3773270D0A006F76657274656D700D0A00756E646572766F6C74D8
:405380000D0A00626C006D6F64650072656164007265736574006D6F6E69746F720064756D700064656275670076657273696F6E0063616C000000002C017102D50322050A
:4053C000D005790615077907010000E0070002E000E0A0000060E0100009A060E0C0E0E0C080E0C0E0003D03800080806003E00A00201A40208000400D8000040000F00012
:40540000F0400002E0F0F0801BC00020232033E01000201B40234003E01023600040462001600040086014E00800407F4000408FE00D00E11B13016060211160010200007A
:40544000C0E1024300A02019E00F00E1054701C080415400C021772002E0100000E0217B2067202BE00AAB20DB0040201D1160E030647A741A0C071E0A01081A040A0E0E41
:40548000E0012B41050400C0C0C0A020261850E030702830180A143C0F04000F010C050D0601030F000002802E00FFA001C0000602040207000C074027130E05090F18303F
:4054C000181E30607070E0FF40FFC0FF80FF21682002C0001504060E00040F0A01180A1E28101E6030F4F2C0E080C0207DE2013302000000010000E00700027F007F40002B
:40550000033F7F7F0CE00500011C1C20020F3C1C3C3C7C2C277C6F47676F4703074F803D021E013F202F4033006DE00800026E6D6F400002266F6F802B026100614000080C
:4055400020616100001F203F7F2039203B00604000020020604023013F1E201020020261617E4029E00600017E6160320B1E7F3F00001D003D3D7D7D7D2003E008762000CA
:40558000209160000200007EE014536024200040FBE00D00E11013E00400040F070F0F072003030000030440BF4000020C0C77E0042321462145002C2147007CE10847010E
:4055C0003F1F20F4210E0160602002E01000017F604023402BE007AB0F030408033F5FCFFFFCFBF1FDC0A070E0201F00802003E0010004FEFEFFFFFF400305FFFF01C13AD3
:40560000F5E00118E00E0000FFA001E0170001FF01205000E12055200020630100FEE0063020850FE0D0A8F0FDFE7AFF1F274F3F00030007802101000002000300E00C0196
:4056400004F80300FBF82001012063E0010104E02360E3C0200104E00300E3E02001E00339E00B13400109E00310E3F0E3F0F390B3E009014017401F40276057205FE0016A
:405680006D0720630003602320E3E0090100E0208303C00320C34003400B402BE00701E013BF406F40BFE0076F404B405307D02308FBF0DBD0FB400B4013E0085B211740B3
:4056C0005F4047E0030101F0F32001020300F3E00313E00301002020E5E007CD01E02340618093205503FBF82360E10573201B408702C0C3A0217703E0E320C32041A003C5
:4057000006608360E340432060CFE003011F030F051F7FBF1FFFFEFDF8FEE0D0B8F0800080C0000080000817071F3F1F1F3F107F3F7FFFF0FF6EFFE0C0E0E0C080C0C08004
:40574000401C20030280C040401102F0E0E02002400320256003400BC003202102804080202F2055128000C0C0C0A0C0E0FFD0FFFF7EF1FF3F7F7F7F2060033F000F104099
:405780001E40751280F0E8F4F8FEFDFFFF3F5FAF7F0136033B0030E0030101003002008000E00C010407800087072001010486E001011107840287038703830380048307E5
:4057C00093379714B6E00101071FB416BF1F8F1FBFE0074DC047010081E00901405F401F40332009E0000BE00301406F040785038705E002012029602B60870083E005A3DA
:40580000C00140572025605BC001E00313401B400FC01B00002000000740004006400320000903000403070307070406E00501201A60232032E004002015402CE0082FC03E
:4058400001C04F0005E00201200A600040486008E0063F407F403702020502202BE003392038200202030603603BE00B00000120020301830303214320C51F8E070E0F967B
:405880000F1E0C1C1E3C183C3C7838357871FB70F9F3E763F7E7CFEFEFFFCF01CEFFE00300007F200C007F8001007F4007200AE004001FCFFFEEFFE7EFC7E7F3E375F3799C
:4058C000F7FAFF7CBB38FF1C3C3A3C1E0C0E1E0E078F0F0B0707838F03830583010381812088208AE00B0001000002000100E0F50100FFA0010080E0B101018000200319AE
:40590000C0C0C0E0C0E0E07060B0F8383854381C0E3C1C0E070F0F07030320020787078307838783C7200011E3C6C7E7E7C2F7F7E6EFF7FFFEF6FFFFFFFE2003E003000A13
:405940007FFF3F5F3FFF0F00160F00E0010007060F170A3F7F3F9FE003288000403E204613F7EFF6FFE7C7E2E7C7C3A6C783C787C783070387407A130707030F0E0E151F2B
:405980001C3C0A1C3870387870E0E0F020A608E080C080C000008000010000E0F6000001E0B5010F010602031F2F7F7FF96797FF00018001E103CD101CE62A7EFEFFFEFE92
:4059C000FFE71AFF070307870320040003400201030120050A0B071F0F2F1F7F3FBF7FFFA0000FC7ABCFDF8190CA9380BEDCFC80BEDFFF200300FE2003400780030ABCDACA
:405A0000FC81C39287EFD787EF80320D7FFF3F7F1F7F1FEF07FF07FB03FF4057205F206520000503E797FFFEF7407D04FE043A489CE003970B008161C1FF7927FF0F173EE0
:405A40003F02008C00E0FF01E01901000CE08D0110040A0C0E0F00090F0A0D011F040A060600E000000503017F8F13FF40000380708CCBE00016E006000D010002010703CB
:405A80000B070F070F0F0F1F4002001F2000003F2001021F3F3F40064005021F2F1F601A201B070F07070F0307010720380001604A00FFA001E00000058000E09F98FE40A1
:405AC00077030F71963FE00016120000040EF004FE09FA13FB0A05070F0004020C02000100E0FF01E01101007FA0010060E0AD011F0160006103610163066307670C642A86
:405B00007E781020784078907070007870002010600000E032001B20104070708FD8FF58E7B0FF38401C780C06060E03060707010301036151E0070000FFA001600001006B
:405B40000000A5A5A5A5A5A5A5A5A5A5A5A5A5A5A5A5A5A5A5A549444C45000000300F40800000310F40000300400F40000484C100320100000004040012608400000A127C
:405B80001004569A0905072738488400000004168000801204008412000400160000081D7F0702E08000080000220000510043021000000EDCBF3DFFFFFF2200F0080400E3
:405BC00000000000022004040404111100010000C00040011011C00100114001400100000000000000000000000000000000000002000F4004300F4029310F4041320F409B
:405C00003D330F4005400F4005410F4003420F4005430F4002600F407201810F38A03E5058045F010514060207400C800D020E281510171518051D841E86242825072614DD
:405C400027282D902E012F2037293D023E103F80458247284D085642575467016E116F55748075807702C0F0C2F0C470CAF0CCE0CEB0D0F0D81000CD041005020660087229
:405C80000A080C4D0E800F04101212641680170318011A321C021E0D1F0120CD2304248D264028CD2F03328034703504360F37033AA03E043F105409580459045B045C1115
:405CC0005D105F01800E8102830D8509870689038B0C9005920A94039604A404A609AD05AF0AB00FB70FB802BB80D440D804D904DB04DC11DD10DF0101020404074909068A
:405D00000C010D0A0E090F201308171619021C141D101E011F20230126A028012C012D023680370838283B013D485D085E825F106011630866806D4086848A608B108C0117
:405D40008D088E8090289204970199089A409B5F9D10A106A245A314A720B405B504C0F8C2FCC474CA98CC50CE57D6F0D81EE260EA1057805E805F02D440D6A08A408F8038
:405D8000A640A780B7026C407008DC035402A002B44AD604EC0A010A100A000000140000001400000002000000020000001400000014000004031202700500003860AB44C4
:405DC00012A0C86654484025386538602FAF0000000000000000000000000000000000000000000000000000000000FEFE000000000000000000003333000000000000004D
:405E0000003E3E00003E3E000000000000000000000000000000003030F07E37B0F83F31300003233F0703333F03030300000070F88C8CFF0C0C180000000018303030FFDD
:405E400031311F0E00003C7E4242FEBC80404040000000010101001E3F21213F1E00000080DC7EE6C60606808000000F1F383031330F3E37230000000000003E3E000000AD
:405E8000000000000000000000000000000000000000E0FC0F010000000000000000073FF08000000000000000010FFCE0000000000000000080F03F07000000000000009E
:405EC000844830FE3048840000000000000000010000000000000080808080F8F8808080800000010101011F1F0101010100000000000000000000000000000000C0783805
:405F00000000000000000000000000000000000000000000000303030303000000000000000000000000000000000000000038380000000000000000000000C0F03C0E02E6
:405F400000000080E0781F0701000000000000F0FC0E06C6C60EFCF0000000071F38303030381F07000000000C0C06FEFE000000000000003030303F3F3030300000000C8C
:405F80000606060606CEFC7800000030383C3637333130300000000C06C6C6C6C6EEFC38000000183030303030391F0F0000000080E0300CFEFE0000000000070706060639
:405FC0003F3F060600000000FE7E666666E6C680000000183030303030381F0F000000F0FC9CCEC6C6C68C00000000071F39303030391F0F0000000606060606E6FE3E06FF
:406000000000000000203C1F0700000000000038FCC6C6C6C6C6FC380000000F1F39303030391F0F00000078FCCE868686CEFCF00000000018313131391C0F070000000096
:406040000000E0E000000000000000000000383800000000000000000000E0E0000000000000000000C0783800000000000000008080C040606020300000000103020604A0
:406080000C0C08180000006060606060606060600000000606060606060606060000003020606040C080800000000018080C0C0406020301000000000C0686C6E67E3C00BC
:4060C000000000000000373700000000000000F0FC0E03F1F90BFEFC000000071F386043474407070000000000E0FE1EFEE00000000000303E0F0706070F3E30000000FEC6
:40610000FEC6C6C6C6C6FC380000003F3F30303030391F0F000000F0F81C0E060606060C000000070F1C383030303018000000FEFE0606060E1CF8F00000003F3F30303004
:40614000381C0F07000000FEFEC6C6C6C6C6C6C60000003F3F30303030303030000000FEFEC6C6C6C6C6C6060000003F3F00000000000000000000F0F81C0E06C6C6C6CC27
:40618000000000070F1C303030301F1F000000FEFEC0C0C0C0C0FEFE0000003F3F00000000003F3F00000000060606FEFE060606000000003030303F3F303030000000003D
:4061C00000060606FEFE000000000018303030301F0F0000000000FEFEC0E0F0180C06020000003F3F000003071E3830000000FEFE000000000000000000003F3F303030BB
:4062000030303030000000FEFE1EF080F01EFEFE0000003F3F00000100003F3F000000FEFE0E78C00000FEFE0000003F3F0000010F383F3F000000F0FC0E0606060EFCF085
:40624000000000071F38303030381F07000000FEFE86868686CEFC780000003F3F01010101010000000000F0FC0E0606060EFCF0000000071F38303070F8DF07000000FEE9
:40628000FE86868686CEFC780000003F3F01010101071E3C200000387CCEC6C6C6868C00000000183030303030391F0F00000006060606FEFE060606060000000000003FC3
:4062C0003F000000000000FEFE0000000000FEFE0000000F1F38303030381F0F000000067EF8C000C0F87E060000000000033F3C3F03000000000EFEF000E060E000F0FEC9
:406300000E0000073F3C0700073C3F07000000020E1EF8E0F81E060200000020383E0F030F3E3820000000020E1E78E0E0781E0E020000000000003F3F000000000000063C
:40634000060686C6F63E1E06000000303C3E373130303030000000000000FFFF03030000000000000000FFFFC0C00000000000020E3CF0C000000000000000000000010715
:406380001F78E08000000000000303FFFF0000000000000000C0C0FFFF0000000000002030180C06060C183020000000000000000000000000000000000000000000000070
:4063C0000000C0C0C0C0C0C0C0C0C0C0C0000000010306040000000000000000000000000000000000000000603030303070E0C00000001E3E333333331B3F3F000000FF5F
:40640000FF6030303070E0C00000003F3F18303030381F0F00000080E060303030306000000000071F18303030301800000000C0E07030303060FFFF0000000F1F38303017
:4064400030183F3F00000080E07030303070E0C0000000071F1B33333333331B000000303030FEFF333333000000000000003F3F00000000000000F0F81C0C0C0C18FCFCAF
:406480000000000367CECCCCCCE67F3F000000FFFF6020303070E0C00000003F3F00000000003F3F00000000303030F3F3000000000000003030303F3F303030000000009E
:4064C000303030F3F3000000000000303030301F0F000000000000FFFF0080C0E07030100000003F3F0303071E383020000000030303FFFF000000000000000000000F3FE4
:4065000030303000000000F0F02030F0E03030F0E000003F3F00003F3F00003F3F0000F0F06020303070E0C00000003F3F00000000003F3F000000C0E07030303070E0C0A5
:406540000000000F1F38303030381F0F000000F0F06030303070E0C0000000FFFF0C1818181C0F07000000C0E07030303060F0F0000000070F1C1818180CFFFF00000000F7
:4065800000F0F0403030306000000000003F3F0000000000000000E0E0B0B0B030303060000000183131313133331F1E000000303030FEFE303030300000000000001F3F64
:4065C00030303030000000F0F00000000000F0F00000000F1F38303010183F3F00000010F0E0000000E0F0100000000000073F383F070000000030F0C00000800000C0F01B
:40660000300000033F3C0F010F3C3F03000000103070E080E070301000000020303C0F070F3C302000000010F0E0800000E0F01000000000C0C3EF7C3F070000000000308E
:40664000303030B0F0F0703000000030383C3F333130303000000000808080FE7F030303000000000101037FFEC0C0C000000000000000FFFF00000000000000000000FFBE
:40668000FF000000000000000303037FFE80808000000000C0C0C0FE7F030101000000008080808000000080000000030101010103030301000000F880F884F0F084F880B2
:4066C000F8000E321F210F3F3F0F310E320E00000000000000C0F0F8FCFC0000000080FCFFFFFF7F07017E3E3F1F1F1F1F1F1F3F3E7E000000000000000000000000FCFCBF
:40670000F8F0C00000000000000001077FFFFFFFFC800000000000000000000000F8F8FC7C7C0000000000000000000000007C7C7E3E3EFEFEFEFEFE00000000000000FFE6
:40674000FFFFFFFF000000000000000000000000000000000000000000000000000000000000F8FCFC7C7E7E3E3E0000000001000000000000003F1F1F1F1F1F1F1F1F1FE2
:406780003E3E0000000000000000000000007EFCFCF8F0E0C00000000000000003FFFFFFFFFE0000000000000000007C7C3E3E3E3E1F0000000000000000000000001F1F15
:4067C0001F1F1F1F1F1F1F3E3E7E000000000000000000000000FCFCF8F0E0C00000000000000081FFFFFFFF7F00000000000000000000000000000000000000000000004A
:406800000000000000800000000080E0F0FCFE3EFEFEE0F0FCFE3F1F07010000FFFFFEFEFE000000000000000000FFFFFF000000000000000000000000000000FEFEFEFE37
:40684000FE3E000000000000FFFFFFFFFF003E3E3E3E3E3E3E3E3E3E3E3E0000000000000000000000003E3E3E3E3E000000000000000000000000000000000000000000C3
:40688000000000000080E0F0F8F80000000000F8FEFFFF7F0F03FC7E7E3E3F1F1F1F1F1F1F1F0000008080808080808080001F3E3E3E7C0000000000000000000000000070
:4068C000000000000000000000003E3E3E3E3E3E3E3E0000000000000000000000003E3E3E3E3E3E3E3E3E3E3E3E00000000000000000000E0F83EFEFEFEFEFE7E1E000018
:406900000000FEFFFF3F0F03000000000000000000000000E0F0F8FCFC7E00000000007FFFFFFFFF81003E3E1F1F1F1F1F1F1F1F3E3E0000000000000000000000007EFC66
:40694000FCF8F0E00000000000000081FFFFFFFF7F0000000000000000000080E0F0F8FCFC7E00000000FCFFFFFFFF0700003E3F1F1F1F1F1F1F1F3F7E7E00000000000009
:40698000000000000000FCFCF8F0E0800000000000000107FFFFFFFFFC800000000080C0E0F0F8D8C8C8C0C0C0C0000103070F0D090901010101C0C0C0C0C8C8D8F8F0E03A
:4069C000C0800101010109090D0F0703010000000000FFFFFFFFFF000000000000003FFFFFFFFFC000000000F0F8FCFCFCFCF8F00000000000010303030301000000000056
:406A000000FFFFFFFFFF000000000000C0FFFFFFFF3F000000000000000000000000000000000000000000000000000000000000000000FFFFFFFFFF00000000000000FF66
:406A4000FFFFFFFF0000000000000000000000000000000000000000000000000000000000000000000000000000000000000000000000000000000000000000000000809A
:406A8000C0F080C0E0F0F8F8FC7E7F3F1F0FF8FCFFFF3F1F0701000000000703010000000000000000000000000000000000000000F8000000000000000000000000F8F875
:406AC000F8F8F8F8F8F8FCFCFCFE000000000000000000010103DFDF8F8F070300000000000003071FFFFFFEFCE00000000000000000000080E0F0FCFE7F000000F0FCFF34
:406B0000FFFFEFE3E0E01F070300000000000000FFFFE0E0E0E0E0E0E0E0E0E0FFFFFFFFFF000000000000000000FFFFFFE0E0E0E0E0E00000000000000000007F3F3F3F6A
:406B40003F1E0000000000000000000000001F1F1F1F1F1F1F1F3F3E3E7E000000000000000000000000FCFCF8F0E0C0000000000000000107FFFFFFFFFC00000000000007
:406B80000000FFFFFFFFFFF0F8FC000000003FFFFFFFFFFF03003E3F1F0F0F0F0F0F0F0F1F1F0000000000000000000000003F7EFEFCF8F0C00000000000000003FFFFFF17
:406BC000FFFE0000000000000000000000000000000000000000000000000000000000000000000080E0FCFFFFFF00000080F0FCFFFFFF1F07003F07010000000000000069
:406C00000000000000000000000000000000000000000000010387CFDFDE00000000E0FCFEFFFF1F0703FCFCF8F8F8F8F8F8F8F8FCFC010100000000000000000101DEDFCB
:406C4000CF87030100000000000003071FFFFFFEFCE000000000000000000F7FFFFFFFF8C0800000000000000103070F0F1F0000000000000000000080801F3F3E3E3E3E58
:406C80003E3E3E1F1F0FE0F8FFFFFFFFFFFF000000000703C1FFFFFFFF1F000000000080C0E0F0F8F0E0C0800000000701007F7F7F000107000000E08000FEFEFE0080E0B6
:406CC0000000000103070F1F0F07030100000000000000071F7FFFFFFCF0000000000000000001030707C080800000000000008080C00F0F1F1F1F1F1F1F1F1F0F0FF0FC00
:406D0000FFFF7F1F07000000000007070301000000000000000000000000000000008080808000000000000000000F0F0F0F8080808080FFFFFFFFFF80800F0F0F0F0F0F8D
:406D40000F0F0F0F0F0F8080808080808000000000000F0F0F0F0F0F0F00000000000000000080C0E0F0F8FCFEFF000000000F0F0F0F0F0F0F0FBF9F8F87838180808080DF
:406D800080800F0F0F0F0F0F0F0F0F0F0F0F8080808080808080000000000F0F0F0F0F0F0F0F0000000000000000E0C0C0C0808080000000000007070F0F0F0F1F1F00007F
:406DC000000000000000008080C01F1F1F1F1F1F1F1F1F1F0F0FC0E0F8FFFFFF7F0F000000000F070703010000000000000000000003030303030303030300000000000020
:406E000000000000000003030303030303030303FFFF000000000000000000000F0FFFFFFF0303030303030000000F0F0F00000000000000000000000000E0C0C0808080FC
:406E4000800000000000070F0F0F0F1F1F1F0000000000000000808080C01F1F1F1F1F1F1F1F1F0F0F0FE0F0FCFFFF7F1F07000000000707030100000000000000000000ED
:406E8000000000073FFFFFFFFCF0000000000000000001030707C0C0800000000000000080800F0F1F1F1F1F1F1F1F1F1F0FC0E0FCFFFFFF3F07000000000F07070301004D
:406EC00000000000000000000000000000000000000000000000000000000000080FC0F8FEFFFF7F0F03000000000F0F0F0F010000000000000000000000000000000000F9
:406F00000000000000000000000000000000000000001F7FFFFFFFF8E0C0000000000000000303070F0F8080000000000000000080800F1F1F1F1F1F1F1F1F1F1F0FC0E0FF
:406F4000F8FFFFFF7F1F000000000F0F0703030000000000000000000000000000C08080800000000000000000070F0F0F1F000000000000008080C0C0E01F1F1F1F1F1FA6
:406F80001F1F0F0F0F07F8FEFFFF3F0F0300000000000303010000000000000000000000F8F8F8F8F8F8F800000000000F0F0F0F0F0F0F00000000E08000FEFEFE0080E028
:406FC0000000606163676F7F6F67636160004300232D302B2000686C4C006566674546470030313233343536373839414243444546003031323334353637383961626364B3
:40700000656600002020202020202020202828282828202020202020202020202020202020202020881010101010101010101010101010100404040404040404040410109D
:407040001010101010414141414141010101010101010101010101010101010101010110101010101042424242424202020202020202020202020202020202020202021002
:407080001010102000000000000000000000000000000000000000000000000000000000000000000000000000000000000000000000000000000000000000000000000080
:4070C0000000000000000000000000000000000000000000000000000000000000000000000000000000000000000000000000000000000000000000000000000000000090
:4071000000000000F8B5C046F8BC08BC9E4670471D0F0000C9330000F8B5C046F8BC08BC9E467047F50E000038710000D0000020A8000000700A000000000000800B000052
:407140000300000001000000000000000000000002000000FFFFFFFF04000000AAAAAAAAFFFFFFFF0000E02EC05D00001800000000366E010000000000000000000000007D
:407180000000000000000000000000000000000000000000CE6F00000000000000000000000000000000000000000000000000000000000000000000000000000000000092
:4071C0000000000000000000000000000000000000000000000000000C010020037000000000000000000000000000000000000000000000000000000000000000000000EF
:40720000000000000000000000000000000000000000000000000000000000000000000000000000000000000000000000000000000000000000000000000000000000004E
